{
	"solidity practice/structs.sol": {
		"structLearning": {
			"abi": [
				{
					"inputs": [],
					"name": "getData",
					"outputs": [],
					"stateMutability": "nonpayable",
					"type": "function"
				},
				{
					"inputs": [],
					"name": "getId",
					"outputs": [
						{
							"internalType": "uint256",
							"name": "",
							"type": "uint256"
						}
					],
					"stateMutability": "view",
					"type": "function"
				}
			],
			"devdoc": {
				"kind": "dev",
				"methods": {},
				"version": 1
			},
			"evm": {
				"assembly": "    /* \"solidity practice/structs.sol\":66:391  contract structLearning{... */\n  mstore(0x40, 0x80)\n  callvalue\n  dup1\n  iszero\n  tag_1\n  jumpi\n  0x00\n  dup1\n  revert\ntag_1:\n  pop\n  dataSize(sub_0)\n  dup1\n  dataOffset(sub_0)\n  0x00\n  codecopy\n  0x00\n  return\nstop\n\nsub_0: assembly {\n        /* \"solidity practice/structs.sol\":66:391  contract structLearning{... */\n      mstore(0x40, 0x80)\n      callvalue\n      dup1\n      iszero\n      tag_1\n      jumpi\n      0x00\n      dup1\n      revert\n    tag_1:\n      pop\n      jumpi(tag_2, lt(calldatasize, 0x04))\n      shr(0xe0, calldataload(0x00))\n      dup1\n      0x3bc5de30\n      eq\n      tag_3\n      jumpi\n      dup1\n      0x5d1ca631\n      eq\n      tag_4\n      jumpi\n    tag_2:\n      0x00\n      dup1\n      revert\n        /* \"solidity practice/structs.sol\":223:304  function getData() public{... */\n    tag_3:\n      tag_5\n      tag_6\n      jump\t// in\n    tag_5:\n      stop\n        /* \"solidity practice/structs.sol\":310:389  function getId() view public returns(uint){... */\n    tag_4:\n      tag_7\n      tag_8\n      jump\t// in\n    tag_7:\n      mload(0x40)\n      tag_9\n      swap2\n      swap1\n      tag_10\n      jump\t// in\n    tag_9:\n      mload(0x40)\n      dup1\n      swap2\n      sub\n      swap1\n      return\n        /* \"solidity practice/structs.sol\":223:304  function getData() public{... */\n    tag_6:\n        /* \"solidity practice/structs.sol\":269:297  Student(1, \"sulabh\", 21, 45) */\n      mload(0x40)\n      dup1\n      0x80\n      add\n      0x40\n      mstore\n      dup1\n        /* \"solidity practice/structs.sol\":277:278  1 */\n      0x01\n        /* \"solidity practice/structs.sol\":269:297  Student(1, \"sulabh\", 21, 45) */\n      dup2\n      mstore\n      0x20\n      add\n      mload(0x40)\n      dup1\n      0x40\n      add\n      0x40\n      mstore\n      dup1\n      0x06\n      dup2\n      mstore\n      0x20\n      add\n      0x73756c6162680000000000000000000000000000000000000000000000000000\n      dup2\n      mstore\n      pop\n      dup2\n      mstore\n      0x20\n      add\n        /* \"solidity practice/structs.sol\":290:292  21 */\n      0x15\n        /* \"solidity practice/structs.sol\":269:297  Student(1, \"sulabh\", 21, 45) */\n      dup2\n      mstore\n      0x20\n      add\n        /* \"solidity practice/structs.sol\":294:296  45 */\n      0x2d\n        /* \"solidity practice/structs.sol\":269:297  Student(1, \"sulabh\", 21, 45) */\n      dup2\n      mstore\n      pop\n        /* \"solidity practice/structs.sol\":258:265  student */\n      0x00\n        /* \"solidity practice/structs.sol\":258:297  student  = Student(1, \"sulabh\", 21, 45) */\n      dup1\n      dup3\n      add\n      mload\n      dup2\n      0x00\n      add\n      sstore\n      0x20\n      dup3\n      add\n      mload\n      dup2\n      0x01\n      add\n      swap1\n      dup1\n      mload\n      swap1\n      0x20\n      add\n      swap1\n      tag_12\n      swap3\n      swap2\n      swap1\n      tag_13\n      jump\t// in\n    tag_12:\n      pop\n      0x40\n      dup3\n      add\n      mload\n      dup2\n      0x02\n      add\n      sstore\n      0x60\n      dup3\n      add\n      mload\n      dup2\n      0x03\n      add\n      sstore\n      swap1\n      pop\n      pop\n        /* \"solidity practice/structs.sol\":223:304  function getData() public{... */\n      jump\t// out\n        /* \"solidity practice/structs.sol\":310:389  function getId() view public returns(uint){... */\n    tag_8:\n        /* \"solidity practice/structs.sol\":347:351  uint */\n      0x00\n        /* \"solidity practice/structs.sol\":369:376  student */\n      dup1\n        /* \"solidity practice/structs.sol\":369:382  student.grade */\n      0x03\n      add\n      sload\n        /* \"solidity practice/structs.sol\":362:382  return student.grade */\n      swap1\n      pop\n        /* \"solidity practice/structs.sol\":310:389  function getId() view public returns(uint){... */\n      swap1\n      jump\t// out\n    tag_13:\n      dup3\n      dup1\n      sload\n      tag_15\n      swap1\n      tag_16\n      jump\t// in\n    tag_15:\n      swap1\n      0x00\n      mstore\n      keccak256(0x00, 0x20)\n      swap1\n      0x1f\n      add\n      0x20\n      swap1\n      div\n      dup2\n      add\n      swap3\n      dup3\n      tag_18\n      jumpi\n      0x00\n      dup6\n      sstore\n      jump(tag_17)\n    tag_18:\n      dup3\n      0x1f\n      lt\n      tag_19\n      jumpi\n      dup1\n      mload\n      not(0xff)\n      and\n      dup4\n      dup1\n      add\n      or\n      dup6\n      sstore\n      jump(tag_17)\n    tag_19:\n      dup3\n      dup1\n      add\n      0x01\n      add\n      dup6\n      sstore\n      dup3\n      iszero\n      tag_17\n      jumpi\n      swap2\n      dup3\n      add\n    tag_20:\n      dup3\n      dup2\n      gt\n      iszero\n      tag_21\n      jumpi\n      dup3\n      mload\n      dup3\n      sstore\n      swap2\n      0x20\n      add\n      swap2\n      swap1\n      0x01\n      add\n      swap1\n      jump(tag_20)\n    tag_21:\n    tag_17:\n      pop\n      swap1\n      pop\n      tag_22\n      swap2\n      swap1\n      tag_23\n      jump\t// in\n    tag_22:\n      pop\n      swap1\n      jump\t// out\n    tag_23:\n    tag_24:\n      dup1\n      dup3\n      gt\n      iszero\n      tag_25\n      jumpi\n      0x00\n      dup2\n      0x00\n      swap1\n      sstore\n      pop\n      0x01\n      add\n      jump(tag_24)\n    tag_25:\n      pop\n      swap1\n      jump\t// out\n        /* \"#utility.yul\":7:125   */\n    tag_27:\n        /* \"#utility.yul\":94:118   */\n      tag_29\n        /* \"#utility.yul\":112:117   */\n      dup2\n        /* \"#utility.yul\":94:118   */\n      tag_30\n      jump\t// in\n    tag_29:\n        /* \"#utility.yul\":89:92   */\n      dup3\n        /* \"#utility.yul\":82:119   */\n      mstore\n        /* \"#utility.yul\":7:125   */\n      pop\n      pop\n      jump\t// out\n        /* \"#utility.yul\":131:353   */\n    tag_10:\n        /* \"#utility.yul\":224:228   */\n      0x00\n        /* \"#utility.yul\":262:264   */\n      0x20\n        /* \"#utility.yul\":251:260   */\n      dup3\n        /* \"#utility.yul\":247:265   */\n      add\n        /* \"#utility.yul\":239:265   */\n      swap1\n      pop\n        /* \"#utility.yul\":275:346   */\n      tag_32\n        /* \"#utility.yul\":343:344   */\n      0x00\n        /* \"#utility.yul\":332:341   */\n      dup4\n        /* \"#utility.yul\":328:345   */\n      add\n        /* \"#utility.yul\":319:325   */\n      dup5\n        /* \"#utility.yul\":275:346   */\n      tag_27\n      jump\t// in\n    tag_32:\n        /* \"#utility.yul\":131:353   */\n      swap3\n      swap2\n      pop\n      pop\n      jump\t// out\n        /* \"#utility.yul\":359:436   */\n    tag_30:\n        /* \"#utility.yul\":396:403   */\n      0x00\n        /* \"#utility.yul\":425:430   */\n      dup2\n        /* \"#utility.yul\":414:430   */\n      swap1\n      pop\n        /* \"#utility.yul\":359:436   */\n      swap2\n      swap1\n      pop\n      jump\t// out\n        /* \"#utility.yul\":442:762   */\n    tag_16:\n        /* \"#utility.yul\":486:492   */\n      0x00\n        /* \"#utility.yul\":523:524   */\n      0x02\n        /* \"#utility.yul\":517:521   */\n      dup3\n        /* \"#utility.yul\":513:525   */\n      div\n        /* \"#utility.yul\":503:525   */\n      swap1\n      pop\n        /* \"#utility.yul\":570:571   */\n      0x01\n        /* \"#utility.yul\":564:568   */\n      dup3\n        /* \"#utility.yul\":560:572   */\n      and\n        /* \"#utility.yul\":591:609   */\n      dup1\n        /* \"#utility.yul\":581:662   */\n      tag_35\n      jumpi\n        /* \"#utility.yul\":647:651   */\n      0x7f\n        /* \"#utility.yul\":639:645   */\n      dup3\n        /* \"#utility.yul\":635:652   */\n      and\n        /* \"#utility.yul\":625:652   */\n      swap2\n      pop\n        /* \"#utility.yul\":581:662   */\n    tag_35:\n        /* \"#utility.yul\":709:711   */\n      0x20\n        /* \"#utility.yul\":701:707   */\n      dup3\n        /* \"#utility.yul\":698:712   */\n      lt\n        /* \"#utility.yul\":678:696   */\n      dup2\n        /* \"#utility.yul\":675:713   */\n      eq\n        /* \"#utility.yul\":672:756   */\n      iszero\n      tag_36\n      jumpi\n        /* \"#utility.yul\":728:746   */\n      tag_37\n      tag_38\n      jump\t// in\n    tag_37:\n        /* \"#utility.yul\":672:756   */\n    tag_36:\n        /* \"#utility.yul\":493:762   */\n      pop\n        /* \"#utility.yul\":442:762   */\n      swap2\n      swap1\n      pop\n      jump\t// out\n        /* \"#utility.yul\":768:948   */\n    tag_38:\n        /* \"#utility.yul\":816:893   */\n      0x4e487b7100000000000000000000000000000000000000000000000000000000\n        /* \"#utility.yul\":813:814   */\n      0x00\n        /* \"#utility.yul\":806:894   */\n      mstore\n        /* \"#utility.yul\":913:917   */\n      0x22\n        /* \"#utility.yul\":910:911   */\n      0x04\n        /* \"#utility.yul\":903:918   */\n      mstore\n        /* \"#utility.yul\":937:941   */\n      0x24\n        /* \"#utility.yul\":934:935   */\n      0x00\n        /* \"#utility.yul\":927:942   */\n      revert\n\n    auxdata: 0xa2646970667358221220b236fd98c34d830cc5f9e33fdf2a6883dd1b2fc9b0fe0d71f661d47eec0b1a7f64736f6c63430008070033\n}\n",
				"bytecode": {
					"linkReferences": {},
					"object": "608060405234801561001057600080fd5b50610277806100206000396000f3fe608060405234801561001057600080fd5b50600436106100365760003560e01c80633bc5de301461003b5780635d1ca63114610045575b600080fd5b610043610063565b005b61004d6100fd565b60405161005a91906101bb565b60405180910390f35b6040518060800160405280600181526020016040518060400160405280600681526020017f73756c6162680000000000000000000000000000000000000000000000000000815250815260200160158152602001602d815250600080820151816000015560208201518160010190805190602001906100e3929190610109565b506040820151816002015560608201518160030155905050565b60008060030154905090565b828054610115906101e0565b90600052602060002090601f016020900481019282610137576000855561017e565b82601f1061015057805160ff191683800117855561017e565b8280016001018555821561017e579182015b8281111561017d578251825591602001919060010190610162565b5b50905061018b919061018f565b5090565b5b808211156101a8576000816000905550600101610190565b5090565b6101b5816101d6565b82525050565b60006020820190506101d060008301846101ac565b92915050565b6000819050919050565b600060028204905060018216806101f857607f821691505b6020821081141561020c5761020b610212565b5b50919050565b7f4e487b7100000000000000000000000000000000000000000000000000000000600052602260045260246000fdfea2646970667358221220b236fd98c34d830cc5f9e33fdf2a6883dd1b2fc9b0fe0d71f661d47eec0b1a7f64736f6c63430008070033",
					"opcodes": "PUSH1 0x80 PUSH1 0x40 MSTORE CALLVALUE DUP1 ISZERO PUSH2 0x10 JUMPI PUSH1 0x0 DUP1 REVERT JUMPDEST POP PUSH2 0x277 DUP1 PUSH2 0x20 PUSH1 0x0 CODECOPY PUSH1 0x0 RETURN INVALID PUSH1 0x80 PUSH1 0x40 MSTORE CALLVALUE DUP1 ISZERO PUSH2 0x10 JUMPI PUSH1 0x0 DUP1 REVERT JUMPDEST POP PUSH1 0x4 CALLDATASIZE LT PUSH2 0x36 JUMPI PUSH1 0x0 CALLDATALOAD PUSH1 0xE0 SHR DUP1 PUSH4 0x3BC5DE30 EQ PUSH2 0x3B JUMPI DUP1 PUSH4 0x5D1CA631 EQ PUSH2 0x45 JUMPI JUMPDEST PUSH1 0x0 DUP1 REVERT JUMPDEST PUSH2 0x43 PUSH2 0x63 JUMP JUMPDEST STOP JUMPDEST PUSH2 0x4D PUSH2 0xFD JUMP JUMPDEST PUSH1 0x40 MLOAD PUSH2 0x5A SWAP2 SWAP1 PUSH2 0x1BB JUMP JUMPDEST PUSH1 0x40 MLOAD DUP1 SWAP2 SUB SWAP1 RETURN JUMPDEST PUSH1 0x40 MLOAD DUP1 PUSH1 0x80 ADD PUSH1 0x40 MSTORE DUP1 PUSH1 0x1 DUP2 MSTORE PUSH1 0x20 ADD PUSH1 0x40 MLOAD DUP1 PUSH1 0x40 ADD PUSH1 0x40 MSTORE DUP1 PUSH1 0x6 DUP2 MSTORE PUSH1 0x20 ADD PUSH32 0x73756C6162680000000000000000000000000000000000000000000000000000 DUP2 MSTORE POP DUP2 MSTORE PUSH1 0x20 ADD PUSH1 0x15 DUP2 MSTORE PUSH1 0x20 ADD PUSH1 0x2D DUP2 MSTORE POP PUSH1 0x0 DUP1 DUP3 ADD MLOAD DUP2 PUSH1 0x0 ADD SSTORE PUSH1 0x20 DUP3 ADD MLOAD DUP2 PUSH1 0x1 ADD SWAP1 DUP1 MLOAD SWAP1 PUSH1 0x20 ADD SWAP1 PUSH2 0xE3 SWAP3 SWAP2 SWAP1 PUSH2 0x109 JUMP JUMPDEST POP PUSH1 0x40 DUP3 ADD MLOAD DUP2 PUSH1 0x2 ADD SSTORE PUSH1 0x60 DUP3 ADD MLOAD DUP2 PUSH1 0x3 ADD SSTORE SWAP1 POP POP JUMP JUMPDEST PUSH1 0x0 DUP1 PUSH1 0x3 ADD SLOAD SWAP1 POP SWAP1 JUMP JUMPDEST DUP3 DUP1 SLOAD PUSH2 0x115 SWAP1 PUSH2 0x1E0 JUMP JUMPDEST SWAP1 PUSH1 0x0 MSTORE PUSH1 0x20 PUSH1 0x0 KECCAK256 SWAP1 PUSH1 0x1F ADD PUSH1 0x20 SWAP1 DIV DUP2 ADD SWAP3 DUP3 PUSH2 0x137 JUMPI PUSH1 0x0 DUP6 SSTORE PUSH2 0x17E JUMP JUMPDEST DUP3 PUSH1 0x1F LT PUSH2 0x150 JUMPI DUP1 MLOAD PUSH1 0xFF NOT AND DUP4 DUP1 ADD OR DUP6 SSTORE PUSH2 0x17E JUMP JUMPDEST DUP3 DUP1 ADD PUSH1 0x1 ADD DUP6 SSTORE DUP3 ISZERO PUSH2 0x17E JUMPI SWAP2 DUP3 ADD JUMPDEST DUP3 DUP2 GT ISZERO PUSH2 0x17D JUMPI DUP3 MLOAD DUP3 SSTORE SWAP2 PUSH1 0x20 ADD SWAP2 SWAP1 PUSH1 0x1 ADD SWAP1 PUSH2 0x162 JUMP JUMPDEST JUMPDEST POP SWAP1 POP PUSH2 0x18B SWAP2 SWAP1 PUSH2 0x18F JUMP JUMPDEST POP SWAP1 JUMP JUMPDEST JUMPDEST DUP1 DUP3 GT ISZERO PUSH2 0x1A8 JUMPI PUSH1 0x0 DUP2 PUSH1 0x0 SWAP1 SSTORE POP PUSH1 0x1 ADD PUSH2 0x190 JUMP JUMPDEST POP SWAP1 JUMP JUMPDEST PUSH2 0x1B5 DUP2 PUSH2 0x1D6 JUMP JUMPDEST DUP3 MSTORE POP POP JUMP JUMPDEST PUSH1 0x0 PUSH1 0x20 DUP3 ADD SWAP1 POP PUSH2 0x1D0 PUSH1 0x0 DUP4 ADD DUP5 PUSH2 0x1AC JUMP JUMPDEST SWAP3 SWAP2 POP POP JUMP JUMPDEST PUSH1 0x0 DUP2 SWAP1 POP SWAP2 SWAP1 POP JUMP JUMPDEST PUSH1 0x0 PUSH1 0x2 DUP3 DIV SWAP1 POP PUSH1 0x1 DUP3 AND DUP1 PUSH2 0x1F8 JUMPI PUSH1 0x7F DUP3 AND SWAP2 POP JUMPDEST PUSH1 0x20 DUP3 LT DUP2 EQ ISZERO PUSH2 0x20C JUMPI PUSH2 0x20B PUSH2 0x212 JUMP JUMPDEST JUMPDEST POP SWAP2 SWAP1 POP JUMP JUMPDEST PUSH32 0x4E487B7100000000000000000000000000000000000000000000000000000000 PUSH1 0x0 MSTORE PUSH1 0x22 PUSH1 0x4 MSTORE PUSH1 0x24 PUSH1 0x0 REVERT INVALID LOG2 PUSH5 0x6970667358 0x22 SLT KECCAK256 0xB2 CALLDATASIZE REVERT SWAP9 0xC3 0x4D DUP4 0xC 0xC5 0xF9 0xE3 EXTCODEHASH 0xDF 0x2A PUSH9 0x83DD1B2FC9B0FE0D71 0xF6 PUSH2 0xD47E 0xEC SIGNEXTEND BYTE PUSH32 0x64736F6C63430008070033000000000000000000000000000000000000000000 "
				},
				"gasEstimates": {
					"creation": {
						"codeDepositCost": "126200",
						"executionCost": "171",
						"totalCost": "126371"
					},
					"external": {
						"getData()": "infinite",
						"getId()": "2443"
					}
				},
				"methodIdentifiers": {
					"getData()": "3bc5de30",
					"getId()": "5d1ca631"
				}
			},
			"storageLayout": {
				"storage": [
					{
						"astId": 13,
						"contract": "solidity practice/structs.sol:structLearning",
						"label": "student",
						"offset": 0,
						"slot": "0",
						"type": "t_struct(Student)10_storage"
					}
				],
				"types": {
					"t_string_storage": {
						"encoding": "bytes",
						"label": "string",
						"numberOfBytes": "32"
					},
					"t_struct(Student)10_storage": {
						"encoding": "inplace",
						"label": "struct structLearning.Student",
						"members": [
							{
								"astId": 3,
								"contract": "solidity practice/structs.sol:structLearning",
								"label": "id",
								"offset": 0,
								"slot": "0",
								"type": "t_uint256"
							},
							{
								"astId": 5,
								"contract": "solidity practice/structs.sol:structLearning",
								"label": "name",
								"offset": 0,
								"slot": "1",
								"type": "t_string_storage"
							},
							{
								"astId": 7,
								"contract": "solidity practice/structs.sol:structLearning",
								"label": "rollNo",
								"offset": 0,
								"slot": "2",
								"type": "t_uint256"
							},
							{
								"astId": 9,
								"contract": "solidity practice/structs.sol:structLearning",
								"label": "grade",
								"offset": 0,
								"slot": "3",
								"type": "t_uint256"
							}
						],
						"numberOfBytes": "128"
					},
					"t_uint256": {
						"encoding": "inplace",
						"label": "uint256",
						"numberOfBytes": "32"
					}
				}
			},
			"userdoc": {
				"kind": "user",
				"methods": {},
				"version": 1
			}
		}
	}
}