{
	"solidity practice/loops.sol": {
		"LoopCheck": {
			"abi": [
				{
					"inputs": [
						{
							"internalType": "uint256[]",
							"name": "_num1",
							"type": "uint256[]"
						},
						{
							"internalType": "uint256",
							"name": "_num2",
							"type": "uint256"
						}
					],
					"name": "checkMultiples",
					"outputs": [
						{
							"internalType": "bool",
							"name": "",
							"type": "bool"
						}
					],
					"stateMutability": "pure",
					"type": "function"
				}
			],
			"devdoc": {
				"kind": "dev",
				"methods": {},
				"version": 1
			},
			"evm": {
				"assembly": "    /* \"solidity practice/loops.sol\":68:583  contract LoopCheck{... */\n  mstore(0x40, 0x80)\n  callvalue\n  dup1\n  iszero\n  tag_1\n  jumpi\n  0x00\n  dup1\n  revert\ntag_1:\n  pop\n  dataSize(sub_0)\n  dup1\n  dataOffset(sub_0)\n  0x00\n  codecopy\n  0x00\n  return\nstop\n\nsub_0: assembly {\n        /* \"solidity practice/loops.sol\":68:583  contract LoopCheck{... */\n      mstore(0x40, 0x80)\n      callvalue\n      dup1\n      iszero\n      tag_1\n      jumpi\n      0x00\n      dup1\n      revert\n    tag_1:\n      pop\n      jumpi(tag_2, lt(calldatasize, 0x04))\n      shr(0xe0, calldataload(0x00))\n      dup1\n      0x72ac4f09\n      eq\n      tag_3\n      jumpi\n    tag_2:\n      0x00\n      dup1\n      revert\n        /* \"solidity practice/loops.sol\":95:388  function checkMultiples(uint[] memory _num1, uint _num2)pure public returns (bool){... */\n    tag_3:\n      tag_4\n      0x04\n      dup1\n      calldatasize\n      sub\n      dup2\n      add\n      swap1\n      tag_5\n      swap2\n      swap1\n      tag_6\n      jump\t// in\n    tag_5:\n      tag_7\n      jump\t// in\n    tag_4:\n      mload(0x40)\n      tag_8\n      swap2\n      swap1\n      tag_9\n      jump\t// in\n    tag_8:\n      mload(0x40)\n      dup1\n      swap2\n      sub\n      swap1\n      return\n    tag_7:\n        /* \"solidity practice/loops.sol\":172:176  bool */\n      0x00\n        /* \"solidity practice/loops.sol\":192:198  uint i */\n      dup1\n        /* \"solidity practice/loops.sol\":201:202  1 */\n      0x01\n        /* \"solidity practice/loops.sol\":192:202  uint i = 1 */\n      swap1\n      pop\n        /* \"solidity practice/loops.sol\":219:220  1 */\n      0x01\n        /* \"solidity practice/loops.sol\":206:211  _num1 */\n      dup5\n        /* \"solidity practice/loops.sol\":206:218  _num1.length */\n      mload\n        /* \"solidity practice/loops.sol\":206:220  _num1.length-1 */\n      tag_14\n      swap2\n      swap1\n      tag_15\n      jump\t// in\n    tag_14:\n        /* \"solidity practice/loops.sol\":204:205  i */\n      dup2\n        /* \"solidity practice/loops.sol\":204:220  i<_num1.length-1 */\n      lt\n        /* \"solidity practice/loops.sol\":187:381  for (uint i = 1; i<_num1.length-1; i++){... */\n      iszero\n      tag_12\n      jumpi\n        /* \"solidity practice/loops.sol\":243:277  checkDivisibility(_num1[i], _num2) */\n      tag_16\n        /* \"solidity practice/loops.sol\":261:266  _num1 */\n      dup5\n        /* \"solidity practice/loops.sol\":267:268  i */\n      dup3\n        /* \"solidity practice/loops.sol\":261:269  _num1[i] */\n      dup2\n      mload\n      dup2\n      lt\n      tag_17\n      jumpi\n      tag_18\n      tag_19\n      jump\t// in\n    tag_18:\n    tag_17:\n      0x20\n      mul\n      0x20\n      add\n      add\n      mload\n        /* \"solidity practice/loops.sol\":271:276  _num2 */\n      dup5\n        /* \"solidity practice/loops.sol\":243:260  checkDivisibility */\n      tag_20\n        /* \"solidity practice/loops.sol\":243:277  checkDivisibility(_num1[i], _num2) */\n      jump\t// in\n    tag_16:\n        /* \"solidity practice/loops.sol\":240:371  if(checkDivisibility(_num1[i], _num2)){... */\n      iszero\n      tag_21\n      jumpi\n        /* \"solidity practice/loops.sol\":303:307  true */\n      0x01\n        /* \"solidity practice/loops.sol\":296:307  return true */\n      swap2\n      pop\n      pop\n      jump(tag_10)\n        /* \"solidity practice/loops.sol\":240:371  if(checkDivisibility(_num1[i], _num2)){... */\n    tag_21:\n        /* \"solidity practice/loops.sol\":351:356  false */\n      0x00\n        /* \"solidity practice/loops.sol\":344:356  return false */\n      swap2\n      pop\n      pop\n      jump(tag_10)\n        /* \"solidity practice/loops.sol\":187:381  for (uint i = 1; i<_num1.length-1; i++){... */\n    tag_12:\n      pop\n        /* \"solidity practice/loops.sol\":95:388  function checkMultiples(uint[] memory _num1, uint _num2)pure public returns (bool){... */\n    tag_10:\n      swap3\n      swap2\n      pop\n      pop\n      jump\t// out\n        /* \"solidity practice/loops.sol\":393:581  function checkDivisibility(uint _num, uint _nums)pure internal returns(bool){... */\n    tag_20:\n        /* \"solidity practice/loops.sol\":464:468  bool */\n      0x00\n        /* \"solidity practice/loops.sol\":495:496  0 */\n      dup1\n        /* \"solidity practice/loops.sol\":489:493  _num */\n      dup4\n        /* \"solidity practice/loops.sol\":483:488  _nums */\n      dup4\n        /* \"solidity practice/loops.sol\":483:493  _nums%_num */\n      tag_26\n      swap2\n      swap1\n      tag_27\n      jump\t// in\n    tag_26:\n        /* \"solidity practice/loops.sol\":483:496  _nums%_num==0 */\n      eq\n        /* \"solidity practice/loops.sol\":480:574  if(_nums%_num==0){... */\n      iszero\n      tag_28\n      jumpi\n        /* \"solidity practice/loops.sol\":518:522  true */\n      0x01\n        /* \"solidity practice/loops.sol\":511:522  return true */\n      swap1\n      pop\n      jump(tag_25)\n        /* \"solidity practice/loops.sol\":480:574  if(_nums%_num==0){... */\n    tag_28:\n        /* \"solidity practice/loops.sol\":558:563  false */\n      0x00\n        /* \"solidity practice/loops.sol\":551:563  return false */\n      swap1\n      pop\n        /* \"solidity practice/loops.sol\":393:581  function checkDivisibility(uint _num, uint _nums)pure internal returns(bool){... */\n    tag_25:\n      swap3\n      swap2\n      pop\n      pop\n      jump\t// out\n        /* \"#utility.yul\":24:746   */\n    tag_31:\n        /* \"#utility.yul\":120:125   */\n      0x00\n        /* \"#utility.yul\":145:226   */\n      tag_33\n        /* \"#utility.yul\":161:225   */\n      tag_34\n        /* \"#utility.yul\":218:224   */\n      dup5\n        /* \"#utility.yul\":161:225   */\n      tag_35\n      jump\t// in\n    tag_34:\n        /* \"#utility.yul\":145:226   */\n      tag_36\n      jump\t// in\n    tag_33:\n        /* \"#utility.yul\":136:226   */\n      swap1\n      pop\n        /* \"#utility.yul\":246:251   */\n      dup1\n        /* \"#utility.yul\":275:281   */\n      dup4\n        /* \"#utility.yul\":268:273   */\n      dup3\n        /* \"#utility.yul\":261:282   */\n      mstore\n        /* \"#utility.yul\":309:313   */\n      0x20\n        /* \"#utility.yul\":302:307   */\n      dup3\n        /* \"#utility.yul\":298:314   */\n      add\n        /* \"#utility.yul\":291:314   */\n      swap1\n      pop\n        /* \"#utility.yul\":335:341   */\n      dup3\n        /* \"#utility.yul\":385:388   */\n      dup6\n        /* \"#utility.yul\":377:381   */\n      0x20\n        /* \"#utility.yul\":369:375   */\n      dup7\n        /* \"#utility.yul\":365:382   */\n      mul\n        /* \"#utility.yul\":360:363   */\n      dup3\n        /* \"#utility.yul\":356:383   */\n      add\n        /* \"#utility.yul\":353:389   */\n      gt\n        /* \"#utility.yul\":350:493   */\n      iszero\n      tag_37\n      jumpi\n        /* \"#utility.yul\":404:483   */\n      tag_38\n      tag_39\n      jump\t// in\n    tag_38:\n        /* \"#utility.yul\":350:493   */\n    tag_37:\n        /* \"#utility.yul\":517:518   */\n      0x00\n        /* \"#utility.yul\":502:740   */\n    tag_40:\n        /* \"#utility.yul\":527:533   */\n      dup6\n        /* \"#utility.yul\":524:525   */\n      dup2\n        /* \"#utility.yul\":521:534   */\n      lt\n        /* \"#utility.yul\":502:740   */\n      iszero\n      tag_42\n      jumpi\n        /* \"#utility.yul\":595:598   */\n      dup2\n        /* \"#utility.yul\":624:661   */\n      tag_43\n        /* \"#utility.yul\":657:660   */\n      dup9\n        /* \"#utility.yul\":645:655   */\n      dup3\n        /* \"#utility.yul\":624:661   */\n      tag_44\n      jump\t// in\n    tag_43:\n        /* \"#utility.yul\":619:622   */\n      dup5\n        /* \"#utility.yul\":612:662   */\n      mstore\n        /* \"#utility.yul\":691:695   */\n      0x20\n        /* \"#utility.yul\":686:689   */\n      dup5\n        /* \"#utility.yul\":682:696   */\n      add\n        /* \"#utility.yul\":675:696   */\n      swap4\n      pop\n        /* \"#utility.yul\":725:729   */\n      0x20\n        /* \"#utility.yul\":720:723   */\n      dup4\n        /* \"#utility.yul\":716:730   */\n      add\n        /* \"#utility.yul\":709:730   */\n      swap3\n      pop\n        /* \"#utility.yul\":562:740   */\n      pop\n        /* \"#utility.yul\":549:550   */\n      0x01\n        /* \"#utility.yul\":546:547   */\n      dup2\n        /* \"#utility.yul\":542:551   */\n      add\n        /* \"#utility.yul\":537:551   */\n      swap1\n      pop\n        /* \"#utility.yul\":502:740   */\n      jump(tag_40)\n    tag_42:\n        /* \"#utility.yul\":506:520   */\n      pop\n        /* \"#utility.yul\":126:746   */\n      pop\n      pop\n        /* \"#utility.yul\":24:746   */\n      swap4\n      swap3\n      pop\n      pop\n      pop\n      jump\t// out\n        /* \"#utility.yul\":769:1139   */\n    tag_45:\n        /* \"#utility.yul\":840:845   */\n      0x00\n        /* \"#utility.yul\":889:892   */\n      dup3\n        /* \"#utility.yul\":882:886   */\n      0x1f\n        /* \"#utility.yul\":874:880   */\n      dup4\n        /* \"#utility.yul\":870:887   */\n      add\n        /* \"#utility.yul\":866:893   */\n      slt\n        /* \"#utility.yul\":856:978   */\n      tag_47\n      jumpi\n        /* \"#utility.yul\":897:976   */\n      tag_48\n      tag_49\n      jump\t// in\n    tag_48:\n        /* \"#utility.yul\":856:978   */\n    tag_47:\n        /* \"#utility.yul\":1014:1020   */\n      dup2\n        /* \"#utility.yul\":1001:1021   */\n      calldataload\n        /* \"#utility.yul\":1039:1133   */\n      tag_50\n        /* \"#utility.yul\":1129:1132   */\n      dup5\n        /* \"#utility.yul\":1121:1127   */\n      dup3\n        /* \"#utility.yul\":1114:1118   */\n      0x20\n        /* \"#utility.yul\":1106:1112   */\n      dup7\n        /* \"#utility.yul\":1102:1119   */\n      add\n        /* \"#utility.yul\":1039:1133   */\n      tag_31\n      jump\t// in\n    tag_50:\n        /* \"#utility.yul\":1030:1133   */\n      swap2\n      pop\n        /* \"#utility.yul\":846:1139   */\n      pop\n        /* \"#utility.yul\":769:1139   */\n      swap3\n      swap2\n      pop\n      pop\n      jump\t// out\n        /* \"#utility.yul\":1145:1284   */\n    tag_44:\n        /* \"#utility.yul\":1191:1196   */\n      0x00\n        /* \"#utility.yul\":1229:1235   */\n      dup2\n        /* \"#utility.yul\":1216:1236   */\n      calldataload\n        /* \"#utility.yul\":1207:1236   */\n      swap1\n      pop\n        /* \"#utility.yul\":1245:1278   */\n      tag_52\n        /* \"#utility.yul\":1272:1277   */\n      dup2\n        /* \"#utility.yul\":1245:1278   */\n      tag_53\n      jump\t// in\n    tag_52:\n        /* \"#utility.yul\":1145:1284   */\n      swap3\n      swap2\n      pop\n      pop\n      jump\t// out\n        /* \"#utility.yul\":1290:1974   */\n    tag_6:\n        /* \"#utility.yul\":1383:1389   */\n      0x00\n        /* \"#utility.yul\":1391:1397   */\n      dup1\n        /* \"#utility.yul\":1440:1442   */\n      0x40\n        /* \"#utility.yul\":1428:1437   */\n      dup4\n        /* \"#utility.yul\":1419:1426   */\n      dup6\n        /* \"#utility.yul\":1415:1438   */\n      sub\n        /* \"#utility.yul\":1411:1443   */\n      slt\n        /* \"#utility.yul\":1408:1527   */\n      iszero\n      tag_55\n      jumpi\n        /* \"#utility.yul\":1446:1525   */\n      tag_56\n      tag_57\n      jump\t// in\n    tag_56:\n        /* \"#utility.yul\":1408:1527   */\n    tag_55:\n        /* \"#utility.yul\":1594:1595   */\n      0x00\n        /* \"#utility.yul\":1583:1592   */\n      dup4\n        /* \"#utility.yul\":1579:1596   */\n      add\n        /* \"#utility.yul\":1566:1597   */\n      calldataload\n        /* \"#utility.yul\":1624:1642   */\n      0xffffffffffffffff\n        /* \"#utility.yul\":1616:1622   */\n      dup2\n        /* \"#utility.yul\":1613:1643   */\n      gt\n        /* \"#utility.yul\":1610:1727   */\n      iszero\n      tag_58\n      jumpi\n        /* \"#utility.yul\":1646:1725   */\n      tag_59\n      tag_60\n      jump\t// in\n    tag_59:\n        /* \"#utility.yul\":1610:1727   */\n    tag_58:\n        /* \"#utility.yul\":1751:1829   */\n      tag_61\n        /* \"#utility.yul\":1821:1828   */\n      dup6\n        /* \"#utility.yul\":1812:1818   */\n      dup3\n        /* \"#utility.yul\":1801:1810   */\n      dup7\n        /* \"#utility.yul\":1797:1819   */\n      add\n        /* \"#utility.yul\":1751:1829   */\n      tag_45\n      jump\t// in\n    tag_61:\n        /* \"#utility.yul\":1741:1829   */\n      swap3\n      pop\n        /* \"#utility.yul\":1537:1839   */\n      pop\n        /* \"#utility.yul\":1878:1880   */\n      0x20\n        /* \"#utility.yul\":1904:1957   */\n      tag_62\n        /* \"#utility.yul\":1949:1956   */\n      dup6\n        /* \"#utility.yul\":1940:1946   */\n      dup3\n        /* \"#utility.yul\":1929:1938   */\n      dup7\n        /* \"#utility.yul\":1925:1947   */\n      add\n        /* \"#utility.yul\":1904:1957   */\n      tag_44\n      jump\t// in\n    tag_62:\n        /* \"#utility.yul\":1894:1957   */\n      swap2\n      pop\n        /* \"#utility.yul\":1849:1967   */\n      pop\n        /* \"#utility.yul\":1290:1974   */\n      swap3\n      pop\n      swap3\n      swap1\n      pop\n      jump\t// out\n        /* \"#utility.yul\":1980:2089   */\n    tag_63:\n        /* \"#utility.yul\":2061:2082   */\n      tag_65\n        /* \"#utility.yul\":2076:2081   */\n      dup2\n        /* \"#utility.yul\":2061:2082   */\n      tag_66\n      jump\t// in\n    tag_65:\n        /* \"#utility.yul\":2056:2059   */\n      dup3\n        /* \"#utility.yul\":2049:2083   */\n      mstore\n        /* \"#utility.yul\":1980:2089   */\n      pop\n      pop\n      jump\t// out\n        /* \"#utility.yul\":2095:2305   */\n    tag_9:\n        /* \"#utility.yul\":2182:2186   */\n      0x00\n        /* \"#utility.yul\":2220:2222   */\n      0x20\n        /* \"#utility.yul\":2209:2218   */\n      dup3\n        /* \"#utility.yul\":2205:2223   */\n      add\n        /* \"#utility.yul\":2197:2223   */\n      swap1\n      pop\n        /* \"#utility.yul\":2233:2298   */\n      tag_68\n        /* \"#utility.yul\":2295:2296   */\n      0x00\n        /* \"#utility.yul\":2284:2293   */\n      dup4\n        /* \"#utility.yul\":2280:2297   */\n      add\n        /* \"#utility.yul\":2271:2277   */\n      dup5\n        /* \"#utility.yul\":2233:2298   */\n      tag_63\n      jump\t// in\n    tag_68:\n        /* \"#utility.yul\":2095:2305   */\n      swap3\n      swap2\n      pop\n      pop\n      jump\t// out\n        /* \"#utility.yul\":2311:2440   */\n    tag_36:\n        /* \"#utility.yul\":2345:2351   */\n      0x00\n        /* \"#utility.yul\":2372:2392   */\n      tag_70\n      tag_71\n      jump\t// in\n    tag_70:\n        /* \"#utility.yul\":2362:2392   */\n      swap1\n      pop\n        /* \"#utility.yul\":2401:2434   */\n      tag_72\n        /* \"#utility.yul\":2429:2433   */\n      dup3\n        /* \"#utility.yul\":2421:2427   */\n      dup3\n        /* \"#utility.yul\":2401:2434   */\n      tag_73\n      jump\t// in\n    tag_72:\n        /* \"#utility.yul\":2311:2440   */\n      swap2\n      swap1\n      pop\n      jump\t// out\n        /* \"#utility.yul\":2446:2521   */\n    tag_71:\n        /* \"#utility.yul\":2479:2485   */\n      0x00\n        /* \"#utility.yul\":2512:2514   */\n      0x40\n        /* \"#utility.yul\":2506:2515   */\n      mload\n        /* \"#utility.yul\":2496:2515   */\n      swap1\n      pop\n        /* \"#utility.yul\":2446:2521   */\n      swap1\n      jump\t// out\n        /* \"#utility.yul\":2527:2838   */\n    tag_35:\n        /* \"#utility.yul\":2604:2608   */\n      0x00\n        /* \"#utility.yul\":2694:2712   */\n      0xffffffffffffffff\n        /* \"#utility.yul\":2686:2692   */\n      dup3\n        /* \"#utility.yul\":2683:2713   */\n      gt\n        /* \"#utility.yul\":2680:2736   */\n      iszero\n      tag_76\n      jumpi\n        /* \"#utility.yul\":2716:2734   */\n      tag_77\n      tag_78\n      jump\t// in\n    tag_77:\n        /* \"#utility.yul\":2680:2736   */\n    tag_76:\n        /* \"#utility.yul\":2766:2770   */\n      0x20\n        /* \"#utility.yul\":2758:2764   */\n      dup3\n        /* \"#utility.yul\":2754:2771   */\n      mul\n        /* \"#utility.yul\":2746:2771   */\n      swap1\n      pop\n        /* \"#utility.yul\":2826:2830   */\n      0x20\n        /* \"#utility.yul\":2820:2824   */\n      dup2\n        /* \"#utility.yul\":2816:2831   */\n      add\n        /* \"#utility.yul\":2808:2831   */\n      swap1\n      pop\n        /* \"#utility.yul\":2527:2838   */\n      swap2\n      swap1\n      pop\n      jump\t// out\n        /* \"#utility.yul\":2844:3035   */\n    tag_15:\n        /* \"#utility.yul\":2884:2888   */\n      0x00\n        /* \"#utility.yul\":2904:2924   */\n      tag_80\n        /* \"#utility.yul\":2922:2923   */\n      dup3\n        /* \"#utility.yul\":2904:2924   */\n      tag_81\n      jump\t// in\n    tag_80:\n        /* \"#utility.yul\":2899:2924   */\n      swap2\n      pop\n        /* \"#utility.yul\":2938:2958   */\n      tag_82\n        /* \"#utility.yul\":2956:2957   */\n      dup4\n        /* \"#utility.yul\":2938:2958   */\n      tag_81\n      jump\t// in\n    tag_82:\n        /* \"#utility.yul\":2933:2958   */\n      swap3\n      pop\n        /* \"#utility.yul\":2977:2978   */\n      dup3\n        /* \"#utility.yul\":2974:2975   */\n      dup3\n        /* \"#utility.yul\":2971:2979   */\n      lt\n        /* \"#utility.yul\":2968:3002   */\n      iszero\n      tag_83\n      jumpi\n        /* \"#utility.yul\":2982:3000   */\n      tag_84\n      tag_85\n      jump\t// in\n    tag_84:\n        /* \"#utility.yul\":2968:3002   */\n    tag_83:\n        /* \"#utility.yul\":3027:3028   */\n      dup3\n        /* \"#utility.yul\":3024:3025   */\n      dup3\n        /* \"#utility.yul\":3020:3029   */\n      sub\n        /* \"#utility.yul\":3012:3029   */\n      swap1\n      pop\n        /* \"#utility.yul\":2844:3035   */\n      swap3\n      swap2\n      pop\n      pop\n      jump\t// out\n        /* \"#utility.yul\":3041:3131   */\n    tag_66:\n        /* \"#utility.yul\":3075:3082   */\n      0x00\n        /* \"#utility.yul\":3118:3123   */\n      dup2\n        /* \"#utility.yul\":3111:3124   */\n      iszero\n        /* \"#utility.yul\":3104:3125   */\n      iszero\n        /* \"#utility.yul\":3093:3125   */\n      swap1\n      pop\n        /* \"#utility.yul\":3041:3131   */\n      swap2\n      swap1\n      pop\n      jump\t// out\n        /* \"#utility.yul\":3137:3214   */\n    tag_81:\n        /* \"#utility.yul\":3174:3181   */\n      0x00\n        /* \"#utility.yul\":3203:3208   */\n      dup2\n        /* \"#utility.yul\":3192:3208   */\n      swap1\n      pop\n        /* \"#utility.yul\":3137:3214   */\n      swap2\n      swap1\n      pop\n      jump\t// out\n        /* \"#utility.yul\":3220:3501   */\n    tag_73:\n        /* \"#utility.yul\":3303:3330   */\n      tag_89\n        /* \"#utility.yul\":3325:3329   */\n      dup3\n        /* \"#utility.yul\":3303:3330   */\n      tag_90\n      jump\t// in\n    tag_89:\n        /* \"#utility.yul\":3295:3301   */\n      dup2\n        /* \"#utility.yul\":3291:3331   */\n      add\n        /* \"#utility.yul\":3433:3439   */\n      dup2\n        /* \"#utility.yul\":3421:3431   */\n      dup2\n        /* \"#utility.yul\":3418:3440   */\n      lt\n        /* \"#utility.yul\":3397:3415   */\n      0xffffffffffffffff\n        /* \"#utility.yul\":3385:3395   */\n      dup3\n        /* \"#utility.yul\":3382:3416   */\n      gt\n        /* \"#utility.yul\":3379:3441   */\n      or\n        /* \"#utility.yul\":3376:3464   */\n      iszero\n      tag_91\n      jumpi\n        /* \"#utility.yul\":3444:3462   */\n      tag_92\n      tag_78\n      jump\t// in\n    tag_92:\n        /* \"#utility.yul\":3376:3464   */\n    tag_91:\n        /* \"#utility.yul\":3484:3494   */\n      dup1\n        /* \"#utility.yul\":3480:3482   */\n      0x40\n        /* \"#utility.yul\":3473:3495   */\n      mstore\n        /* \"#utility.yul\":3263:3501   */\n      pop\n        /* \"#utility.yul\":3220:3501   */\n      pop\n      pop\n      jump\t// out\n        /* \"#utility.yul\":3746:3922   */\n    tag_27:\n        /* \"#utility.yul\":3778:3779   */\n      0x00\n        /* \"#utility.yul\":3795:3815   */\n      tag_98\n        /* \"#utility.yul\":3813:3814   */\n      dup3\n        /* \"#utility.yul\":3795:3815   */\n      tag_81\n      jump\t// in\n    tag_98:\n        /* \"#utility.yul\":3790:3815   */\n      swap2\n      pop\n        /* \"#utility.yul\":3829:3849   */\n      tag_99\n        /* \"#utility.yul\":3847:3848   */\n      dup4\n        /* \"#utility.yul\":3829:3849   */\n      tag_81\n      jump\t// in\n    tag_99:\n        /* \"#utility.yul\":3824:3849   */\n      swap3\n      pop\n        /* \"#utility.yul\":3868:3869   */\n      dup3\n        /* \"#utility.yul\":3858:3893   */\n      tag_100\n      jumpi\n        /* \"#utility.yul\":3873:3891   */\n      tag_101\n      tag_102\n      jump\t// in\n    tag_101:\n        /* \"#utility.yul\":3858:3893   */\n    tag_100:\n        /* \"#utility.yul\":3914:3915   */\n      dup3\n        /* \"#utility.yul\":3911:3912   */\n      dup3\n        /* \"#utility.yul\":3907:3916   */\n      mod\n        /* \"#utility.yul\":3902:3916   */\n      swap1\n      pop\n        /* \"#utility.yul\":3746:3922   */\n      swap3\n      swap2\n      pop\n      pop\n      jump\t// out\n        /* \"#utility.yul\":3928:4108   */\n    tag_85:\n        /* \"#utility.yul\":3976:4053   */\n      0x4e487b7100000000000000000000000000000000000000000000000000000000\n        /* \"#utility.yul\":3973:3974   */\n      0x00\n        /* \"#utility.yul\":3966:4054   */\n      mstore\n        /* \"#utility.yul\":4073:4077   */\n      0x11\n        /* \"#utility.yul\":4070:4071   */\n      0x04\n        /* \"#utility.yul\":4063:4078   */\n      mstore\n        /* \"#utility.yul\":4097:4101   */\n      0x24\n        /* \"#utility.yul\":4094:4095   */\n      0x00\n        /* \"#utility.yul\":4087:4102   */\n      revert\n        /* \"#utility.yul\":4114:4294   */\n    tag_102:\n        /* \"#utility.yul\":4162:4239   */\n      0x4e487b7100000000000000000000000000000000000000000000000000000000\n        /* \"#utility.yul\":4159:4160   */\n      0x00\n        /* \"#utility.yul\":4152:4240   */\n      mstore\n        /* \"#utility.yul\":4259:4263   */\n      0x12\n        /* \"#utility.yul\":4256:4257   */\n      0x04\n        /* \"#utility.yul\":4249:4264   */\n      mstore\n        /* \"#utility.yul\":4283:4287   */\n      0x24\n        /* \"#utility.yul\":4280:4281   */\n      0x00\n        /* \"#utility.yul\":4273:4288   */\n      revert\n        /* \"#utility.yul\":4300:4480   */\n    tag_19:\n        /* \"#utility.yul\":4348:4425   */\n      0x4e487b7100000000000000000000000000000000000000000000000000000000\n        /* \"#utility.yul\":4345:4346   */\n      0x00\n        /* \"#utility.yul\":4338:4426   */\n      mstore\n        /* \"#utility.yul\":4445:4449   */\n      0x32\n        /* \"#utility.yul\":4442:4443   */\n      0x04\n        /* \"#utility.yul\":4435:4450   */\n      mstore\n        /* \"#utility.yul\":4469:4473   */\n      0x24\n        /* \"#utility.yul\":4466:4467   */\n      0x00\n        /* \"#utility.yul\":4459:4474   */\n      revert\n        /* \"#utility.yul\":4486:4666   */\n    tag_78:\n        /* \"#utility.yul\":4534:4611   */\n      0x4e487b7100000000000000000000000000000000000000000000000000000000\n        /* \"#utility.yul\":4531:4532   */\n      0x00\n        /* \"#utility.yul\":4524:4612   */\n      mstore\n        /* \"#utility.yul\":4631:4635   */\n      0x41\n        /* \"#utility.yul\":4628:4629   */\n      0x04\n        /* \"#utility.yul\":4621:4636   */\n      mstore\n        /* \"#utility.yul\":4655:4659   */\n      0x24\n        /* \"#utility.yul\":4652:4653   */\n      0x00\n        /* \"#utility.yul\":4645:4660   */\n      revert\n        /* \"#utility.yul\":4672:4789   */\n    tag_49:\n        /* \"#utility.yul\":4781:4782   */\n      0x00\n        /* \"#utility.yul\":4778:4779   */\n      dup1\n        /* \"#utility.yul\":4771:4783   */\n      revert\n        /* \"#utility.yul\":4795:4912   */\n    tag_39:\n        /* \"#utility.yul\":4904:4905   */\n      0x00\n        /* \"#utility.yul\":4901:4902   */\n      dup1\n        /* \"#utility.yul\":4894:4906   */\n      revert\n        /* \"#utility.yul\":4918:5035   */\n    tag_60:\n        /* \"#utility.yul\":5027:5028   */\n      0x00\n        /* \"#utility.yul\":5024:5025   */\n      dup1\n        /* \"#utility.yul\":5017:5029   */\n      revert\n        /* \"#utility.yul\":5041:5158   */\n    tag_57:\n        /* \"#utility.yul\":5150:5151   */\n      0x00\n        /* \"#utility.yul\":5147:5148   */\n      dup1\n        /* \"#utility.yul\":5140:5152   */\n      revert\n        /* \"#utility.yul\":5164:5266   */\n    tag_90:\n        /* \"#utility.yul\":5205:5211   */\n      0x00\n        /* \"#utility.yul\":5256:5258   */\n      0x1f\n        /* \"#utility.yul\":5252:5259   */\n      not\n        /* \"#utility.yul\":5247:5249   */\n      0x1f\n        /* \"#utility.yul\":5240:5245   */\n      dup4\n        /* \"#utility.yul\":5236:5250   */\n      add\n        /* \"#utility.yul\":5232:5260   */\n      and\n        /* \"#utility.yul\":5222:5260   */\n      swap1\n      pop\n        /* \"#utility.yul\":5164:5266   */\n      swap2\n      swap1\n      pop\n      jump\t// out\n        /* \"#utility.yul\":5272:5394   */\n    tag_53:\n        /* \"#utility.yul\":5345:5369   */\n      tag_113\n        /* \"#utility.yul\":5363:5368   */\n      dup2\n        /* \"#utility.yul\":5345:5369   */\n      tag_81\n      jump\t// in\n    tag_113:\n        /* \"#utility.yul\":5338:5343   */\n      dup2\n        /* \"#utility.yul\":5335:5370   */\n      eq\n        /* \"#utility.yul\":5325:5388   */\n      tag_114\n      jumpi\n        /* \"#utility.yul\":5384:5385   */\n      0x00\n        /* \"#utility.yul\":5381:5382   */\n      dup1\n        /* \"#utility.yul\":5374:5386   */\n      revert\n        /* \"#utility.yul\":5325:5388   */\n    tag_114:\n        /* \"#utility.yul\":5272:5394   */\n      pop\n      jump\t// out\n\n    auxdata: 0xa2646970667358221220c9d80fb435acf045120094fc4a89b627f187d394558e7ce4b0dd7923532300ec64736f6c63430008070033\n}\n",
				"bytecode": {
					"linkReferences": {},
					"object": "608060405234801561001057600080fd5b5061044e806100206000396000f3fe608060405234801561001057600080fd5b506004361061002b5760003560e01c806372ac4f0914610030575b600080fd5b61004a6004803603810190610045919061019d565b610060565b6040516100579190610208565b60405180910390f35b60008060019050600184516100759190610274565b8110156100b9576100a08482815181106100925761009161037e565b5b6020026020010151846100c1565b156100af5760019150506100bb565b60009150506100bb565b505b92915050565b60008083836100d091906102ef565b14156100df57600190506100e4565b600090505b92915050565b60006100fd6100f884610248565b610223565b905080838252602082019050828560208602820111156101205761011f6103e1565b5b60005b8581101561015057816101368882610188565b845260208401935060208301925050600181019050610123565b5050509392505050565b600082601f83011261016f5761016e6103dc565b5b813561017f8482602086016100ea565b91505092915050565b60008135905061019781610401565b92915050565b600080604083850312156101b4576101b36103eb565b5b600083013567ffffffffffffffff8111156101d2576101d16103e6565b5b6101de8582860161015a565b92505060206101ef85828601610188565b9150509250929050565b610202816102a8565b82525050565b600060208201905061021d60008301846101f9565b92915050565b600061022d61023e565b905061023982826102be565b919050565b6000604051905090565b600067ffffffffffffffff821115610263576102626103ad565b5b602082029050602081019050919050565b600061027f826102b4565b915061028a836102b4565b92508282101561029d5761029c610320565b5b828203905092915050565b60008115159050919050565b6000819050919050565b6102c7826103f0565b810181811067ffffffffffffffff821117156102e6576102e56103ad565b5b80604052505050565b60006102fa826102b4565b9150610305836102b4565b9250826103155761031461034f565b5b828206905092915050565b7f4e487b7100000000000000000000000000000000000000000000000000000000600052601160045260246000fd5b7f4e487b7100000000000000000000000000000000000000000000000000000000600052601260045260246000fd5b7f4e487b7100000000000000000000000000000000000000000000000000000000600052603260045260246000fd5b7f4e487b7100000000000000000000000000000000000000000000000000000000600052604160045260246000fd5b600080fd5b600080fd5b600080fd5b600080fd5b6000601f19601f8301169050919050565b61040a816102b4565b811461041557600080fd5b5056fea2646970667358221220c9d80fb435acf045120094fc4a89b627f187d394558e7ce4b0dd7923532300ec64736f6c63430008070033",
					"opcodes": "PUSH1 0x80 PUSH1 0x40 MSTORE CALLVALUE DUP1 ISZERO PUSH2 0x10 JUMPI PUSH1 0x0 DUP1 REVERT JUMPDEST POP PUSH2 0x44E DUP1 PUSH2 0x20 PUSH1 0x0 CODECOPY PUSH1 0x0 RETURN INVALID PUSH1 0x80 PUSH1 0x40 MSTORE CALLVALUE DUP1 ISZERO PUSH2 0x10 JUMPI PUSH1 0x0 DUP1 REVERT JUMPDEST POP PUSH1 0x4 CALLDATASIZE LT PUSH2 0x2B JUMPI PUSH1 0x0 CALLDATALOAD PUSH1 0xE0 SHR DUP1 PUSH4 0x72AC4F09 EQ PUSH2 0x30 JUMPI JUMPDEST PUSH1 0x0 DUP1 REVERT JUMPDEST PUSH2 0x4A PUSH1 0x4 DUP1 CALLDATASIZE SUB DUP2 ADD SWAP1 PUSH2 0x45 SWAP2 SWAP1 PUSH2 0x19D JUMP JUMPDEST PUSH2 0x60 JUMP JUMPDEST PUSH1 0x40 MLOAD PUSH2 0x57 SWAP2 SWAP1 PUSH2 0x208 JUMP JUMPDEST PUSH1 0x40 MLOAD DUP1 SWAP2 SUB SWAP1 RETURN JUMPDEST PUSH1 0x0 DUP1 PUSH1 0x1 SWAP1 POP PUSH1 0x1 DUP5 MLOAD PUSH2 0x75 SWAP2 SWAP1 PUSH2 0x274 JUMP JUMPDEST DUP2 LT ISZERO PUSH2 0xB9 JUMPI PUSH2 0xA0 DUP5 DUP3 DUP2 MLOAD DUP2 LT PUSH2 0x92 JUMPI PUSH2 0x91 PUSH2 0x37E JUMP JUMPDEST JUMPDEST PUSH1 0x20 MUL PUSH1 0x20 ADD ADD MLOAD DUP5 PUSH2 0xC1 JUMP JUMPDEST ISZERO PUSH2 0xAF JUMPI PUSH1 0x1 SWAP2 POP POP PUSH2 0xBB JUMP JUMPDEST PUSH1 0x0 SWAP2 POP POP PUSH2 0xBB JUMP JUMPDEST POP JUMPDEST SWAP3 SWAP2 POP POP JUMP JUMPDEST PUSH1 0x0 DUP1 DUP4 DUP4 PUSH2 0xD0 SWAP2 SWAP1 PUSH2 0x2EF JUMP JUMPDEST EQ ISZERO PUSH2 0xDF JUMPI PUSH1 0x1 SWAP1 POP PUSH2 0xE4 JUMP JUMPDEST PUSH1 0x0 SWAP1 POP JUMPDEST SWAP3 SWAP2 POP POP JUMP JUMPDEST PUSH1 0x0 PUSH2 0xFD PUSH2 0xF8 DUP5 PUSH2 0x248 JUMP JUMPDEST PUSH2 0x223 JUMP JUMPDEST SWAP1 POP DUP1 DUP4 DUP3 MSTORE PUSH1 0x20 DUP3 ADD SWAP1 POP DUP3 DUP6 PUSH1 0x20 DUP7 MUL DUP3 ADD GT ISZERO PUSH2 0x120 JUMPI PUSH2 0x11F PUSH2 0x3E1 JUMP JUMPDEST JUMPDEST PUSH1 0x0 JUMPDEST DUP6 DUP2 LT ISZERO PUSH2 0x150 JUMPI DUP2 PUSH2 0x136 DUP9 DUP3 PUSH2 0x188 JUMP JUMPDEST DUP5 MSTORE PUSH1 0x20 DUP5 ADD SWAP4 POP PUSH1 0x20 DUP4 ADD SWAP3 POP POP PUSH1 0x1 DUP2 ADD SWAP1 POP PUSH2 0x123 JUMP JUMPDEST POP POP POP SWAP4 SWAP3 POP POP POP JUMP JUMPDEST PUSH1 0x0 DUP3 PUSH1 0x1F DUP4 ADD SLT PUSH2 0x16F JUMPI PUSH2 0x16E PUSH2 0x3DC JUMP JUMPDEST JUMPDEST DUP2 CALLDATALOAD PUSH2 0x17F DUP5 DUP3 PUSH1 0x20 DUP7 ADD PUSH2 0xEA JUMP JUMPDEST SWAP2 POP POP SWAP3 SWAP2 POP POP JUMP JUMPDEST PUSH1 0x0 DUP2 CALLDATALOAD SWAP1 POP PUSH2 0x197 DUP2 PUSH2 0x401 JUMP JUMPDEST SWAP3 SWAP2 POP POP JUMP JUMPDEST PUSH1 0x0 DUP1 PUSH1 0x40 DUP4 DUP6 SUB SLT ISZERO PUSH2 0x1B4 JUMPI PUSH2 0x1B3 PUSH2 0x3EB JUMP JUMPDEST JUMPDEST PUSH1 0x0 DUP4 ADD CALLDATALOAD PUSH8 0xFFFFFFFFFFFFFFFF DUP2 GT ISZERO PUSH2 0x1D2 JUMPI PUSH2 0x1D1 PUSH2 0x3E6 JUMP JUMPDEST JUMPDEST PUSH2 0x1DE DUP6 DUP3 DUP7 ADD PUSH2 0x15A JUMP JUMPDEST SWAP3 POP POP PUSH1 0x20 PUSH2 0x1EF DUP6 DUP3 DUP7 ADD PUSH2 0x188 JUMP JUMPDEST SWAP2 POP POP SWAP3 POP SWAP3 SWAP1 POP JUMP JUMPDEST PUSH2 0x202 DUP2 PUSH2 0x2A8 JUMP JUMPDEST DUP3 MSTORE POP POP JUMP JUMPDEST PUSH1 0x0 PUSH1 0x20 DUP3 ADD SWAP1 POP PUSH2 0x21D PUSH1 0x0 DUP4 ADD DUP5 PUSH2 0x1F9 JUMP JUMPDEST SWAP3 SWAP2 POP POP JUMP JUMPDEST PUSH1 0x0 PUSH2 0x22D PUSH2 0x23E JUMP JUMPDEST SWAP1 POP PUSH2 0x239 DUP3 DUP3 PUSH2 0x2BE JUMP JUMPDEST SWAP2 SWAP1 POP JUMP JUMPDEST PUSH1 0x0 PUSH1 0x40 MLOAD SWAP1 POP SWAP1 JUMP JUMPDEST PUSH1 0x0 PUSH8 0xFFFFFFFFFFFFFFFF DUP3 GT ISZERO PUSH2 0x263 JUMPI PUSH2 0x262 PUSH2 0x3AD JUMP JUMPDEST JUMPDEST PUSH1 0x20 DUP3 MUL SWAP1 POP PUSH1 0x20 DUP2 ADD SWAP1 POP SWAP2 SWAP1 POP JUMP JUMPDEST PUSH1 0x0 PUSH2 0x27F DUP3 PUSH2 0x2B4 JUMP JUMPDEST SWAP2 POP PUSH2 0x28A DUP4 PUSH2 0x2B4 JUMP JUMPDEST SWAP3 POP DUP3 DUP3 LT ISZERO PUSH2 0x29D JUMPI PUSH2 0x29C PUSH2 0x320 JUMP JUMPDEST JUMPDEST DUP3 DUP3 SUB SWAP1 POP SWAP3 SWAP2 POP POP JUMP JUMPDEST PUSH1 0x0 DUP2 ISZERO ISZERO SWAP1 POP SWAP2 SWAP1 POP JUMP JUMPDEST PUSH1 0x0 DUP2 SWAP1 POP SWAP2 SWAP1 POP JUMP JUMPDEST PUSH2 0x2C7 DUP3 PUSH2 0x3F0 JUMP JUMPDEST DUP2 ADD DUP2 DUP2 LT PUSH8 0xFFFFFFFFFFFFFFFF DUP3 GT OR ISZERO PUSH2 0x2E6 JUMPI PUSH2 0x2E5 PUSH2 0x3AD JUMP JUMPDEST JUMPDEST DUP1 PUSH1 0x40 MSTORE POP POP POP JUMP JUMPDEST PUSH1 0x0 PUSH2 0x2FA DUP3 PUSH2 0x2B4 JUMP JUMPDEST SWAP2 POP PUSH2 0x305 DUP4 PUSH2 0x2B4 JUMP JUMPDEST SWAP3 POP DUP3 PUSH2 0x315 JUMPI PUSH2 0x314 PUSH2 0x34F JUMP JUMPDEST JUMPDEST DUP3 DUP3 MOD SWAP1 POP SWAP3 SWAP2 POP POP JUMP JUMPDEST PUSH32 0x4E487B7100000000000000000000000000000000000000000000000000000000 PUSH1 0x0 MSTORE PUSH1 0x11 PUSH1 0x4 MSTORE PUSH1 0x24 PUSH1 0x0 REVERT JUMPDEST PUSH32 0x4E487B7100000000000000000000000000000000000000000000000000000000 PUSH1 0x0 MSTORE PUSH1 0x12 PUSH1 0x4 MSTORE PUSH1 0x24 PUSH1 0x0 REVERT JUMPDEST PUSH32 0x4E487B7100000000000000000000000000000000000000000000000000000000 PUSH1 0x0 MSTORE PUSH1 0x32 PUSH1 0x4 MSTORE PUSH1 0x24 PUSH1 0x0 REVERT JUMPDEST PUSH32 0x4E487B7100000000000000000000000000000000000000000000000000000000 PUSH1 0x0 MSTORE PUSH1 0x41 PUSH1 0x4 MSTORE PUSH1 0x24 PUSH1 0x0 REVERT JUMPDEST PUSH1 0x0 DUP1 REVERT JUMPDEST PUSH1 0x0 DUP1 REVERT JUMPDEST PUSH1 0x0 DUP1 REVERT JUMPDEST PUSH1 0x0 DUP1 REVERT JUMPDEST PUSH1 0x0 PUSH1 0x1F NOT PUSH1 0x1F DUP4 ADD AND SWAP1 POP SWAP2 SWAP1 POP JUMP JUMPDEST PUSH2 0x40A DUP2 PUSH2 0x2B4 JUMP JUMPDEST DUP2 EQ PUSH2 0x415 JUMPI PUSH1 0x0 DUP1 REVERT JUMPDEST POP JUMP INVALID LOG2 PUSH5 0x6970667358 0x22 SLT KECCAK256 0xC9 0xD8 0xF 0xB4 CALLDATALOAD 0xAC CREATE GASLIMIT SLT STOP SWAP5 0xFC 0x4A DUP10 0xB6 0x27 CALL DUP8 0xD3 SWAP5 SSTORE DUP15 PUSH29 0xE4B0DD7923532300EC64736F6C63430008070033000000000000000000 "
				},
				"gasEstimates": {
					"creation": {
						"codeDepositCost": "220400",
						"executionCost": "263",
						"totalCost": "220663"
					},
					"external": {
						"checkMultiples(uint256[],uint256)": "infinite"
					},
					"internal": {
						"checkDivisibility(uint256,uint256)": "infinite"
					}
				},
				"methodIdentifiers": {
					"checkMultiples(uint256[],uint256)": "72ac4f09"
				}
			},
			"storageLayout": {
				"storage": [],
				"types": null
			},
			"userdoc": {
				"kind": "user",
				"methods": {},
				"version": 1
			}
		}
	}
}