{
	"solidity practice/nestedMapping.sol": {
		"NestedMap": {
			"abi": [
				{
					"inputs": [],
					"name": "getGrade",
					"outputs": [
						{
							"internalType": "uint256",
							"name": "",
							"type": "uint256"
						}
					],
					"stateMutability": "view",
					"type": "function"
				},
				{
					"inputs": [
						{
							"internalType": "string",
							"name": "",
							"type": "string"
						},
						{
							"internalType": "address",
							"name": "",
							"type": "address"
						}
					],
					"name": "myDetail",
					"outputs": [
						{
							"internalType": "string",
							"name": "name",
							"type": "string"
						},
						{
							"internalType": "uint256",
							"name": "rollNo",
							"type": "uint256"
						},
						{
							"internalType": "uint256",
							"name": "grade",
							"type": "uint256"
						}
					],
					"stateMutability": "view",
					"type": "function"
				}
			],
			"devdoc": {
				"kind": "dev",
				"methods": {},
				"version": 1
			},
			"evm": {
				"assembly": "    /* \"solidity practice/nestedMapping.sol\":68:512  contract NestedMap{... */\n  mstore(0x40, 0x80)\n  callvalue\n  dup1\n  iszero\n  tag_1\n  jumpi\n  0x00\n  dup1\n  revert\ntag_1:\n  pop\n  dataSize(sub_0)\n  dup1\n  dataOffset(sub_0)\n  0x00\n  codecopy\n  0x00\n  return\nstop\n\nsub_0: assembly {\n        /* \"solidity practice/nestedMapping.sol\":68:512  contract NestedMap{... */\n      mstore(0x40, 0x80)\n      callvalue\n      dup1\n      iszero\n      tag_1\n      jumpi\n      0x00\n      dup1\n      revert\n    tag_1:\n      pop\n      jumpi(tag_2, lt(calldatasize, 0x04))\n      shr(0xe0, calldataload(0x00))\n      dup1\n      0x46998f40\n      eq\n      tag_3\n      jumpi\n      dup1\n      0x7e04c217\n      eq\n      tag_4\n      jumpi\n    tag_2:\n      0x00\n      dup1\n      revert\n        /* \"solidity practice/nestedMapping.sol\":428:510  function getGrade() public view returns(uint){... */\n    tag_3:\n      tag_5\n      tag_6\n      jump\t// in\n    tag_5:\n      mload(0x40)\n      tag_7\n      swap2\n      swap1\n      tag_8\n      jump\t// in\n    tag_7:\n      mload(0x40)\n      dup1\n      swap2\n      sub\n      swap1\n      return\n        /* \"solidity practice/nestedMapping.sol\":198:256  mapping(string=> mapping(address=>MyInfo)) public myDetail */\n    tag_4:\n      tag_9\n      0x04\n      dup1\n      calldatasize\n      sub\n      dup2\n      add\n      swap1\n      tag_10\n      swap2\n      swap1\n      tag_11\n      jump\t// in\n    tag_10:\n      tag_12\n      jump\t// in\n    tag_9:\n      mload(0x40)\n      tag_13\n      swap4\n      swap3\n      swap2\n      swap1\n      tag_14\n      jump\t// in\n    tag_13:\n      mload(0x40)\n      dup1\n      swap2\n      sub\n      swap1\n      return\n        /* \"solidity practice/nestedMapping.sol\":428:510  function getGrade() public view returns(uint){... */\n    tag_6:\n        /* \"solidity practice/nestedMapping.sol\":468:472  uint */\n      0x00\n        /* \"solidity practice/nestedMapping.sol\":491:497  myInfo */\n      dup1\n        /* \"solidity practice/nestedMapping.sol\":491:503  myInfo.grade */\n      0x02\n      add\n      sload\n        /* \"solidity practice/nestedMapping.sol\":483:503  return  myInfo.grade */\n      swap1\n      pop\n        /* \"solidity practice/nestedMapping.sol\":428:510  function getGrade() public view returns(uint){... */\n      swap1\n      jump\t// out\n        /* \"solidity practice/nestedMapping.sol\":198:256  mapping(string=> mapping(address=>MyInfo)) public myDetail */\n    tag_12:\n      0x03\n      dup3\n      dup1\n      mload\n      0x20\n      dup2\n      add\n      dup3\n      add\n      dup1\n      mload\n      dup5\n      dup3\n      mstore\n      0x20\n      dup4\n      add\n      0x20\n      dup6\n      add\n      keccak256\n      dup2\n      dup4\n      mstore\n      dup1\n      swap6\n      pop\n      pop\n      pop\n      pop\n      pop\n      pop\n      0x20\n      mstore\n      dup1\n      0x00\n      mstore\n      keccak256(0x00, 0x40)\n      0x00\n      swap2\n      pop\n      swap2\n      pop\n      pop\n      dup1\n      0x00\n      add\n      dup1\n      sload\n      tag_16\n      swap1\n      tag_17\n      jump\t// in\n    tag_16:\n      dup1\n      0x1f\n      add\n      0x20\n      dup1\n      swap2\n      div\n      mul\n      0x20\n      add\n      mload(0x40)\n      swap1\n      dup2\n      add\n      0x40\n      mstore\n      dup1\n      swap3\n      swap2\n      swap1\n      dup2\n      dup2\n      mstore\n      0x20\n      add\n      dup3\n      dup1\n      sload\n      tag_18\n      swap1\n      tag_17\n      jump\t// in\n    tag_18:\n      dup1\n      iszero\n      tag_19\n      jumpi\n      dup1\n      0x1f\n      lt\n      tag_20\n      jumpi\n      0x0100\n      dup1\n      dup4\n      sload\n      div\n      mul\n      dup4\n      mstore\n      swap2\n      0x20\n      add\n      swap2\n      jump(tag_19)\n    tag_20:\n      dup3\n      add\n      swap2\n      swap1\n      0x00\n      mstore\n      keccak256(0x00, 0x20)\n      swap1\n    tag_21:\n      dup2\n      sload\n      dup2\n      mstore\n      swap1\n      0x01\n      add\n      swap1\n      0x20\n      add\n      dup1\n      dup4\n      gt\n      tag_21\n      jumpi\n      dup3\n      swap1\n      sub\n      0x1f\n      and\n      dup3\n      add\n      swap2\n    tag_19:\n      pop\n      pop\n      pop\n      pop\n      pop\n      swap1\n      dup1\n      0x01\n      add\n      sload\n      swap1\n      dup1\n      0x02\n      add\n      sload\n      swap1\n      pop\n      dup4\n      jump\t// out\n        /* \"#utility.yul\":7:419   */\n    tag_23:\n        /* \"#utility.yul\":85:90   */\n      0x00\n        /* \"#utility.yul\":110:176   */\n      tag_25\n        /* \"#utility.yul\":126:175   */\n      tag_26\n        /* \"#utility.yul\":168:174   */\n      dup5\n        /* \"#utility.yul\":126:175   */\n      tag_27\n      jump\t// in\n    tag_26:\n        /* \"#utility.yul\":110:176   */\n      tag_28\n      jump\t// in\n    tag_25:\n        /* \"#utility.yul\":101:176   */\n      swap1\n      pop\n        /* \"#utility.yul\":199:205   */\n      dup3\n        /* \"#utility.yul\":192:197   */\n      dup2\n        /* \"#utility.yul\":185:206   */\n      mstore\n        /* \"#utility.yul\":237:241   */\n      0x20\n        /* \"#utility.yul\":230:235   */\n      dup2\n        /* \"#utility.yul\":226:242   */\n      add\n        /* \"#utility.yul\":275:278   */\n      dup5\n        /* \"#utility.yul\":266:272   */\n      dup5\n        /* \"#utility.yul\":261:264   */\n      dup5\n        /* \"#utility.yul\":257:273   */\n      add\n        /* \"#utility.yul\":254:279   */\n      gt\n        /* \"#utility.yul\":251:363   */\n      iszero\n      tag_29\n      jumpi\n        /* \"#utility.yul\":282:361   */\n      tag_30\n      tag_31\n      jump\t// in\n    tag_30:\n        /* \"#utility.yul\":251:363   */\n    tag_29:\n        /* \"#utility.yul\":372:413   */\n      tag_32\n        /* \"#utility.yul\":406:412   */\n      dup5\n        /* \"#utility.yul\":401:404   */\n      dup3\n        /* \"#utility.yul\":396:399   */\n      dup6\n        /* \"#utility.yul\":372:413   */\n      tag_33\n      jump\t// in\n    tag_32:\n        /* \"#utility.yul\":91:419   */\n      pop\n        /* \"#utility.yul\":7:419   */\n      swap4\n      swap3\n      pop\n      pop\n      pop\n      jump\t// out\n        /* \"#utility.yul\":425:564   */\n    tag_34:\n        /* \"#utility.yul\":471:476   */\n      0x00\n        /* \"#utility.yul\":509:515   */\n      dup2\n        /* \"#utility.yul\":496:516   */\n      calldataload\n        /* \"#utility.yul\":487:516   */\n      swap1\n      pop\n        /* \"#utility.yul\":525:558   */\n      tag_36\n        /* \"#utility.yul\":552:557   */\n      dup2\n        /* \"#utility.yul\":525:558   */\n      tag_37\n      jump\t// in\n    tag_36:\n        /* \"#utility.yul\":425:564   */\n      swap3\n      swap2\n      pop\n      pop\n      jump\t// out\n        /* \"#utility.yul\":584:924   */\n    tag_38:\n        /* \"#utility.yul\":640:645   */\n      0x00\n        /* \"#utility.yul\":689:692   */\n      dup3\n        /* \"#utility.yul\":682:686   */\n      0x1f\n        /* \"#utility.yul\":674:680   */\n      dup4\n        /* \"#utility.yul\":670:687   */\n      add\n        /* \"#utility.yul\":666:693   */\n      slt\n        /* \"#utility.yul\":656:778   */\n      tag_40\n      jumpi\n        /* \"#utility.yul\":697:776   */\n      tag_41\n      tag_42\n      jump\t// in\n    tag_41:\n        /* \"#utility.yul\":656:778   */\n    tag_40:\n        /* \"#utility.yul\":814:820   */\n      dup2\n        /* \"#utility.yul\":801:821   */\n      calldataload\n        /* \"#utility.yul\":839:918   */\n      tag_43\n        /* \"#utility.yul\":914:917   */\n      dup5\n        /* \"#utility.yul\":906:912   */\n      dup3\n        /* \"#utility.yul\":899:903   */\n      0x20\n        /* \"#utility.yul\":891:897   */\n      dup7\n        /* \"#utility.yul\":887:904   */\n      add\n        /* \"#utility.yul\":839:918   */\n      tag_23\n      jump\t// in\n    tag_43:\n        /* \"#utility.yul\":830:918   */\n      swap2\n      pop\n        /* \"#utility.yul\":646:924   */\n      pop\n        /* \"#utility.yul\":584:924   */\n      swap3\n      swap2\n      pop\n      pop\n      jump\t// out\n        /* \"#utility.yul\":930:1584   */\n    tag_11:\n        /* \"#utility.yul\":1008:1014   */\n      0x00\n        /* \"#utility.yul\":1016:1022   */\n      dup1\n        /* \"#utility.yul\":1065:1067   */\n      0x40\n        /* \"#utility.yul\":1053:1062   */\n      dup4\n        /* \"#utility.yul\":1044:1051   */\n      dup6\n        /* \"#utility.yul\":1040:1063   */\n      sub\n        /* \"#utility.yul\":1036:1068   */\n      slt\n        /* \"#utility.yul\":1033:1152   */\n      iszero\n      tag_45\n      jumpi\n        /* \"#utility.yul\":1071:1150   */\n      tag_46\n      tag_47\n      jump\t// in\n    tag_46:\n        /* \"#utility.yul\":1033:1152   */\n    tag_45:\n        /* \"#utility.yul\":1219:1220   */\n      0x00\n        /* \"#utility.yul\":1208:1217   */\n      dup4\n        /* \"#utility.yul\":1204:1221   */\n      add\n        /* \"#utility.yul\":1191:1222   */\n      calldataload\n        /* \"#utility.yul\":1249:1267   */\n      0xffffffffffffffff\n        /* \"#utility.yul\":1241:1247   */\n      dup2\n        /* \"#utility.yul\":1238:1268   */\n      gt\n        /* \"#utility.yul\":1235:1352   */\n      iszero\n      tag_48\n      jumpi\n        /* \"#utility.yul\":1271:1350   */\n      tag_49\n      tag_50\n      jump\t// in\n    tag_49:\n        /* \"#utility.yul\":1235:1352   */\n    tag_48:\n        /* \"#utility.yul\":1376:1439   */\n      tag_51\n        /* \"#utility.yul\":1431:1438   */\n      dup6\n        /* \"#utility.yul\":1422:1428   */\n      dup3\n        /* \"#utility.yul\":1411:1420   */\n      dup7\n        /* \"#utility.yul\":1407:1429   */\n      add\n        /* \"#utility.yul\":1376:1439   */\n      tag_38\n      jump\t// in\n    tag_51:\n        /* \"#utility.yul\":1366:1439   */\n      swap3\n      pop\n        /* \"#utility.yul\":1162:1449   */\n      pop\n        /* \"#utility.yul\":1488:1490   */\n      0x20\n        /* \"#utility.yul\":1514:1567   */\n      tag_52\n        /* \"#utility.yul\":1559:1566   */\n      dup6\n        /* \"#utility.yul\":1550:1556   */\n      dup3\n        /* \"#utility.yul\":1539:1548   */\n      dup7\n        /* \"#utility.yul\":1535:1557   */\n      add\n        /* \"#utility.yul\":1514:1567   */\n      tag_34\n      jump\t// in\n    tag_52:\n        /* \"#utility.yul\":1504:1567   */\n      swap2\n      pop\n        /* \"#utility.yul\":1459:1577   */\n      pop\n        /* \"#utility.yul\":930:1584   */\n      swap3\n      pop\n      swap3\n      swap1\n      pop\n      jump\t// out\n        /* \"#utility.yul\":1590:1954   */\n    tag_53:\n        /* \"#utility.yul\":1678:1681   */\n      0x00\n        /* \"#utility.yul\":1706:1745   */\n      tag_55\n        /* \"#utility.yul\":1739:1744   */\n      dup3\n        /* \"#utility.yul\":1706:1745   */\n      tag_56\n      jump\t// in\n    tag_55:\n        /* \"#utility.yul\":1761:1832   */\n      tag_57\n        /* \"#utility.yul\":1825:1831   */\n      dup2\n        /* \"#utility.yul\":1820:1823   */\n      dup6\n        /* \"#utility.yul\":1761:1832   */\n      tag_58\n      jump\t// in\n    tag_57:\n        /* \"#utility.yul\":1754:1832   */\n      swap4\n      pop\n        /* \"#utility.yul\":1841:1893   */\n      tag_59\n        /* \"#utility.yul\":1886:1892   */\n      dup2\n        /* \"#utility.yul\":1881:1884   */\n      dup6\n        /* \"#utility.yul\":1874:1878   */\n      0x20\n        /* \"#utility.yul\":1867:1872   */\n      dup7\n        /* \"#utility.yul\":1863:1879   */\n      add\n        /* \"#utility.yul\":1841:1893   */\n      tag_60\n      jump\t// in\n    tag_59:\n        /* \"#utility.yul\":1918:1947   */\n      tag_61\n        /* \"#utility.yul\":1940:1946   */\n      dup2\n        /* \"#utility.yul\":1918:1947   */\n      tag_62\n      jump\t// in\n    tag_61:\n        /* \"#utility.yul\":1913:1916   */\n      dup5\n        /* \"#utility.yul\":1909:1948   */\n      add\n        /* \"#utility.yul\":1902:1948   */\n      swap2\n      pop\n        /* \"#utility.yul\":1682:1954   */\n      pop\n        /* \"#utility.yul\":1590:1954   */\n      swap3\n      swap2\n      pop\n      pop\n      jump\t// out\n        /* \"#utility.yul\":1960:2078   */\n    tag_63:\n        /* \"#utility.yul\":2047:2071   */\n      tag_65\n        /* \"#utility.yul\":2065:2070   */\n      dup2\n        /* \"#utility.yul\":2047:2071   */\n      tag_66\n      jump\t// in\n    tag_65:\n        /* \"#utility.yul\":2042:2045   */\n      dup3\n        /* \"#utility.yul\":2035:2072   */\n      mstore\n        /* \"#utility.yul\":1960:2078   */\n      pop\n      pop\n      jump\t// out\n        /* \"#utility.yul\":2084:2617   */\n    tag_14:\n        /* \"#utility.yul\":2253:2257   */\n      0x00\n        /* \"#utility.yul\":2291:2293   */\n      0x60\n        /* \"#utility.yul\":2280:2289   */\n      dup3\n        /* \"#utility.yul\":2276:2294   */\n      add\n        /* \"#utility.yul\":2268:2294   */\n      swap1\n      pop\n        /* \"#utility.yul\":2340:2349   */\n      dup2\n        /* \"#utility.yul\":2334:2338   */\n      dup2\n        /* \"#utility.yul\":2330:2350   */\n      sub\n        /* \"#utility.yul\":2326:2327   */\n      0x00\n        /* \"#utility.yul\":2315:2324   */\n      dup4\n        /* \"#utility.yul\":2311:2328   */\n      add\n        /* \"#utility.yul\":2304:2351   */\n      mstore\n        /* \"#utility.yul\":2368:2446   */\n      tag_68\n        /* \"#utility.yul\":2441:2445   */\n      dup2\n        /* \"#utility.yul\":2432:2438   */\n      dup7\n        /* \"#utility.yul\":2368:2446   */\n      tag_53\n      jump\t// in\n    tag_68:\n        /* \"#utility.yul\":2360:2446   */\n      swap1\n      pop\n        /* \"#utility.yul\":2456:2528   */\n      tag_69\n        /* \"#utility.yul\":2524:2526   */\n      0x20\n        /* \"#utility.yul\":2513:2522   */\n      dup4\n        /* \"#utility.yul\":2509:2527   */\n      add\n        /* \"#utility.yul\":2500:2506   */\n      dup6\n        /* \"#utility.yul\":2456:2528   */\n      tag_63\n      jump\t// in\n    tag_69:\n        /* \"#utility.yul\":2538:2610   */\n      tag_70\n        /* \"#utility.yul\":2606:2608   */\n      0x40\n        /* \"#utility.yul\":2595:2604   */\n      dup4\n        /* \"#utility.yul\":2591:2609   */\n      add\n        /* \"#utility.yul\":2582:2588   */\n      dup5\n        /* \"#utility.yul\":2538:2610   */\n      tag_63\n      jump\t// in\n    tag_70:\n        /* \"#utility.yul\":2084:2617   */\n      swap5\n      swap4\n      pop\n      pop\n      pop\n      pop\n      jump\t// out\n        /* \"#utility.yul\":2623:2845   */\n    tag_8:\n        /* \"#utility.yul\":2716:2720   */\n      0x00\n        /* \"#utility.yul\":2754:2756   */\n      0x20\n        /* \"#utility.yul\":2743:2752   */\n      dup3\n        /* \"#utility.yul\":2739:2757   */\n      add\n        /* \"#utility.yul\":2731:2757   */\n      swap1\n      pop\n        /* \"#utility.yul\":2767:2838   */\n      tag_72\n        /* \"#utility.yul\":2835:2836   */\n      0x00\n        /* \"#utility.yul\":2824:2833   */\n      dup4\n        /* \"#utility.yul\":2820:2837   */\n      add\n        /* \"#utility.yul\":2811:2817   */\n      dup5\n        /* \"#utility.yul\":2767:2838   */\n      tag_63\n      jump\t// in\n    tag_72:\n        /* \"#utility.yul\":2623:2845   */\n      swap3\n      swap2\n      pop\n      pop\n      jump\t// out\n        /* \"#utility.yul\":2851:2980   */\n    tag_28:\n        /* \"#utility.yul\":2885:2891   */\n      0x00\n        /* \"#utility.yul\":2912:2932   */\n      tag_74\n      tag_75\n      jump\t// in\n    tag_74:\n        /* \"#utility.yul\":2902:2932   */\n      swap1\n      pop\n        /* \"#utility.yul\":2941:2974   */\n      tag_76\n        /* \"#utility.yul\":2969:2973   */\n      dup3\n        /* \"#utility.yul\":2961:2967   */\n      dup3\n        /* \"#utility.yul\":2941:2974   */\n      tag_77\n      jump\t// in\n    tag_76:\n        /* \"#utility.yul\":2851:2980   */\n      swap2\n      swap1\n      pop\n      jump\t// out\n        /* \"#utility.yul\":2986:3061   */\n    tag_75:\n        /* \"#utility.yul\":3019:3025   */\n      0x00\n        /* \"#utility.yul\":3052:3054   */\n      0x40\n        /* \"#utility.yul\":3046:3055   */\n      mload\n        /* \"#utility.yul\":3036:3055   */\n      swap1\n      pop\n        /* \"#utility.yul\":2986:3061   */\n      swap1\n      jump\t// out\n        /* \"#utility.yul\":3067:3375   */\n    tag_27:\n        /* \"#utility.yul\":3129:3133   */\n      0x00\n        /* \"#utility.yul\":3219:3237   */\n      0xffffffffffffffff\n        /* \"#utility.yul\":3211:3217   */\n      dup3\n        /* \"#utility.yul\":3208:3238   */\n      gt\n        /* \"#utility.yul\":3205:3261   */\n      iszero\n      tag_80\n      jumpi\n        /* \"#utility.yul\":3241:3259   */\n      tag_81\n      tag_82\n      jump\t// in\n    tag_81:\n        /* \"#utility.yul\":3205:3261   */\n    tag_80:\n        /* \"#utility.yul\":3279:3308   */\n      tag_83\n        /* \"#utility.yul\":3301:3307   */\n      dup3\n        /* \"#utility.yul\":3279:3308   */\n      tag_62\n      jump\t// in\n    tag_83:\n        /* \"#utility.yul\":3271:3308   */\n      swap1\n      pop\n        /* \"#utility.yul\":3363:3367   */\n      0x20\n        /* \"#utility.yul\":3357:3361   */\n      dup2\n        /* \"#utility.yul\":3353:3368   */\n      add\n        /* \"#utility.yul\":3345:3368   */\n      swap1\n      pop\n        /* \"#utility.yul\":3067:3375   */\n      swap2\n      swap1\n      pop\n      jump\t// out\n        /* \"#utility.yul\":3381:3480   */\n    tag_56:\n        /* \"#utility.yul\":3433:3439   */\n      0x00\n        /* \"#utility.yul\":3467:3472   */\n      dup2\n        /* \"#utility.yul\":3461:3473   */\n      mload\n        /* \"#utility.yul\":3451:3473   */\n      swap1\n      pop\n        /* \"#utility.yul\":3381:3480   */\n      swap2\n      swap1\n      pop\n      jump\t// out\n        /* \"#utility.yul\":3486:3655   */\n    tag_58:\n        /* \"#utility.yul\":3570:3581   */\n      0x00\n        /* \"#utility.yul\":3604:3610   */\n      dup3\n        /* \"#utility.yul\":3599:3602   */\n      dup3\n        /* \"#utility.yul\":3592:3611   */\n      mstore\n        /* \"#utility.yul\":3644:3648   */\n      0x20\n        /* \"#utility.yul\":3639:3642   */\n      dup3\n        /* \"#utility.yul\":3635:3649   */\n      add\n        /* \"#utility.yul\":3620:3649   */\n      swap1\n      pop\n        /* \"#utility.yul\":3486:3655   */\n      swap3\n      swap2\n      pop\n      pop\n      jump\t// out\n        /* \"#utility.yul\":3661:3757   */\n    tag_86:\n        /* \"#utility.yul\":3698:3705   */\n      0x00\n        /* \"#utility.yul\":3727:3751   */\n      tag_88\n        /* \"#utility.yul\":3745:3750   */\n      dup3\n        /* \"#utility.yul\":3727:3751   */\n      tag_89\n      jump\t// in\n    tag_88:\n        /* \"#utility.yul\":3716:3751   */\n      swap1\n      pop\n        /* \"#utility.yul\":3661:3757   */\n      swap2\n      swap1\n      pop\n      jump\t// out\n        /* \"#utility.yul\":3763:3889   */\n    tag_89:\n        /* \"#utility.yul\":3800:3807   */\n      0x00\n        /* \"#utility.yul\":3840:3882   */\n      0xffffffffffffffffffffffffffffffffffffffff\n        /* \"#utility.yul\":3833:3838   */\n      dup3\n        /* \"#utility.yul\":3829:3883   */\n      and\n        /* \"#utility.yul\":3818:3883   */\n      swap1\n      pop\n        /* \"#utility.yul\":3763:3889   */\n      swap2\n      swap1\n      pop\n      jump\t// out\n        /* \"#utility.yul\":3895:3972   */\n    tag_66:\n        /* \"#utility.yul\":3932:3939   */\n      0x00\n        /* \"#utility.yul\":3961:3966   */\n      dup2\n        /* \"#utility.yul\":3950:3966   */\n      swap1\n      pop\n        /* \"#utility.yul\":3895:3972   */\n      swap2\n      swap1\n      pop\n      jump\t// out\n        /* \"#utility.yul\":3978:4132   */\n    tag_33:\n        /* \"#utility.yul\":4062:4068   */\n      dup3\n        /* \"#utility.yul\":4057:4060   */\n      dup2\n        /* \"#utility.yul\":4052:4055   */\n      dup4\n        /* \"#utility.yul\":4039:4069   */\n      calldatacopy\n        /* \"#utility.yul\":4124:4125   */\n      0x00\n        /* \"#utility.yul\":4115:4121   */\n      dup4\n        /* \"#utility.yul\":4110:4113   */\n      dup4\n        /* \"#utility.yul\":4106:4122   */\n      add\n        /* \"#utility.yul\":4099:4126   */\n      mstore\n        /* \"#utility.yul\":3978:4132   */\n      pop\n      pop\n      pop\n      jump\t// out\n        /* \"#utility.yul\":4138:4445   */\n    tag_60:\n        /* \"#utility.yul\":4206:4207   */\n      0x00\n        /* \"#utility.yul\":4216:4329   */\n    tag_94:\n        /* \"#utility.yul\":4230:4236   */\n      dup4\n        /* \"#utility.yul\":4227:4228   */\n      dup2\n        /* \"#utility.yul\":4224:4237   */\n      lt\n        /* \"#utility.yul\":4216:4329   */\n      iszero\n      tag_96\n      jumpi\n        /* \"#utility.yul\":4315:4316   */\n      dup1\n        /* \"#utility.yul\":4310:4313   */\n      dup3\n        /* \"#utility.yul\":4306:4317   */\n      add\n        /* \"#utility.yul\":4300:4318   */\n      mload\n        /* \"#utility.yul\":4296:4297   */\n      dup2\n        /* \"#utility.yul\":4291:4294   */\n      dup5\n        /* \"#utility.yul\":4287:4298   */\n      add\n        /* \"#utility.yul\":4280:4319   */\n      mstore\n        /* \"#utility.yul\":4252:4254   */\n      0x20\n        /* \"#utility.yul\":4249:4250   */\n      dup2\n        /* \"#utility.yul\":4245:4255   */\n      add\n        /* \"#utility.yul\":4240:4255   */\n      swap1\n      pop\n        /* \"#utility.yul\":4216:4329   */\n      jump(tag_94)\n    tag_96:\n        /* \"#utility.yul\":4347:4353   */\n      dup4\n        /* \"#utility.yul\":4344:4345   */\n      dup2\n        /* \"#utility.yul\":4341:4354   */\n      gt\n        /* \"#utility.yul\":4338:4439   */\n      iszero\n      tag_97\n      jumpi\n        /* \"#utility.yul\":4427:4428   */\n      0x00\n        /* \"#utility.yul\":4418:4424   */\n      dup5\n        /* \"#utility.yul\":4413:4416   */\n      dup5\n        /* \"#utility.yul\":4409:4425   */\n      add\n        /* \"#utility.yul\":4402:4429   */\n      mstore\n        /* \"#utility.yul\":4338:4439   */\n    tag_97:\n        /* \"#utility.yul\":4187:4445   */\n      pop\n        /* \"#utility.yul\":4138:4445   */\n      pop\n      pop\n      pop\n      jump\t// out\n        /* \"#utility.yul\":4451:4771   */\n    tag_17:\n        /* \"#utility.yul\":4495:4501   */\n      0x00\n        /* \"#utility.yul\":4532:4533   */\n      0x02\n        /* \"#utility.yul\":4526:4530   */\n      dup3\n        /* \"#utility.yul\":4522:4534   */\n      div\n        /* \"#utility.yul\":4512:4534   */\n      swap1\n      pop\n        /* \"#utility.yul\":4579:4580   */\n      0x01\n        /* \"#utility.yul\":4573:4577   */\n      dup3\n        /* \"#utility.yul\":4569:4581   */\n      and\n        /* \"#utility.yul\":4600:4618   */\n      dup1\n        /* \"#utility.yul\":4590:4671   */\n      tag_99\n      jumpi\n        /* \"#utility.yul\":4656:4660   */\n      0x7f\n        /* \"#utility.yul\":4648:4654   */\n      dup3\n        /* \"#utility.yul\":4644:4661   */\n      and\n        /* \"#utility.yul\":4634:4661   */\n      swap2\n      pop\n        /* \"#utility.yul\":4590:4671   */\n    tag_99:\n        /* \"#utility.yul\":4718:4720   */\n      0x20\n        /* \"#utility.yul\":4710:4716   */\n      dup3\n        /* \"#utility.yul\":4707:4721   */\n      lt\n        /* \"#utility.yul\":4687:4705   */\n      dup2\n        /* \"#utility.yul\":4684:4722   */\n      eq\n        /* \"#utility.yul\":4681:4765   */\n      iszero\n      tag_100\n      jumpi\n        /* \"#utility.yul\":4737:4755   */\n      tag_101\n      tag_102\n      jump\t// in\n    tag_101:\n        /* \"#utility.yul\":4681:4765   */\n    tag_100:\n        /* \"#utility.yul\":4502:4771   */\n      pop\n        /* \"#utility.yul\":4451:4771   */\n      swap2\n      swap1\n      pop\n      jump\t// out\n        /* \"#utility.yul\":4777:5058   */\n    tag_77:\n        /* \"#utility.yul\":4860:4887   */\n      tag_104\n        /* \"#utility.yul\":4882:4886   */\n      dup3\n        /* \"#utility.yul\":4860:4887   */\n      tag_62\n      jump\t// in\n    tag_104:\n        /* \"#utility.yul\":4852:4858   */\n      dup2\n        /* \"#utility.yul\":4848:4888   */\n      add\n        /* \"#utility.yul\":4990:4996   */\n      dup2\n        /* \"#utility.yul\":4978:4988   */\n      dup2\n        /* \"#utility.yul\":4975:4997   */\n      lt\n        /* \"#utility.yul\":4954:4972   */\n      0xffffffffffffffff\n        /* \"#utility.yul\":4942:4952   */\n      dup3\n        /* \"#utility.yul\":4939:4973   */\n      gt\n        /* \"#utility.yul\":4936:4998   */\n      or\n        /* \"#utility.yul\":4933:5021   */\n      iszero\n      tag_105\n      jumpi\n        /* \"#utility.yul\":5001:5019   */\n      tag_106\n      tag_82\n      jump\t// in\n    tag_106:\n        /* \"#utility.yul\":4933:5021   */\n    tag_105:\n        /* \"#utility.yul\":5041:5051   */\n      dup1\n        /* \"#utility.yul\":5037:5039   */\n      0x40\n        /* \"#utility.yul\":5030:5052   */\n      mstore\n        /* \"#utility.yul\":4820:5058   */\n      pop\n        /* \"#utility.yul\":4777:5058   */\n      pop\n      pop\n      jump\t// out\n        /* \"#utility.yul\":5064:5244   */\n    tag_102:\n        /* \"#utility.yul\":5112:5189   */\n      0x4e487b7100000000000000000000000000000000000000000000000000000000\n        /* \"#utility.yul\":5109:5110   */\n      0x00\n        /* \"#utility.yul\":5102:5190   */\n      mstore\n        /* \"#utility.yul\":5209:5213   */\n      0x22\n        /* \"#utility.yul\":5206:5207   */\n      0x04\n        /* \"#utility.yul\":5199:5214   */\n      mstore\n        /* \"#utility.yul\":5233:5237   */\n      0x24\n        /* \"#utility.yul\":5230:5231   */\n      0x00\n        /* \"#utility.yul\":5223:5238   */\n      revert\n        /* \"#utility.yul\":5250:5430   */\n    tag_82:\n        /* \"#utility.yul\":5298:5375   */\n      0x4e487b7100000000000000000000000000000000000000000000000000000000\n        /* \"#utility.yul\":5295:5296   */\n      0x00\n        /* \"#utility.yul\":5288:5376   */\n      mstore\n        /* \"#utility.yul\":5395:5399   */\n      0x41\n        /* \"#utility.yul\":5392:5393   */\n      0x04\n        /* \"#utility.yul\":5385:5400   */\n      mstore\n        /* \"#utility.yul\":5419:5423   */\n      0x24\n        /* \"#utility.yul\":5416:5417   */\n      0x00\n        /* \"#utility.yul\":5409:5424   */\n      revert\n        /* \"#utility.yul\":5436:5553   */\n    tag_42:\n        /* \"#utility.yul\":5545:5546   */\n      0x00\n        /* \"#utility.yul\":5542:5543   */\n      dup1\n        /* \"#utility.yul\":5535:5547   */\n      revert\n        /* \"#utility.yul\":5559:5676   */\n    tag_31:\n        /* \"#utility.yul\":5668:5669   */\n      0x00\n        /* \"#utility.yul\":5665:5666   */\n      dup1\n        /* \"#utility.yul\":5658:5670   */\n      revert\n        /* \"#utility.yul\":5682:5799   */\n    tag_50:\n        /* \"#utility.yul\":5791:5792   */\n      0x00\n        /* \"#utility.yul\":5788:5789   */\n      dup1\n        /* \"#utility.yul\":5781:5793   */\n      revert\n        /* \"#utility.yul\":5805:5922   */\n    tag_47:\n        /* \"#utility.yul\":5914:5915   */\n      0x00\n        /* \"#utility.yul\":5911:5912   */\n      dup1\n        /* \"#utility.yul\":5904:5916   */\n      revert\n        /* \"#utility.yul\":5928:6030   */\n    tag_62:\n        /* \"#utility.yul\":5969:5975   */\n      0x00\n        /* \"#utility.yul\":6020:6022   */\n      0x1f\n        /* \"#utility.yul\":6016:6023   */\n      not\n        /* \"#utility.yul\":6011:6013   */\n      0x1f\n        /* \"#utility.yul\":6004:6009   */\n      dup4\n        /* \"#utility.yul\":6000:6014   */\n      add\n        /* \"#utility.yul\":5996:6024   */\n      and\n        /* \"#utility.yul\":5986:6024   */\n      swap1\n      pop\n        /* \"#utility.yul\":5928:6030   */\n      swap2\n      swap1\n      pop\n      jump\t// out\n        /* \"#utility.yul\":6036:6158   */\n    tag_37:\n        /* \"#utility.yul\":6109:6133   */\n      tag_115\n        /* \"#utility.yul\":6127:6132   */\n      dup2\n        /* \"#utility.yul\":6109:6133   */\n      tag_86\n      jump\t// in\n    tag_115:\n        /* \"#utility.yul\":6102:6107   */\n      dup2\n        /* \"#utility.yul\":6099:6134   */\n      eq\n        /* \"#utility.yul\":6089:6152   */\n      tag_116\n      jumpi\n        /* \"#utility.yul\":6148:6149   */\n      0x00\n        /* \"#utility.yul\":6145:6146   */\n      dup1\n        /* \"#utility.yul\":6138:6150   */\n      revert\n        /* \"#utility.yul\":6089:6152   */\n    tag_116:\n        /* \"#utility.yul\":6036:6158   */\n      pop\n      jump\t// out\n\n    auxdata: 0xa264697066735822122072376bbc8419bf10046befff3627cf818c266779df1543c3dd20c284fe17d3ae64736f6c63430008070033\n}\n",
				"bytecode": {
					"linkReferences": {},
					"object": "608060405234801561001057600080fd5b50610511806100206000396000f3fe608060405234801561001057600080fd5b50600436106100365760003560e01c806346998f401461003b5780637e04c21714610059575b600080fd5b61004361008b565b60405161005091906102d3565b60405180910390f35b610073600480360381019061006e91906101f1565b610097565b60405161008293929190610295565b60405180910390f35b60008060020154905090565b600382805160208101820180518482526020830160208501208183528095505050505050602052806000526040600020600091509150508060000180546100dd906103de565b80601f0160208091040260200160405190810160405280929190818152602001828054610109906103de565b80156101565780601f1061012b57610100808354040283529160200191610156565b820191906000526020600020905b81548152906001019060200180831161013957829003601f168201915b5050505050908060010154908060020154905083565b600061017f61017a84610313565b6102ee565b90508281526020810184848401111561019b5761019a6104a4565b5b6101a684828561039c565b509392505050565b6000813590506101bd816104c4565b92915050565b600082601f8301126101d8576101d761049f565b5b81356101e884826020860161016c565b91505092915050565b60008060408385031215610208576102076104ae565b5b600083013567ffffffffffffffff811115610226576102256104a9565b5b610232858286016101c3565b9250506020610243858286016101ae565b9150509250929050565b600061025882610344565b610262818561034f565b93506102728185602086016103ab565b61027b816104b3565b840191505092915050565b61028f81610392565b82525050565b600060608201905081810360008301526102af818661024d565b90506102be6020830185610286565b6102cb6040830184610286565b949350505050565b60006020820190506102e86000830184610286565b92915050565b60006102f8610309565b90506103048282610410565b919050565b6000604051905090565b600067ffffffffffffffff82111561032e5761032d610470565b5b610337826104b3565b9050602081019050919050565b600081519050919050565b600082825260208201905092915050565b600061036b82610372565b9050919050565b600073ffffffffffffffffffffffffffffffffffffffff82169050919050565b6000819050919050565b82818337600083830152505050565b60005b838110156103c95780820151818401526020810190506103ae565b838111156103d8576000848401525b50505050565b600060028204905060018216806103f657607f821691505b6020821081141561040a57610409610441565b5b50919050565b610419826104b3565b810181811067ffffffffffffffff8211171561043857610437610470565b5b80604052505050565b7f4e487b7100000000000000000000000000000000000000000000000000000000600052602260045260246000fd5b7f4e487b7100000000000000000000000000000000000000000000000000000000600052604160045260246000fd5b600080fd5b600080fd5b600080fd5b600080fd5b6000601f19601f8301169050919050565b6104cd81610360565b81146104d857600080fd5b5056fea264697066735822122072376bbc8419bf10046befff3627cf818c266779df1543c3dd20c284fe17d3ae64736f6c63430008070033",
					"opcodes": "PUSH1 0x80 PUSH1 0x40 MSTORE CALLVALUE DUP1 ISZERO PUSH2 0x10 JUMPI PUSH1 0x0 DUP1 REVERT JUMPDEST POP PUSH2 0x511 DUP1 PUSH2 0x20 PUSH1 0x0 CODECOPY PUSH1 0x0 RETURN INVALID PUSH1 0x80 PUSH1 0x40 MSTORE CALLVALUE DUP1 ISZERO PUSH2 0x10 JUMPI PUSH1 0x0 DUP1 REVERT JUMPDEST POP PUSH1 0x4 CALLDATASIZE LT PUSH2 0x36 JUMPI PUSH1 0x0 CALLDATALOAD PUSH1 0xE0 SHR DUP1 PUSH4 0x46998F40 EQ PUSH2 0x3B JUMPI DUP1 PUSH4 0x7E04C217 EQ PUSH2 0x59 JUMPI JUMPDEST PUSH1 0x0 DUP1 REVERT JUMPDEST PUSH2 0x43 PUSH2 0x8B JUMP JUMPDEST PUSH1 0x40 MLOAD PUSH2 0x50 SWAP2 SWAP1 PUSH2 0x2D3 JUMP JUMPDEST PUSH1 0x40 MLOAD DUP1 SWAP2 SUB SWAP1 RETURN JUMPDEST PUSH2 0x73 PUSH1 0x4 DUP1 CALLDATASIZE SUB DUP2 ADD SWAP1 PUSH2 0x6E SWAP2 SWAP1 PUSH2 0x1F1 JUMP JUMPDEST PUSH2 0x97 JUMP JUMPDEST PUSH1 0x40 MLOAD PUSH2 0x82 SWAP4 SWAP3 SWAP2 SWAP1 PUSH2 0x295 JUMP JUMPDEST PUSH1 0x40 MLOAD DUP1 SWAP2 SUB SWAP1 RETURN JUMPDEST PUSH1 0x0 DUP1 PUSH1 0x2 ADD SLOAD SWAP1 POP SWAP1 JUMP JUMPDEST PUSH1 0x3 DUP3 DUP1 MLOAD PUSH1 0x20 DUP2 ADD DUP3 ADD DUP1 MLOAD DUP5 DUP3 MSTORE PUSH1 0x20 DUP4 ADD PUSH1 0x20 DUP6 ADD KECCAK256 DUP2 DUP4 MSTORE DUP1 SWAP6 POP POP POP POP POP POP PUSH1 0x20 MSTORE DUP1 PUSH1 0x0 MSTORE PUSH1 0x40 PUSH1 0x0 KECCAK256 PUSH1 0x0 SWAP2 POP SWAP2 POP POP DUP1 PUSH1 0x0 ADD DUP1 SLOAD PUSH2 0xDD SWAP1 PUSH2 0x3DE JUMP JUMPDEST DUP1 PUSH1 0x1F ADD PUSH1 0x20 DUP1 SWAP2 DIV MUL PUSH1 0x20 ADD PUSH1 0x40 MLOAD SWAP1 DUP2 ADD PUSH1 0x40 MSTORE DUP1 SWAP3 SWAP2 SWAP1 DUP2 DUP2 MSTORE PUSH1 0x20 ADD DUP3 DUP1 SLOAD PUSH2 0x109 SWAP1 PUSH2 0x3DE JUMP JUMPDEST DUP1 ISZERO PUSH2 0x156 JUMPI DUP1 PUSH1 0x1F LT PUSH2 0x12B JUMPI PUSH2 0x100 DUP1 DUP4 SLOAD DIV MUL DUP4 MSTORE SWAP2 PUSH1 0x20 ADD SWAP2 PUSH2 0x156 JUMP JUMPDEST DUP3 ADD SWAP2 SWAP1 PUSH1 0x0 MSTORE PUSH1 0x20 PUSH1 0x0 KECCAK256 SWAP1 JUMPDEST DUP2 SLOAD DUP2 MSTORE SWAP1 PUSH1 0x1 ADD SWAP1 PUSH1 0x20 ADD DUP1 DUP4 GT PUSH2 0x139 JUMPI DUP3 SWAP1 SUB PUSH1 0x1F AND DUP3 ADD SWAP2 JUMPDEST POP POP POP POP POP SWAP1 DUP1 PUSH1 0x1 ADD SLOAD SWAP1 DUP1 PUSH1 0x2 ADD SLOAD SWAP1 POP DUP4 JUMP JUMPDEST PUSH1 0x0 PUSH2 0x17F PUSH2 0x17A DUP5 PUSH2 0x313 JUMP JUMPDEST PUSH2 0x2EE JUMP JUMPDEST SWAP1 POP DUP3 DUP2 MSTORE PUSH1 0x20 DUP2 ADD DUP5 DUP5 DUP5 ADD GT ISZERO PUSH2 0x19B JUMPI PUSH2 0x19A PUSH2 0x4A4 JUMP JUMPDEST JUMPDEST PUSH2 0x1A6 DUP5 DUP3 DUP6 PUSH2 0x39C JUMP JUMPDEST POP SWAP4 SWAP3 POP POP POP JUMP JUMPDEST PUSH1 0x0 DUP2 CALLDATALOAD SWAP1 POP PUSH2 0x1BD DUP2 PUSH2 0x4C4 JUMP JUMPDEST SWAP3 SWAP2 POP POP JUMP JUMPDEST PUSH1 0x0 DUP3 PUSH1 0x1F DUP4 ADD SLT PUSH2 0x1D8 JUMPI PUSH2 0x1D7 PUSH2 0x49F JUMP JUMPDEST JUMPDEST DUP2 CALLDATALOAD PUSH2 0x1E8 DUP5 DUP3 PUSH1 0x20 DUP7 ADD PUSH2 0x16C JUMP JUMPDEST SWAP2 POP POP SWAP3 SWAP2 POP POP JUMP JUMPDEST PUSH1 0x0 DUP1 PUSH1 0x40 DUP4 DUP6 SUB SLT ISZERO PUSH2 0x208 JUMPI PUSH2 0x207 PUSH2 0x4AE JUMP JUMPDEST JUMPDEST PUSH1 0x0 DUP4 ADD CALLDATALOAD PUSH8 0xFFFFFFFFFFFFFFFF DUP2 GT ISZERO PUSH2 0x226 JUMPI PUSH2 0x225 PUSH2 0x4A9 JUMP JUMPDEST JUMPDEST PUSH2 0x232 DUP6 DUP3 DUP7 ADD PUSH2 0x1C3 JUMP JUMPDEST SWAP3 POP POP PUSH1 0x20 PUSH2 0x243 DUP6 DUP3 DUP7 ADD PUSH2 0x1AE JUMP JUMPDEST SWAP2 POP POP SWAP3 POP SWAP3 SWAP1 POP JUMP JUMPDEST PUSH1 0x0 PUSH2 0x258 DUP3 PUSH2 0x344 JUMP JUMPDEST PUSH2 0x262 DUP2 DUP6 PUSH2 0x34F JUMP JUMPDEST SWAP4 POP PUSH2 0x272 DUP2 DUP6 PUSH1 0x20 DUP7 ADD PUSH2 0x3AB JUMP JUMPDEST PUSH2 0x27B DUP2 PUSH2 0x4B3 JUMP JUMPDEST DUP5 ADD SWAP2 POP POP SWAP3 SWAP2 POP POP JUMP JUMPDEST PUSH2 0x28F DUP2 PUSH2 0x392 JUMP JUMPDEST DUP3 MSTORE POP POP JUMP JUMPDEST PUSH1 0x0 PUSH1 0x60 DUP3 ADD SWAP1 POP DUP2 DUP2 SUB PUSH1 0x0 DUP4 ADD MSTORE PUSH2 0x2AF DUP2 DUP7 PUSH2 0x24D JUMP JUMPDEST SWAP1 POP PUSH2 0x2BE PUSH1 0x20 DUP4 ADD DUP6 PUSH2 0x286 JUMP JUMPDEST PUSH2 0x2CB PUSH1 0x40 DUP4 ADD DUP5 PUSH2 0x286 JUMP JUMPDEST SWAP5 SWAP4 POP POP POP POP JUMP JUMPDEST PUSH1 0x0 PUSH1 0x20 DUP3 ADD SWAP1 POP PUSH2 0x2E8 PUSH1 0x0 DUP4 ADD DUP5 PUSH2 0x286 JUMP JUMPDEST SWAP3 SWAP2 POP POP JUMP JUMPDEST PUSH1 0x0 PUSH2 0x2F8 PUSH2 0x309 JUMP JUMPDEST SWAP1 POP PUSH2 0x304 DUP3 DUP3 PUSH2 0x410 JUMP JUMPDEST SWAP2 SWAP1 POP JUMP JUMPDEST PUSH1 0x0 PUSH1 0x40 MLOAD SWAP1 POP SWAP1 JUMP JUMPDEST PUSH1 0x0 PUSH8 0xFFFFFFFFFFFFFFFF DUP3 GT ISZERO PUSH2 0x32E JUMPI PUSH2 0x32D PUSH2 0x470 JUMP JUMPDEST JUMPDEST PUSH2 0x337 DUP3 PUSH2 0x4B3 JUMP JUMPDEST SWAP1 POP PUSH1 0x20 DUP2 ADD SWAP1 POP SWAP2 SWAP1 POP JUMP JUMPDEST PUSH1 0x0 DUP2 MLOAD SWAP1 POP SWAP2 SWAP1 POP JUMP JUMPDEST PUSH1 0x0 DUP3 DUP3 MSTORE PUSH1 0x20 DUP3 ADD SWAP1 POP SWAP3 SWAP2 POP POP JUMP JUMPDEST PUSH1 0x0 PUSH2 0x36B DUP3 PUSH2 0x372 JUMP JUMPDEST SWAP1 POP SWAP2 SWAP1 POP JUMP JUMPDEST PUSH1 0x0 PUSH20 0xFFFFFFFFFFFFFFFFFFFFFFFFFFFFFFFFFFFFFFFF DUP3 AND SWAP1 POP SWAP2 SWAP1 POP JUMP JUMPDEST PUSH1 0x0 DUP2 SWAP1 POP SWAP2 SWAP1 POP JUMP JUMPDEST DUP3 DUP2 DUP4 CALLDATACOPY PUSH1 0x0 DUP4 DUP4 ADD MSTORE POP POP POP JUMP JUMPDEST PUSH1 0x0 JUMPDEST DUP4 DUP2 LT ISZERO PUSH2 0x3C9 JUMPI DUP1 DUP3 ADD MLOAD DUP2 DUP5 ADD MSTORE PUSH1 0x20 DUP2 ADD SWAP1 POP PUSH2 0x3AE JUMP JUMPDEST DUP4 DUP2 GT ISZERO PUSH2 0x3D8 JUMPI PUSH1 0x0 DUP5 DUP5 ADD MSTORE JUMPDEST POP POP POP POP JUMP JUMPDEST PUSH1 0x0 PUSH1 0x2 DUP3 DIV SWAP1 POP PUSH1 0x1 DUP3 AND DUP1 PUSH2 0x3F6 JUMPI PUSH1 0x7F DUP3 AND SWAP2 POP JUMPDEST PUSH1 0x20 DUP3 LT DUP2 EQ ISZERO PUSH2 0x40A JUMPI PUSH2 0x409 PUSH2 0x441 JUMP JUMPDEST JUMPDEST POP SWAP2 SWAP1 POP JUMP JUMPDEST PUSH2 0x419 DUP3 PUSH2 0x4B3 JUMP JUMPDEST DUP2 ADD DUP2 DUP2 LT PUSH8 0xFFFFFFFFFFFFFFFF DUP3 GT OR ISZERO PUSH2 0x438 JUMPI PUSH2 0x437 PUSH2 0x470 JUMP JUMPDEST JUMPDEST DUP1 PUSH1 0x40 MSTORE POP POP POP JUMP JUMPDEST PUSH32 0x4E487B7100000000000000000000000000000000000000000000000000000000 PUSH1 0x0 MSTORE PUSH1 0x22 PUSH1 0x4 MSTORE PUSH1 0x24 PUSH1 0x0 REVERT JUMPDEST PUSH32 0x4E487B7100000000000000000000000000000000000000000000000000000000 PUSH1 0x0 MSTORE PUSH1 0x41 PUSH1 0x4 MSTORE PUSH1 0x24 PUSH1 0x0 REVERT JUMPDEST PUSH1 0x0 DUP1 REVERT JUMPDEST PUSH1 0x0 DUP1 REVERT JUMPDEST PUSH1 0x0 DUP1 REVERT JUMPDEST PUSH1 0x0 DUP1 REVERT JUMPDEST PUSH1 0x0 PUSH1 0x1F NOT PUSH1 0x1F DUP4 ADD AND SWAP1 POP SWAP2 SWAP1 POP JUMP JUMPDEST PUSH2 0x4CD DUP2 PUSH2 0x360 JUMP JUMPDEST DUP2 EQ PUSH2 0x4D8 JUMPI PUSH1 0x0 DUP1 REVERT JUMPDEST POP JUMP INVALID LOG2 PUSH5 0x6970667358 0x22 SLT KECCAK256 PUSH19 0x376BBC8419BF10046BEFFF3627CF818C266779 0xDF ISZERO NUMBER 0xC3 0xDD KECCAK256 0xC2 DUP5 INVALID OR 0xD3 0xAE PUSH5 0x736F6C6343 STOP ADDMOD SMOD STOP CALLER "
				},
				"gasEstimates": {
					"creation": {
						"codeDepositCost": "259400",
						"executionCost": "300",
						"totalCost": "259700"
					},
					"external": {
						"getGrade()": "2421",
						"myDetail(string,address)": "infinite"
					},
					"internal": {
						"getGrade(string memory,uint256,uint256)": "infinite"
					}
				},
				"methodIdentifiers": {
					"getGrade()": "46998f40",
					"myDetail(string,address)": "7e04c217"
				}
			},
			"storageLayout": {
				"storage": [
					{
						"astId": 11,
						"contract": "solidity practice/nestedMapping.sol:NestedMap",
						"label": "myInfo",
						"offset": 0,
						"slot": "0",
						"type": "t_struct(MyInfo)8_storage"
					},
					{
						"astId": 18,
						"contract": "solidity practice/nestedMapping.sol:NestedMap",
						"label": "myDetail",
						"offset": 0,
						"slot": "3",
						"type": "t_mapping(t_string_memory_ptr,t_mapping(t_address,t_struct(MyInfo)8_storage))"
					}
				],
				"types": {
					"t_address": {
						"encoding": "inplace",
						"label": "address",
						"numberOfBytes": "20"
					},
					"t_mapping(t_address,t_struct(MyInfo)8_storage)": {
						"encoding": "mapping",
						"key": "t_address",
						"label": "mapping(address => struct NestedMap.MyInfo)",
						"numberOfBytes": "32",
						"value": "t_struct(MyInfo)8_storage"
					},
					"t_mapping(t_string_memory_ptr,t_mapping(t_address,t_struct(MyInfo)8_storage))": {
						"encoding": "mapping",
						"key": "t_string_memory_ptr",
						"label": "mapping(string => mapping(address => struct NestedMap.MyInfo))",
						"numberOfBytes": "32",
						"value": "t_mapping(t_address,t_struct(MyInfo)8_storage)"
					},
					"t_string_memory_ptr": {
						"encoding": "bytes",
						"label": "string",
						"numberOfBytes": "32"
					},
					"t_string_storage": {
						"encoding": "bytes",
						"label": "string",
						"numberOfBytes": "32"
					},
					"t_struct(MyInfo)8_storage": {
						"encoding": "inplace",
						"label": "struct NestedMap.MyInfo",
						"members": [
							{
								"astId": 3,
								"contract": "solidity practice/nestedMapping.sol:NestedMap",
								"label": "name",
								"offset": 0,
								"slot": "0",
								"type": "t_string_storage"
							},
							{
								"astId": 5,
								"contract": "solidity practice/nestedMapping.sol:NestedMap",
								"label": "rollNo",
								"offset": 0,
								"slot": "1",
								"type": "t_uint256"
							},
							{
								"astId": 7,
								"contract": "solidity practice/nestedMapping.sol:NestedMap",
								"label": "grade",
								"offset": 0,
								"slot": "2",
								"type": "t_uint256"
							}
						],
						"numberOfBytes": "96"
					},
					"t_uint256": {
						"encoding": "inplace",
						"label": "uint256",
						"numberOfBytes": "32"
					}
				}
			},
			"userdoc": {
				"kind": "user",
				"methods": {},
				"version": 1
			}
		}
	}
}