{
	"solidity practice/byte.sol": {
		"ByteImplementation": {
			"abi": [
				{
					"inputs": [],
					"stateMutability": "nonpayable",
					"type": "constructor"
				},
				{
					"inputs": [],
					"name": "loopingStr",
					"outputs": [
						{
							"internalType": "bool",
							"name": "",
							"type": "bool"
						}
					],
					"stateMutability": "view",
					"type": "function"
				},
				{
					"inputs": [],
					"name": "returbyte",
					"outputs": [
						{
							"internalType": "bytes",
							"name": "",
							"type": "bytes"
						}
					],
					"stateMutability": "view",
					"type": "function"
				},
				{
					"inputs": [],
					"name": "returnLength",
					"outputs": [
						{
							"internalType": "uint256",
							"name": "",
							"type": "uint256"
						}
					],
					"stateMutability": "view",
					"type": "function"
				},
				{
					"inputs": [],
					"name": "returnStr",
					"outputs": [
						{
							"internalType": "string",
							"name": "",
							"type": "string"
						}
					],
					"stateMutability": "view",
					"type": "function"
				}
			],
			"devdoc": {
				"kind": "dev",
				"methods": {},
				"version": 1
			},
			"evm": {
				"assembly": "    /* \"solidity practice/byte.sol\":68:948  contract ByteImplementation{... */\n  mstore(0x40, 0x80)\n    /* \"solidity practice/byte.sol\":123:173  constructor(){... */\n  callvalue\n  dup1\n  iszero\n  tag_1\n  jumpi\n  0x00\n  dup1\n  revert\ntag_1:\n  pop\n    /* \"solidity practice/byte.sol\":145:166  firstName  = \"sulabh\" */\n  mload(0x40)\n  dup1\n  0x40\n  add\n  0x40\n  mstore\n  dup1\n  0x06\n  dup2\n  mstore\n  0x20\n  add\n  0x73756c6162680000000000000000000000000000000000000000000000000000\n  dup2\n  mstore\n  pop\n    /* \"solidity practice/byte.sol\":145:154  firstName */\n  0x00\n    /* \"solidity practice/byte.sol\":145:166  firstName  = \"sulabh\" */\n  swap1\n  dup1\n  mload\n  swap1\n  0x20\n  add\n  swap1\n  tag_4\n  swap3\n  swap2\n  swap1\n  tag_5\n  jump\t// in\ntag_4:\n  pop\n    /* \"solidity practice/byte.sol\":68:948  contract ByteImplementation{... */\n  jump(tag_6)\ntag_5:\n  dup3\n  dup1\n  sload\n  tag_7\n  swap1\n  tag_8\n  jump\t// in\ntag_7:\n  swap1\n  0x00\n  mstore\n  keccak256(0x00, 0x20)\n  swap1\n  0x1f\n  add\n  0x20\n  swap1\n  div\n  dup2\n  add\n  swap3\n  dup3\n  tag_10\n  jumpi\n  0x00\n  dup6\n  sstore\n  jump(tag_9)\ntag_10:\n  dup3\n  0x1f\n  lt\n  tag_11\n  jumpi\n  dup1\n  mload\n  not(0xff)\n  and\n  dup4\n  dup1\n  add\n  or\n  dup6\n  sstore\n  jump(tag_9)\ntag_11:\n  dup3\n  dup1\n  add\n  0x01\n  add\n  dup6\n  sstore\n  dup3\n  iszero\n  tag_9\n  jumpi\n  swap2\n  dup3\n  add\ntag_12:\n  dup3\n  dup2\n  gt\n  iszero\n  tag_13\n  jumpi\n  dup3\n  mload\n  dup3\n  sstore\n  swap2\n  0x20\n  add\n  swap2\n  swap1\n  0x01\n  add\n  swap1\n  jump(tag_12)\ntag_13:\ntag_9:\n  pop\n  swap1\n  pop\n  tag_14\n  swap2\n  swap1\n  tag_15\n  jump\t// in\ntag_14:\n  pop\n  swap1\n  jump\t// out\ntag_15:\ntag_16:\n  dup1\n  dup3\n  gt\n  iszero\n  tag_17\n  jumpi\n  0x00\n  dup2\n  0x00\n  swap1\n  sstore\n  pop\n  0x01\n  add\n  jump(tag_16)\ntag_17:\n  pop\n  swap1\n  jump\t// out\n    /* \"#utility.yul\":7:327   */\ntag_8:\n    /* \"#utility.yul\":51:57   */\n  0x00\n    /* \"#utility.yul\":88:89   */\n  0x02\n    /* \"#utility.yul\":82:86   */\n  dup3\n    /* \"#utility.yul\":78:90   */\n  div\n    /* \"#utility.yul\":68:90   */\n  swap1\n  pop\n    /* \"#utility.yul\":135:136   */\n  0x01\n    /* \"#utility.yul\":129:133   */\n  dup3\n    /* \"#utility.yul\":125:137   */\n  and\n    /* \"#utility.yul\":156:174   */\n  dup1\n    /* \"#utility.yul\":146:227   */\n  tag_20\n  jumpi\n    /* \"#utility.yul\":212:216   */\n  0x7f\n    /* \"#utility.yul\":204:210   */\n  dup3\n    /* \"#utility.yul\":200:217   */\n  and\n    /* \"#utility.yul\":190:217   */\n  swap2\n  pop\n    /* \"#utility.yul\":146:227   */\ntag_20:\n    /* \"#utility.yul\":274:276   */\n  0x20\n    /* \"#utility.yul\":266:272   */\n  dup3\n    /* \"#utility.yul\":263:277   */\n  lt\n    /* \"#utility.yul\":243:261   */\n  dup2\n    /* \"#utility.yul\":240:278   */\n  eq\n    /* \"#utility.yul\":237:321   */\n  iszero\n  tag_21\n  jumpi\n    /* \"#utility.yul\":293:311   */\n  tag_22\n  tag_23\n  jump\t// in\ntag_22:\n    /* \"#utility.yul\":237:321   */\ntag_21:\n    /* \"#utility.yul\":58:327   */\n  pop\n    /* \"#utility.yul\":7:327   */\n  swap2\n  swap1\n  pop\n  jump\t// out\n    /* \"#utility.yul\":333:513   */\ntag_23:\n    /* \"#utility.yul\":381:458   */\n  0x4e487b7100000000000000000000000000000000000000000000000000000000\n    /* \"#utility.yul\":378:379   */\n  0x00\n    /* \"#utility.yul\":371:459   */\n  mstore\n    /* \"#utility.yul\":478:482   */\n  0x22\n    /* \"#utility.yul\":475:476   */\n  0x04\n    /* \"#utility.yul\":468:483   */\n  mstore\n    /* \"#utility.yul\":502:506   */\n  0x24\n    /* \"#utility.yul\":499:500   */\n  0x00\n    /* \"#utility.yul\":492:507   */\n  revert\n    /* \"solidity practice/byte.sol\":68:948  contract ByteImplementation{... */\ntag_6:\n  dataSize(sub_0)\n  dup1\n  dataOffset(sub_0)\n  0x00\n  codecopy\n  0x00\n  return\nstop\n\nsub_0: assembly {\n        /* \"solidity practice/byte.sol\":68:948  contract ByteImplementation{... */\n      mstore(0x40, 0x80)\n      callvalue\n      dup1\n      iszero\n      tag_1\n      jumpi\n      0x00\n      dup1\n      revert\n    tag_1:\n      pop\n      jumpi(tag_2, lt(calldatasize, 0x04))\n      shr(0xe0, calldataload(0x00))\n      dup1\n      0x7d60de2d\n      eq\n      tag_3\n      jumpi\n      dup1\n      0xa0b74315\n      eq\n      tag_4\n      jumpi\n      dup1\n      0xa4081e16\n      eq\n      tag_5\n      jumpi\n      dup1\n      0xbb7302bf\n      eq\n      tag_6\n      jumpi\n    tag_2:\n      0x00\n      dup1\n      revert\n        /* \"solidity practice/byte.sol\":679:942  function loopingStr() view public returns(bool){... */\n    tag_3:\n      tag_7\n      tag_8\n      jump\t// in\n    tag_7:\n      mload(0x40)\n      tag_9\n      swap2\n      swap1\n      tag_10\n      jump\t// in\n    tag_9:\n      mload(0x40)\n      dup1\n      swap2\n      sub\n      swap1\n      return\n        /* \"solidity practice/byte.sol\":437:525  function returnStr() public view returns(string memory){... */\n    tag_4:\n      tag_11\n      tag_12\n      jump\t// in\n    tag_11:\n      mload(0x40)\n      tag_13\n      swap2\n      swap1\n      tag_14\n      jump\t// in\n    tag_13:\n      mload(0x40)\n      dup1\n      swap2\n      sub\n      swap1\n      return\n        /* \"solidity practice/byte.sol\":295:431  function returnLength() public view returns(uint){... */\n    tag_5:\n      tag_15\n      tag_16\n      jump\t// in\n    tag_15:\n      mload(0x40)\n      tag_17\n      swap2\n      swap1\n      tag_18\n      jump\t// in\n    tag_17:\n      mload(0x40)\n      dup1\n      swap2\n      sub\n      swap1\n      return\n        /* \"solidity practice/byte.sol\":531:673  function returbyte() public view returns(bytes memory){... */\n    tag_6:\n      tag_19\n      tag_20\n      jump\t// in\n    tag_19:\n      mload(0x40)\n      tag_21\n      swap2\n      swap1\n      tag_22\n      jump\t// in\n    tag_21:\n      mload(0x40)\n      dup1\n      swap2\n      sub\n      swap1\n      return\n        /* \"solidity practice/byte.sol\":679:942  function loopingStr() view public returns(bool){... */\n    tag_8:\n        /* \"solidity practice/byte.sol\":721:725  bool */\n      0x00\n        /* \"solidity practice/byte.sol\":740:746  uint i */\n      dup1\n        /* \"solidity practice/byte.sol\":747:748  0 */\n      0x00\n        /* \"solidity practice/byte.sol\":740:748  uint i=0 */\n      swap1\n      pop\n        /* \"solidity practice/byte.sol\":767:768  1 */\n      0x01\n        /* \"solidity practice/byte.sol\":752:766  returnLength() */\n      tag_27\n        /* \"solidity practice/byte.sol\":752:764  returnLength */\n      tag_16\n        /* \"solidity practice/byte.sol\":752:766  returnLength() */\n      jump\t// in\n    tag_27:\n        /* \"solidity practice/byte.sol\":752:768  returnLength()-1 */\n      tag_28\n      swap2\n      swap1\n      tag_29\n      jump\t// in\n    tag_28:\n        /* \"solidity practice/byte.sol\":750:751  i */\n      dup2\n        /* \"solidity practice/byte.sol\":750:768  i<returnLength()-1 */\n      lt\n        /* \"solidity practice/byte.sol\":736:927  for(uint i=0; i<returnLength()-1; i++){... */\n      iszero\n      tag_25\n      jumpi\n        /* \"solidity practice/byte.sol\":791:810  returbyte()[i]==\"q\" */\n      0x7100000000000000000000000000000000000000000000000000000000000000\n        /* \"solidity practice/byte.sol\":791:802  returbyte() */\n      tag_30\n        /* \"solidity practice/byte.sol\":791:800  returbyte */\n      tag_20\n        /* \"solidity practice/byte.sol\":791:802  returbyte() */\n      jump\t// in\n    tag_30:\n        /* \"solidity practice/byte.sol\":803:804  i */\n      dup3\n        /* \"solidity practice/byte.sol\":791:805  returbyte()[i] */\n      dup2\n      mload\n      dup2\n      lt\n      tag_31\n      jumpi\n      tag_32\n      tag_33\n      jump\t// in\n    tag_32:\n    tag_31:\n      0x20\n      add\n      add\n      mload\n      0xf8\n      shr\n      0xf8\n      shl\n        /* \"solidity practice/byte.sol\":791:810  returbyte()[i]==\"q\" */\n      not(0xffffffffffffffffffffffffffffffffffffffffffffffffffffffffffffff)\n      and\n      eq\n        /* \"solidity practice/byte.sol\":788:904  if(returbyte()[i]==\"q\"){... */\n      iszero\n      tag_34\n      jumpi\n        /* \"solidity practice/byte.sol\":836:840  true */\n      0x01\n        /* \"solidity practice/byte.sol\":829:840  return true */\n      swap2\n      pop\n      pop\n      jump(tag_23)\n        /* \"solidity practice/byte.sol\":788:904  if(returbyte()[i]==\"q\"){... */\n    tag_34:\n        /* \"solidity practice/byte.sol\":884:889  false */\n      0x00\n        /* \"solidity practice/byte.sol\":877:889  return false */\n      swap2\n      pop\n      pop\n      jump(tag_23)\n        /* \"solidity practice/byte.sol\":736:927  for(uint i=0; i<returnLength()-1; i++){... */\n    tag_25:\n      pop\n        /* \"solidity practice/byte.sol\":679:942  function loopingStr() view public returns(bool){... */\n    tag_23:\n      swap1\n      jump\t// out\n        /* \"solidity practice/byte.sol\":437:525  function returnStr() public view returns(string memory){... */\n    tag_12:\n        /* \"solidity practice/byte.sol\":478:491  string memory */\n      0x60\n        /* \"solidity practice/byte.sol\":509:518  firstName */\n      0x00\n        /* \"solidity practice/byte.sol\":502:518  return firstName */\n      dup1\n      sload\n      tag_39\n      swap1\n      tag_40\n      jump\t// in\n    tag_39:\n      dup1\n      0x1f\n      add\n      0x20\n      dup1\n      swap2\n      div\n      mul\n      0x20\n      add\n      mload(0x40)\n      swap1\n      dup2\n      add\n      0x40\n      mstore\n      dup1\n      swap3\n      swap2\n      swap1\n      dup2\n      dup2\n      mstore\n      0x20\n      add\n      dup3\n      dup1\n      sload\n      tag_41\n      swap1\n      tag_40\n      jump\t// in\n    tag_41:\n      dup1\n      iszero\n      tag_42\n      jumpi\n      dup1\n      0x1f\n      lt\n      tag_43\n      jumpi\n      0x0100\n      dup1\n      dup4\n      sload\n      div\n      mul\n      dup4\n      mstore\n      swap2\n      0x20\n      add\n      swap2\n      jump(tag_42)\n    tag_43:\n      dup3\n      add\n      swap2\n      swap1\n      0x00\n      mstore\n      keccak256(0x00, 0x20)\n      swap1\n    tag_44:\n      dup2\n      sload\n      dup2\n      mstore\n      swap1\n      0x01\n      add\n      swap1\n      0x20\n      add\n      dup1\n      dup4\n      gt\n      tag_44\n      jumpi\n      dup3\n      swap1\n      sub\n      0x1f\n      and\n      dup3\n      add\n      swap2\n    tag_42:\n      pop\n      pop\n      pop\n      pop\n      pop\n      swap1\n      pop\n        /* \"solidity practice/byte.sol\":437:525  function returnStr() public view returns(string memory){... */\n      swap1\n      jump\t// out\n        /* \"solidity practice/byte.sol\":295:431  function returnLength() public view returns(uint){... */\n    tag_16:\n        /* \"solidity practice/byte.sol\":339:343  uint */\n      0x00\n        /* \"solidity practice/byte.sol\":354:368  uint lenOfName */\n      dup1\n        /* \"solidity practice/byte.sol\":371:391  strToByte(firstName) */\n      tag_46\n        /* \"solidity practice/byte.sol\":381:390  firstName */\n      0x00\n        /* \"solidity practice/byte.sol\":371:391  strToByte(firstName) */\n      dup1\n      sload\n      tag_47\n      swap1\n      tag_40\n      jump\t// in\n    tag_47:\n      dup1\n      0x1f\n      add\n      0x20\n      dup1\n      swap2\n      div\n      mul\n      0x20\n      add\n      mload(0x40)\n      swap1\n      dup2\n      add\n      0x40\n      mstore\n      dup1\n      swap3\n      swap2\n      swap1\n      dup2\n      dup2\n      mstore\n      0x20\n      add\n      dup3\n      dup1\n      sload\n      tag_48\n      swap1\n      tag_40\n      jump\t// in\n    tag_48:\n      dup1\n      iszero\n      tag_49\n      jumpi\n      dup1\n      0x1f\n      lt\n      tag_50\n      jumpi\n      0x0100\n      dup1\n      dup4\n      sload\n      div\n      mul\n      dup4\n      mstore\n      swap2\n      0x20\n      add\n      swap2\n      jump(tag_49)\n    tag_50:\n      dup3\n      add\n      swap2\n      swap1\n      0x00\n      mstore\n      keccak256(0x00, 0x20)\n      swap1\n    tag_51:\n      dup2\n      sload\n      dup2\n      mstore\n      swap1\n      0x01\n      add\n      swap1\n      0x20\n      add\n      dup1\n      dup4\n      gt\n      tag_51\n      jumpi\n      dup3\n      swap1\n      sub\n      0x1f\n      and\n      dup3\n      add\n      swap2\n    tag_49:\n      pop\n      pop\n      pop\n      pop\n      pop\n        /* \"solidity practice/byte.sol\":371:380  strToByte */\n      tag_52\n        /* \"solidity practice/byte.sol\":371:391  strToByte(firstName) */\n      jump\t// in\n    tag_46:\n        /* \"solidity practice/byte.sol\":371:398  strToByte(firstName).length */\n      mload\n        /* \"solidity practice/byte.sol\":354:398  uint lenOfName = strToByte(firstName).length */\n      swap1\n      pop\n        /* \"solidity practice/byte.sol\":415:424  lenOfName */\n      dup1\n        /* \"solidity practice/byte.sol\":408:424  return lenOfName */\n      swap2\n      pop\n      pop\n        /* \"solidity practice/byte.sol\":295:431  function returnLength() public view returns(uint){... */\n      swap1\n      jump\t// out\n        /* \"solidity practice/byte.sol\":531:673  function returbyte() public view returns(bytes memory){... */\n    tag_20:\n        /* \"solidity practice/byte.sol\":572:584  bytes memory */\n      0x60\n        /* \"solidity practice/byte.sol\":595:617  bytes memory lenOfName */\n      0x00\n        /* \"solidity practice/byte.sol\":620:640  strToByte(firstName) */\n      tag_54\n        /* \"solidity practice/byte.sol\":630:639  firstName */\n      0x00\n        /* \"solidity practice/byte.sol\":620:640  strToByte(firstName) */\n      dup1\n      sload\n      tag_55\n      swap1\n      tag_40\n      jump\t// in\n    tag_55:\n      dup1\n      0x1f\n      add\n      0x20\n      dup1\n      swap2\n      div\n      mul\n      0x20\n      add\n      mload(0x40)\n      swap1\n      dup2\n      add\n      0x40\n      mstore\n      dup1\n      swap3\n      swap2\n      swap1\n      dup2\n      dup2\n      mstore\n      0x20\n      add\n      dup3\n      dup1\n      sload\n      tag_56\n      swap1\n      tag_40\n      jump\t// in\n    tag_56:\n      dup1\n      iszero\n      tag_57\n      jumpi\n      dup1\n      0x1f\n      lt\n      tag_58\n      jumpi\n      0x0100\n      dup1\n      dup4\n      sload\n      div\n      mul\n      dup4\n      mstore\n      swap2\n      0x20\n      add\n      swap2\n      jump(tag_57)\n    tag_58:\n      dup3\n      add\n      swap2\n      swap1\n      0x00\n      mstore\n      keccak256(0x00, 0x20)\n      swap1\n    tag_59:\n      dup2\n      sload\n      dup2\n      mstore\n      swap1\n      0x01\n      add\n      swap1\n      0x20\n      add\n      dup1\n      dup4\n      gt\n      tag_59\n      jumpi\n      dup3\n      swap1\n      sub\n      0x1f\n      and\n      dup3\n      add\n      swap2\n    tag_57:\n      pop\n      pop\n      pop\n      pop\n      pop\n        /* \"solidity practice/byte.sol\":620:629  strToByte */\n      tag_52\n        /* \"solidity practice/byte.sol\":620:640  strToByte(firstName) */\n      jump\t// in\n    tag_54:\n        /* \"solidity practice/byte.sol\":595:640  bytes memory lenOfName = strToByte(firstName) */\n      swap1\n      pop\n        /* \"solidity practice/byte.sol\":657:666  lenOfName */\n      dup1\n        /* \"solidity practice/byte.sol\":650:666  return lenOfName */\n      swap2\n      pop\n      pop\n        /* \"solidity practice/byte.sol\":531:673  function returbyte() public view returns(bytes memory){... */\n      swap1\n      jump\t// out\n        /* \"solidity practice/byte.sol\":180:289  function strToByte(string memory data) pure internal returns(bytes memory){... */\n    tag_52:\n        /* \"solidity practice/byte.sol\":241:253  bytes memory */\n      0x60\n        /* \"solidity practice/byte.sol\":277:281  data */\n      dup2\n        /* \"solidity practice/byte.sol\":264:282  return bytes(data) */\n      swap1\n      pop\n        /* \"solidity practice/byte.sol\":180:289  function strToByte(string memory data) pure internal returns(bytes memory){... */\n      swap2\n      swap1\n      pop\n      jump\t// out\n        /* \"#utility.yul\":7:116   */\n    tag_62:\n        /* \"#utility.yul\":88:109   */\n      tag_64\n        /* \"#utility.yul\":103:108   */\n      dup2\n        /* \"#utility.yul\":88:109   */\n      tag_65\n      jump\t// in\n    tag_64:\n        /* \"#utility.yul\":83:86   */\n      dup3\n        /* \"#utility.yul\":76:110   */\n      mstore\n        /* \"#utility.yul\":7:116   */\n      pop\n      pop\n      jump\t// out\n        /* \"#utility.yul\":122:482   */\n    tag_66:\n        /* \"#utility.yul\":208:211   */\n      0x00\n        /* \"#utility.yul\":236:274   */\n      tag_68\n        /* \"#utility.yul\":268:273   */\n      dup3\n        /* \"#utility.yul\":236:274   */\n      tag_69\n      jump\t// in\n    tag_68:\n        /* \"#utility.yul\":290:360   */\n      tag_70\n        /* \"#utility.yul\":353:359   */\n      dup2\n        /* \"#utility.yul\":348:351   */\n      dup6\n        /* \"#utility.yul\":290:360   */\n      tag_71\n      jump\t// in\n    tag_70:\n        /* \"#utility.yul\":283:360   */\n      swap4\n      pop\n        /* \"#utility.yul\":369:421   */\n      tag_72\n        /* \"#utility.yul\":414:420   */\n      dup2\n        /* \"#utility.yul\":409:412   */\n      dup6\n        /* \"#utility.yul\":402:406   */\n      0x20\n        /* \"#utility.yul\":395:400   */\n      dup7\n        /* \"#utility.yul\":391:407   */\n      add\n        /* \"#utility.yul\":369:421   */\n      tag_73\n      jump\t// in\n    tag_72:\n        /* \"#utility.yul\":446:475   */\n      tag_74\n        /* \"#utility.yul\":468:474   */\n      dup2\n        /* \"#utility.yul\":446:475   */\n      tag_75\n      jump\t// in\n    tag_74:\n        /* \"#utility.yul\":441:444   */\n      dup5\n        /* \"#utility.yul\":437:476   */\n      add\n        /* \"#utility.yul\":430:476   */\n      swap2\n      pop\n        /* \"#utility.yul\":212:482   */\n      pop\n        /* \"#utility.yul\":122:482   */\n      swap3\n      swap2\n      pop\n      pop\n      jump\t// out\n        /* \"#utility.yul\":488:852   */\n    tag_76:\n        /* \"#utility.yul\":576:579   */\n      0x00\n        /* \"#utility.yul\":604:643   */\n      tag_78\n        /* \"#utility.yul\":637:642   */\n      dup3\n        /* \"#utility.yul\":604:643   */\n      tag_79\n      jump\t// in\n    tag_78:\n        /* \"#utility.yul\":659:730   */\n      tag_80\n        /* \"#utility.yul\":723:729   */\n      dup2\n        /* \"#utility.yul\":718:721   */\n      dup6\n        /* \"#utility.yul\":659:730   */\n      tag_81\n      jump\t// in\n    tag_80:\n        /* \"#utility.yul\":652:730   */\n      swap4\n      pop\n        /* \"#utility.yul\":739:791   */\n      tag_82\n        /* \"#utility.yul\":784:790   */\n      dup2\n        /* \"#utility.yul\":779:782   */\n      dup6\n        /* \"#utility.yul\":772:776   */\n      0x20\n        /* \"#utility.yul\":765:770   */\n      dup7\n        /* \"#utility.yul\":761:777   */\n      add\n        /* \"#utility.yul\":739:791   */\n      tag_73\n      jump\t// in\n    tag_82:\n        /* \"#utility.yul\":816:845   */\n      tag_83\n        /* \"#utility.yul\":838:844   */\n      dup2\n        /* \"#utility.yul\":816:845   */\n      tag_75\n      jump\t// in\n    tag_83:\n        /* \"#utility.yul\":811:814   */\n      dup5\n        /* \"#utility.yul\":807:846   */\n      add\n        /* \"#utility.yul\":800:846   */\n      swap2\n      pop\n        /* \"#utility.yul\":580:852   */\n      pop\n        /* \"#utility.yul\":488:852   */\n      swap3\n      swap2\n      pop\n      pop\n      jump\t// out\n        /* \"#utility.yul\":858:976   */\n    tag_84:\n        /* \"#utility.yul\":945:969   */\n      tag_86\n        /* \"#utility.yul\":963:968   */\n      dup2\n        /* \"#utility.yul\":945:969   */\n      tag_87\n      jump\t// in\n    tag_86:\n        /* \"#utility.yul\":940:943   */\n      dup3\n        /* \"#utility.yul\":933:970   */\n      mstore\n        /* \"#utility.yul\":858:976   */\n      pop\n      pop\n      jump\t// out\n        /* \"#utility.yul\":982:1192   */\n    tag_10:\n        /* \"#utility.yul\":1069:1073   */\n      0x00\n        /* \"#utility.yul\":1107:1109   */\n      0x20\n        /* \"#utility.yul\":1096:1105   */\n      dup3\n        /* \"#utility.yul\":1092:1110   */\n      add\n        /* \"#utility.yul\":1084:1110   */\n      swap1\n      pop\n        /* \"#utility.yul\":1120:1185   */\n      tag_89\n        /* \"#utility.yul\":1182:1183   */\n      0x00\n        /* \"#utility.yul\":1171:1180   */\n      dup4\n        /* \"#utility.yul\":1167:1184   */\n      add\n        /* \"#utility.yul\":1158:1164   */\n      dup5\n        /* \"#utility.yul\":1120:1185   */\n      tag_62\n      jump\t// in\n    tag_89:\n        /* \"#utility.yul\":982:1192   */\n      swap3\n      swap2\n      pop\n      pop\n      jump\t// out\n        /* \"#utility.yul\":1198:1507   */\n    tag_22:\n        /* \"#utility.yul\":1309:1313   */\n      0x00\n        /* \"#utility.yul\":1347:1349   */\n      0x20\n        /* \"#utility.yul\":1336:1345   */\n      dup3\n        /* \"#utility.yul\":1332:1350   */\n      add\n        /* \"#utility.yul\":1324:1350   */\n      swap1\n      pop\n        /* \"#utility.yul\":1396:1405   */\n      dup2\n        /* \"#utility.yul\":1390:1394   */\n      dup2\n        /* \"#utility.yul\":1386:1406   */\n      sub\n        /* \"#utility.yul\":1382:1383   */\n      0x00\n        /* \"#utility.yul\":1371:1380   */\n      dup4\n        /* \"#utility.yul\":1367:1384   */\n      add\n        /* \"#utility.yul\":1360:1407   */\n      mstore\n        /* \"#utility.yul\":1424:1500   */\n      tag_91\n        /* \"#utility.yul\":1495:1499   */\n      dup2\n        /* \"#utility.yul\":1486:1492   */\n      dup5\n        /* \"#utility.yul\":1424:1500   */\n      tag_66\n      jump\t// in\n    tag_91:\n        /* \"#utility.yul\":1416:1500   */\n      swap1\n      pop\n        /* \"#utility.yul\":1198:1507   */\n      swap3\n      swap2\n      pop\n      pop\n      jump\t// out\n        /* \"#utility.yul\":1513:1826   */\n    tag_14:\n        /* \"#utility.yul\":1626:1630   */\n      0x00\n        /* \"#utility.yul\":1664:1666   */\n      0x20\n        /* \"#utility.yul\":1653:1662   */\n      dup3\n        /* \"#utility.yul\":1649:1667   */\n      add\n        /* \"#utility.yul\":1641:1667   */\n      swap1\n      pop\n        /* \"#utility.yul\":1713:1722   */\n      dup2\n        /* \"#utility.yul\":1707:1711   */\n      dup2\n        /* \"#utility.yul\":1703:1723   */\n      sub\n        /* \"#utility.yul\":1699:1700   */\n      0x00\n        /* \"#utility.yul\":1688:1697   */\n      dup4\n        /* \"#utility.yul\":1684:1701   */\n      add\n        /* \"#utility.yul\":1677:1724   */\n      mstore\n        /* \"#utility.yul\":1741:1819   */\n      tag_93\n        /* \"#utility.yul\":1814:1818   */\n      dup2\n        /* \"#utility.yul\":1805:1811   */\n      dup5\n        /* \"#utility.yul\":1741:1819   */\n      tag_76\n      jump\t// in\n    tag_93:\n        /* \"#utility.yul\":1733:1819   */\n      swap1\n      pop\n        /* \"#utility.yul\":1513:1826   */\n      swap3\n      swap2\n      pop\n      pop\n      jump\t// out\n        /* \"#utility.yul\":1832:2054   */\n    tag_18:\n        /* \"#utility.yul\":1925:1929   */\n      0x00\n        /* \"#utility.yul\":1963:1965   */\n      0x20\n        /* \"#utility.yul\":1952:1961   */\n      dup3\n        /* \"#utility.yul\":1948:1966   */\n      add\n        /* \"#utility.yul\":1940:1966   */\n      swap1\n      pop\n        /* \"#utility.yul\":1976:2047   */\n      tag_95\n        /* \"#utility.yul\":2044:2045   */\n      0x00\n        /* \"#utility.yul\":2033:2042   */\n      dup4\n        /* \"#utility.yul\":2029:2046   */\n      add\n        /* \"#utility.yul\":2020:2026   */\n      dup5\n        /* \"#utility.yul\":1976:2047   */\n      tag_84\n      jump\t// in\n    tag_95:\n        /* \"#utility.yul\":1832:2054   */\n      swap3\n      swap2\n      pop\n      pop\n      jump\t// out\n        /* \"#utility.yul\":2060:2158   */\n    tag_69:\n        /* \"#utility.yul\":2111:2117   */\n      0x00\n        /* \"#utility.yul\":2145:2150   */\n      dup2\n        /* \"#utility.yul\":2139:2151   */\n      mload\n        /* \"#utility.yul\":2129:2151   */\n      swap1\n      pop\n        /* \"#utility.yul\":2060:2158   */\n      swap2\n      swap1\n      pop\n      jump\t// out\n        /* \"#utility.yul\":2164:2263   */\n    tag_79:\n        /* \"#utility.yul\":2216:2222   */\n      0x00\n        /* \"#utility.yul\":2250:2255   */\n      dup2\n        /* \"#utility.yul\":2244:2256   */\n      mload\n        /* \"#utility.yul\":2234:2256   */\n      swap1\n      pop\n        /* \"#utility.yul\":2164:2263   */\n      swap2\n      swap1\n      pop\n      jump\t// out\n        /* \"#utility.yul\":2269:2437   */\n    tag_71:\n        /* \"#utility.yul\":2352:2363   */\n      0x00\n        /* \"#utility.yul\":2386:2392   */\n      dup3\n        /* \"#utility.yul\":2381:2384   */\n      dup3\n        /* \"#utility.yul\":2374:2393   */\n      mstore\n        /* \"#utility.yul\":2426:2430   */\n      0x20\n        /* \"#utility.yul\":2421:2424   */\n      dup3\n        /* \"#utility.yul\":2417:2431   */\n      add\n        /* \"#utility.yul\":2402:2431   */\n      swap1\n      pop\n        /* \"#utility.yul\":2269:2437   */\n      swap3\n      swap2\n      pop\n      pop\n      jump\t// out\n        /* \"#utility.yul\":2443:2612   */\n    tag_81:\n        /* \"#utility.yul\":2527:2538   */\n      0x00\n        /* \"#utility.yul\":2561:2567   */\n      dup3\n        /* \"#utility.yul\":2556:2559   */\n      dup3\n        /* \"#utility.yul\":2549:2568   */\n      mstore\n        /* \"#utility.yul\":2601:2605   */\n      0x20\n        /* \"#utility.yul\":2596:2599   */\n      dup3\n        /* \"#utility.yul\":2592:2606   */\n      add\n        /* \"#utility.yul\":2577:2606   */\n      swap1\n      pop\n        /* \"#utility.yul\":2443:2612   */\n      swap3\n      swap2\n      pop\n      pop\n      jump\t// out\n        /* \"#utility.yul\":2618:2809   */\n    tag_29:\n        /* \"#utility.yul\":2658:2662   */\n      0x00\n        /* \"#utility.yul\":2678:2698   */\n      tag_101\n        /* \"#utility.yul\":2696:2697   */\n      dup3\n        /* \"#utility.yul\":2678:2698   */\n      tag_87\n      jump\t// in\n    tag_101:\n        /* \"#utility.yul\":2673:2698   */\n      swap2\n      pop\n        /* \"#utility.yul\":2712:2732   */\n      tag_102\n        /* \"#utility.yul\":2730:2731   */\n      dup4\n        /* \"#utility.yul\":2712:2732   */\n      tag_87\n      jump\t// in\n    tag_102:\n        /* \"#utility.yul\":2707:2732   */\n      swap3\n      pop\n        /* \"#utility.yul\":2751:2752   */\n      dup3\n        /* \"#utility.yul\":2748:2749   */\n      dup3\n        /* \"#utility.yul\":2745:2753   */\n      lt\n        /* \"#utility.yul\":2742:2776   */\n      iszero\n      tag_103\n      jumpi\n        /* \"#utility.yul\":2756:2774   */\n      tag_104\n      tag_105\n      jump\t// in\n    tag_104:\n        /* \"#utility.yul\":2742:2776   */\n    tag_103:\n        /* \"#utility.yul\":2801:2802   */\n      dup3\n        /* \"#utility.yul\":2798:2799   */\n      dup3\n        /* \"#utility.yul\":2794:2803   */\n      sub\n        /* \"#utility.yul\":2786:2803   */\n      swap1\n      pop\n        /* \"#utility.yul\":2618:2809   */\n      swap3\n      swap2\n      pop\n      pop\n      jump\t// out\n        /* \"#utility.yul\":2815:2905   */\n    tag_65:\n        /* \"#utility.yul\":2849:2856   */\n      0x00\n        /* \"#utility.yul\":2892:2897   */\n      dup2\n        /* \"#utility.yul\":2885:2898   */\n      iszero\n        /* \"#utility.yul\":2878:2899   */\n      iszero\n        /* \"#utility.yul\":2867:2899   */\n      swap1\n      pop\n        /* \"#utility.yul\":2815:2905   */\n      swap2\n      swap1\n      pop\n      jump\t// out\n        /* \"#utility.yul\":2911:2988   */\n    tag_87:\n        /* \"#utility.yul\":2948:2955   */\n      0x00\n        /* \"#utility.yul\":2977:2982   */\n      dup2\n        /* \"#utility.yul\":2966:2982   */\n      swap1\n      pop\n        /* \"#utility.yul\":2911:2988   */\n      swap2\n      swap1\n      pop\n      jump\t// out\n        /* \"#utility.yul\":2994:3301   */\n    tag_73:\n        /* \"#utility.yul\":3062:3063   */\n      0x00\n        /* \"#utility.yul\":3072:3185   */\n    tag_109:\n        /* \"#utility.yul\":3086:3092   */\n      dup4\n        /* \"#utility.yul\":3083:3084   */\n      dup2\n        /* \"#utility.yul\":3080:3093   */\n      lt\n        /* \"#utility.yul\":3072:3185   */\n      iszero\n      tag_111\n      jumpi\n        /* \"#utility.yul\":3171:3172   */\n      dup1\n        /* \"#utility.yul\":3166:3169   */\n      dup3\n        /* \"#utility.yul\":3162:3173   */\n      add\n        /* \"#utility.yul\":3156:3174   */\n      mload\n        /* \"#utility.yul\":3152:3153   */\n      dup2\n        /* \"#utility.yul\":3147:3150   */\n      dup5\n        /* \"#utility.yul\":3143:3154   */\n      add\n        /* \"#utility.yul\":3136:3175   */\n      mstore\n        /* \"#utility.yul\":3108:3110   */\n      0x20\n        /* \"#utility.yul\":3105:3106   */\n      dup2\n        /* \"#utility.yul\":3101:3111   */\n      add\n        /* \"#utility.yul\":3096:3111   */\n      swap1\n      pop\n        /* \"#utility.yul\":3072:3185   */\n      jump(tag_109)\n    tag_111:\n        /* \"#utility.yul\":3203:3209   */\n      dup4\n        /* \"#utility.yul\":3200:3201   */\n      dup2\n        /* \"#utility.yul\":3197:3210   */\n      gt\n        /* \"#utility.yul\":3194:3295   */\n      iszero\n      tag_112\n      jumpi\n        /* \"#utility.yul\":3283:3284   */\n      0x00\n        /* \"#utility.yul\":3274:3280   */\n      dup5\n        /* \"#utility.yul\":3269:3272   */\n      dup5\n        /* \"#utility.yul\":3265:3281   */\n      add\n        /* \"#utility.yul\":3258:3285   */\n      mstore\n        /* \"#utility.yul\":3194:3295   */\n    tag_112:\n        /* \"#utility.yul\":3043:3301   */\n      pop\n        /* \"#utility.yul\":2994:3301   */\n      pop\n      pop\n      pop\n      jump\t// out\n        /* \"#utility.yul\":3307:3627   */\n    tag_40:\n        /* \"#utility.yul\":3351:3357   */\n      0x00\n        /* \"#utility.yul\":3388:3389   */\n      0x02\n        /* \"#utility.yul\":3382:3386   */\n      dup3\n        /* \"#utility.yul\":3378:3390   */\n      div\n        /* \"#utility.yul\":3368:3390   */\n      swap1\n      pop\n        /* \"#utility.yul\":3435:3436   */\n      0x01\n        /* \"#utility.yul\":3429:3433   */\n      dup3\n        /* \"#utility.yul\":3425:3437   */\n      and\n        /* \"#utility.yul\":3456:3474   */\n      dup1\n        /* \"#utility.yul\":3446:3527   */\n      tag_114\n      jumpi\n        /* \"#utility.yul\":3512:3516   */\n      0x7f\n        /* \"#utility.yul\":3504:3510   */\n      dup3\n        /* \"#utility.yul\":3500:3517   */\n      and\n        /* \"#utility.yul\":3490:3517   */\n      swap2\n      pop\n        /* \"#utility.yul\":3446:3527   */\n    tag_114:\n        /* \"#utility.yul\":3574:3576   */\n      0x20\n        /* \"#utility.yul\":3566:3572   */\n      dup3\n        /* \"#utility.yul\":3563:3577   */\n      lt\n        /* \"#utility.yul\":3543:3561   */\n      dup2\n        /* \"#utility.yul\":3540:3578   */\n      eq\n        /* \"#utility.yul\":3537:3621   */\n      iszero\n      tag_115\n      jumpi\n        /* \"#utility.yul\":3593:3611   */\n      tag_116\n      tag_117\n      jump\t// in\n    tag_116:\n        /* \"#utility.yul\":3537:3621   */\n    tag_115:\n        /* \"#utility.yul\":3358:3627   */\n      pop\n        /* \"#utility.yul\":3307:3627   */\n      swap2\n      swap1\n      pop\n      jump\t// out\n        /* \"#utility.yul\":3872:4052   */\n    tag_105:\n        /* \"#utility.yul\":3920:3997   */\n      0x4e487b7100000000000000000000000000000000000000000000000000000000\n        /* \"#utility.yul\":3917:3918   */\n      0x00\n        /* \"#utility.yul\":3910:3998   */\n      mstore\n        /* \"#utility.yul\":4017:4021   */\n      0x11\n        /* \"#utility.yul\":4014:4015   */\n      0x04\n        /* \"#utility.yul\":4007:4022   */\n      mstore\n        /* \"#utility.yul\":4041:4045   */\n      0x24\n        /* \"#utility.yul\":4038:4039   */\n      0x00\n        /* \"#utility.yul\":4031:4046   */\n      revert\n        /* \"#utility.yul\":4058:4238   */\n    tag_117:\n        /* \"#utility.yul\":4106:4183   */\n      0x4e487b7100000000000000000000000000000000000000000000000000000000\n        /* \"#utility.yul\":4103:4104   */\n      0x00\n        /* \"#utility.yul\":4096:4184   */\n      mstore\n        /* \"#utility.yul\":4203:4207   */\n      0x22\n        /* \"#utility.yul\":4200:4201   */\n      0x04\n        /* \"#utility.yul\":4193:4208   */\n      mstore\n        /* \"#utility.yul\":4227:4231   */\n      0x24\n        /* \"#utility.yul\":4224:4225   */\n      0x00\n        /* \"#utility.yul\":4217:4232   */\n      revert\n        /* \"#utility.yul\":4244:4424   */\n    tag_33:\n        /* \"#utility.yul\":4292:4369   */\n      0x4e487b7100000000000000000000000000000000000000000000000000000000\n        /* \"#utility.yul\":4289:4290   */\n      0x00\n        /* \"#utility.yul\":4282:4370   */\n      mstore\n        /* \"#utility.yul\":4389:4393   */\n      0x32\n        /* \"#utility.yul\":4386:4387   */\n      0x04\n        /* \"#utility.yul\":4379:4394   */\n      mstore\n        /* \"#utility.yul\":4413:4417   */\n      0x24\n        /* \"#utility.yul\":4410:4411   */\n      0x00\n        /* \"#utility.yul\":4403:4418   */\n      revert\n        /* \"#utility.yul\":4430:4532   */\n    tag_75:\n        /* \"#utility.yul\":4471:4477   */\n      0x00\n        /* \"#utility.yul\":4522:4524   */\n      0x1f\n        /* \"#utility.yul\":4518:4525   */\n      not\n        /* \"#utility.yul\":4513:4515   */\n      0x1f\n        /* \"#utility.yul\":4506:4511   */\n      dup4\n        /* \"#utility.yul\":4502:4516   */\n      add\n        /* \"#utility.yul\":4498:4526   */\n      and\n        /* \"#utility.yul\":4488:4526   */\n      swap1\n      pop\n        /* \"#utility.yul\":4430:4532   */\n      swap2\n      swap1\n      pop\n      jump\t// out\n\n    auxdata: 0xa264697066735822122006ff718c0428210fb163976313328640d9bea70ff0a71d92036f4268d5a693c364736f6c63430008070033\n}\n",
				"bytecode": {
					"linkReferences": {},
					"object": "608060405234801561001057600080fd5b506040518060400160405280600681526020017f73756c61626800000000000000000000000000000000000000000000000000008152506000908051906020019061005c929190610062565b50610166565b82805461006e90610105565b90600052602060002090601f01602090048101928261009057600085556100d7565b82601f106100a957805160ff19168380011785556100d7565b828001600101855582156100d7579182015b828111156100d65782518255916020019190600101906100bb565b5b5090506100e491906100e8565b5090565b5b808211156101015760008160009055506001016100e9565b5090565b6000600282049050600182168061011d57607f821691505b6020821081141561013157610130610137565b5b50919050565b7f4e487b7100000000000000000000000000000000000000000000000000000000600052602260045260246000fd5b610613806101756000396000f3fe608060405234801561001057600080fd5b506004361061004c5760003560e01c80637d60de2d14610051578063a0b743151461006f578063a4081e161461008d578063bb7302bf146100ab575b600080fd5b6100596100c9565b60405161006691906103de565b60405180910390f35b610077610172565b604051610084919061041b565b60405180910390f35b610095610204565b6040516100a2919061043d565b60405180910390f35b6100b36102a4565b6040516100c091906103f9565b60405180910390f35b6000806000905060016100da610204565b6100e49190610490565b81101561016d577f71000000000000000000000000000000000000000000000000000000000000006101146102a4565b82815181106101265761012561059d565b5b602001015160f81c60f81b7effffffffffffffffffffffffffffffffffffffffffffffffffffffffffffff1916141561016357600191505061016f565b600091505061016f565b505b90565b6060600080546101819061050d565b80601f01602080910402602001604051908101604052809291908181526020018280546101ad9061050d565b80156101fa5780601f106101cf576101008083540402835291602001916101fa565b820191906000526020600020905b8154815290600101906020018083116101dd57829003601f168201915b5050505050905090565b60008061029a600080546102179061050d565b80601f01602080910402602001604051908101604052809291908181526020018280546102439061050d565b80156102905780601f1061026557610100808354040283529160200191610290565b820191906000526020600020905b81548152906001019060200180831161027357829003601f168201915b5050505050610344565b5190508091505090565b6060600061033b600080546102b89061050d565b80601f01602080910402602001604051908101604052809291908181526020018280546102e49061050d565b80156103315780601f1061030657610100808354040283529160200191610331565b820191906000526020600020905b81548152906001019060200180831161031457829003601f168201915b5050505050610344565b90508091505090565b6060819050919050565b610357816104c4565b82525050565b600061036882610458565b610372818561046e565b93506103828185602086016104da565b61038b816105cc565b840191505092915050565b60006103a182610463565b6103ab818561047f565b93506103bb8185602086016104da565b6103c4816105cc565b840191505092915050565b6103d8816104d0565b82525050565b60006020820190506103f3600083018461034e565b92915050565b60006020820190508181036000830152610413818461035d565b905092915050565b600060208201905081810360008301526104358184610396565b905092915050565b600060208201905061045260008301846103cf565b92915050565b600081519050919050565b600081519050919050565b600082825260208201905092915050565b600082825260208201905092915050565b600061049b826104d0565b91506104a6836104d0565b9250828210156104b9576104b861053f565b5b828203905092915050565b60008115159050919050565b6000819050919050565b60005b838110156104f85780820151818401526020810190506104dd565b83811115610507576000848401525b50505050565b6000600282049050600182168061052557607f821691505b602082108114156105395761053861056e565b5b50919050565b7f4e487b7100000000000000000000000000000000000000000000000000000000600052601160045260246000fd5b7f4e487b7100000000000000000000000000000000000000000000000000000000600052602260045260246000fd5b7f4e487b7100000000000000000000000000000000000000000000000000000000600052603260045260246000fd5b6000601f19601f830116905091905056fea264697066735822122006ff718c0428210fb163976313328640d9bea70ff0a71d92036f4268d5a693c364736f6c63430008070033",
					"opcodes": "PUSH1 0x80 PUSH1 0x40 MSTORE CALLVALUE DUP1 ISZERO PUSH2 0x10 JUMPI PUSH1 0x0 DUP1 REVERT JUMPDEST POP PUSH1 0x40 MLOAD DUP1 PUSH1 0x40 ADD PUSH1 0x40 MSTORE DUP1 PUSH1 0x6 DUP2 MSTORE PUSH1 0x20 ADD PUSH32 0x73756C6162680000000000000000000000000000000000000000000000000000 DUP2 MSTORE POP PUSH1 0x0 SWAP1 DUP1 MLOAD SWAP1 PUSH1 0x20 ADD SWAP1 PUSH2 0x5C SWAP3 SWAP2 SWAP1 PUSH2 0x62 JUMP JUMPDEST POP PUSH2 0x166 JUMP JUMPDEST DUP3 DUP1 SLOAD PUSH2 0x6E SWAP1 PUSH2 0x105 JUMP JUMPDEST SWAP1 PUSH1 0x0 MSTORE PUSH1 0x20 PUSH1 0x0 KECCAK256 SWAP1 PUSH1 0x1F ADD PUSH1 0x20 SWAP1 DIV DUP2 ADD SWAP3 DUP3 PUSH2 0x90 JUMPI PUSH1 0x0 DUP6 SSTORE PUSH2 0xD7 JUMP JUMPDEST DUP3 PUSH1 0x1F LT PUSH2 0xA9 JUMPI DUP1 MLOAD PUSH1 0xFF NOT AND DUP4 DUP1 ADD OR DUP6 SSTORE PUSH2 0xD7 JUMP JUMPDEST DUP3 DUP1 ADD PUSH1 0x1 ADD DUP6 SSTORE DUP3 ISZERO PUSH2 0xD7 JUMPI SWAP2 DUP3 ADD JUMPDEST DUP3 DUP2 GT ISZERO PUSH2 0xD6 JUMPI DUP3 MLOAD DUP3 SSTORE SWAP2 PUSH1 0x20 ADD SWAP2 SWAP1 PUSH1 0x1 ADD SWAP1 PUSH2 0xBB JUMP JUMPDEST JUMPDEST POP SWAP1 POP PUSH2 0xE4 SWAP2 SWAP1 PUSH2 0xE8 JUMP JUMPDEST POP SWAP1 JUMP JUMPDEST JUMPDEST DUP1 DUP3 GT ISZERO PUSH2 0x101 JUMPI PUSH1 0x0 DUP2 PUSH1 0x0 SWAP1 SSTORE POP PUSH1 0x1 ADD PUSH2 0xE9 JUMP JUMPDEST POP SWAP1 JUMP JUMPDEST PUSH1 0x0 PUSH1 0x2 DUP3 DIV SWAP1 POP PUSH1 0x1 DUP3 AND DUP1 PUSH2 0x11D JUMPI PUSH1 0x7F DUP3 AND SWAP2 POP JUMPDEST PUSH1 0x20 DUP3 LT DUP2 EQ ISZERO PUSH2 0x131 JUMPI PUSH2 0x130 PUSH2 0x137 JUMP JUMPDEST JUMPDEST POP SWAP2 SWAP1 POP JUMP JUMPDEST PUSH32 0x4E487B7100000000000000000000000000000000000000000000000000000000 PUSH1 0x0 MSTORE PUSH1 0x22 PUSH1 0x4 MSTORE PUSH1 0x24 PUSH1 0x0 REVERT JUMPDEST PUSH2 0x613 DUP1 PUSH2 0x175 PUSH1 0x0 CODECOPY PUSH1 0x0 RETURN INVALID PUSH1 0x80 PUSH1 0x40 MSTORE CALLVALUE DUP1 ISZERO PUSH2 0x10 JUMPI PUSH1 0x0 DUP1 REVERT JUMPDEST POP PUSH1 0x4 CALLDATASIZE LT PUSH2 0x4C JUMPI PUSH1 0x0 CALLDATALOAD PUSH1 0xE0 SHR DUP1 PUSH4 0x7D60DE2D EQ PUSH2 0x51 JUMPI DUP1 PUSH4 0xA0B74315 EQ PUSH2 0x6F JUMPI DUP1 PUSH4 0xA4081E16 EQ PUSH2 0x8D JUMPI DUP1 PUSH4 0xBB7302BF EQ PUSH2 0xAB JUMPI JUMPDEST PUSH1 0x0 DUP1 REVERT JUMPDEST PUSH2 0x59 PUSH2 0xC9 JUMP JUMPDEST PUSH1 0x40 MLOAD PUSH2 0x66 SWAP2 SWAP1 PUSH2 0x3DE JUMP JUMPDEST PUSH1 0x40 MLOAD DUP1 SWAP2 SUB SWAP1 RETURN JUMPDEST PUSH2 0x77 PUSH2 0x172 JUMP JUMPDEST PUSH1 0x40 MLOAD PUSH2 0x84 SWAP2 SWAP1 PUSH2 0x41B JUMP JUMPDEST PUSH1 0x40 MLOAD DUP1 SWAP2 SUB SWAP1 RETURN JUMPDEST PUSH2 0x95 PUSH2 0x204 JUMP JUMPDEST PUSH1 0x40 MLOAD PUSH2 0xA2 SWAP2 SWAP1 PUSH2 0x43D JUMP JUMPDEST PUSH1 0x40 MLOAD DUP1 SWAP2 SUB SWAP1 RETURN JUMPDEST PUSH2 0xB3 PUSH2 0x2A4 JUMP JUMPDEST PUSH1 0x40 MLOAD PUSH2 0xC0 SWAP2 SWAP1 PUSH2 0x3F9 JUMP JUMPDEST PUSH1 0x40 MLOAD DUP1 SWAP2 SUB SWAP1 RETURN JUMPDEST PUSH1 0x0 DUP1 PUSH1 0x0 SWAP1 POP PUSH1 0x1 PUSH2 0xDA PUSH2 0x204 JUMP JUMPDEST PUSH2 0xE4 SWAP2 SWAP1 PUSH2 0x490 JUMP JUMPDEST DUP2 LT ISZERO PUSH2 0x16D JUMPI PUSH32 0x7100000000000000000000000000000000000000000000000000000000000000 PUSH2 0x114 PUSH2 0x2A4 JUMP JUMPDEST DUP3 DUP2 MLOAD DUP2 LT PUSH2 0x126 JUMPI PUSH2 0x125 PUSH2 0x59D JUMP JUMPDEST JUMPDEST PUSH1 0x20 ADD ADD MLOAD PUSH1 0xF8 SHR PUSH1 0xF8 SHL PUSH31 0xFFFFFFFFFFFFFFFFFFFFFFFFFFFFFFFFFFFFFFFFFFFFFFFFFFFFFFFFFFFFFF NOT AND EQ ISZERO PUSH2 0x163 JUMPI PUSH1 0x1 SWAP2 POP POP PUSH2 0x16F JUMP JUMPDEST PUSH1 0x0 SWAP2 POP POP PUSH2 0x16F JUMP JUMPDEST POP JUMPDEST SWAP1 JUMP JUMPDEST PUSH1 0x60 PUSH1 0x0 DUP1 SLOAD PUSH2 0x181 SWAP1 PUSH2 0x50D JUMP JUMPDEST DUP1 PUSH1 0x1F ADD PUSH1 0x20 DUP1 SWAP2 DIV MUL PUSH1 0x20 ADD PUSH1 0x40 MLOAD SWAP1 DUP2 ADD PUSH1 0x40 MSTORE DUP1 SWAP3 SWAP2 SWAP1 DUP2 DUP2 MSTORE PUSH1 0x20 ADD DUP3 DUP1 SLOAD PUSH2 0x1AD SWAP1 PUSH2 0x50D JUMP JUMPDEST DUP1 ISZERO PUSH2 0x1FA JUMPI DUP1 PUSH1 0x1F LT PUSH2 0x1CF JUMPI PUSH2 0x100 DUP1 DUP4 SLOAD DIV MUL DUP4 MSTORE SWAP2 PUSH1 0x20 ADD SWAP2 PUSH2 0x1FA JUMP JUMPDEST DUP3 ADD SWAP2 SWAP1 PUSH1 0x0 MSTORE PUSH1 0x20 PUSH1 0x0 KECCAK256 SWAP1 JUMPDEST DUP2 SLOAD DUP2 MSTORE SWAP1 PUSH1 0x1 ADD SWAP1 PUSH1 0x20 ADD DUP1 DUP4 GT PUSH2 0x1DD JUMPI DUP3 SWAP1 SUB PUSH1 0x1F AND DUP3 ADD SWAP2 JUMPDEST POP POP POP POP POP SWAP1 POP SWAP1 JUMP JUMPDEST PUSH1 0x0 DUP1 PUSH2 0x29A PUSH1 0x0 DUP1 SLOAD PUSH2 0x217 SWAP1 PUSH2 0x50D JUMP JUMPDEST DUP1 PUSH1 0x1F ADD PUSH1 0x20 DUP1 SWAP2 DIV MUL PUSH1 0x20 ADD PUSH1 0x40 MLOAD SWAP1 DUP2 ADD PUSH1 0x40 MSTORE DUP1 SWAP3 SWAP2 SWAP1 DUP2 DUP2 MSTORE PUSH1 0x20 ADD DUP3 DUP1 SLOAD PUSH2 0x243 SWAP1 PUSH2 0x50D JUMP JUMPDEST DUP1 ISZERO PUSH2 0x290 JUMPI DUP1 PUSH1 0x1F LT PUSH2 0x265 JUMPI PUSH2 0x100 DUP1 DUP4 SLOAD DIV MUL DUP4 MSTORE SWAP2 PUSH1 0x20 ADD SWAP2 PUSH2 0x290 JUMP JUMPDEST DUP3 ADD SWAP2 SWAP1 PUSH1 0x0 MSTORE PUSH1 0x20 PUSH1 0x0 KECCAK256 SWAP1 JUMPDEST DUP2 SLOAD DUP2 MSTORE SWAP1 PUSH1 0x1 ADD SWAP1 PUSH1 0x20 ADD DUP1 DUP4 GT PUSH2 0x273 JUMPI DUP3 SWAP1 SUB PUSH1 0x1F AND DUP3 ADD SWAP2 JUMPDEST POP POP POP POP POP PUSH2 0x344 JUMP JUMPDEST MLOAD SWAP1 POP DUP1 SWAP2 POP POP SWAP1 JUMP JUMPDEST PUSH1 0x60 PUSH1 0x0 PUSH2 0x33B PUSH1 0x0 DUP1 SLOAD PUSH2 0x2B8 SWAP1 PUSH2 0x50D JUMP JUMPDEST DUP1 PUSH1 0x1F ADD PUSH1 0x20 DUP1 SWAP2 DIV MUL PUSH1 0x20 ADD PUSH1 0x40 MLOAD SWAP1 DUP2 ADD PUSH1 0x40 MSTORE DUP1 SWAP3 SWAP2 SWAP1 DUP2 DUP2 MSTORE PUSH1 0x20 ADD DUP3 DUP1 SLOAD PUSH2 0x2E4 SWAP1 PUSH2 0x50D JUMP JUMPDEST DUP1 ISZERO PUSH2 0x331 JUMPI DUP1 PUSH1 0x1F LT PUSH2 0x306 JUMPI PUSH2 0x100 DUP1 DUP4 SLOAD DIV MUL DUP4 MSTORE SWAP2 PUSH1 0x20 ADD SWAP2 PUSH2 0x331 JUMP JUMPDEST DUP3 ADD SWAP2 SWAP1 PUSH1 0x0 MSTORE PUSH1 0x20 PUSH1 0x0 KECCAK256 SWAP1 JUMPDEST DUP2 SLOAD DUP2 MSTORE SWAP1 PUSH1 0x1 ADD SWAP1 PUSH1 0x20 ADD DUP1 DUP4 GT PUSH2 0x314 JUMPI DUP3 SWAP1 SUB PUSH1 0x1F AND DUP3 ADD SWAP2 JUMPDEST POP POP POP POP POP PUSH2 0x344 JUMP JUMPDEST SWAP1 POP DUP1 SWAP2 POP POP SWAP1 JUMP JUMPDEST PUSH1 0x60 DUP2 SWAP1 POP SWAP2 SWAP1 POP JUMP JUMPDEST PUSH2 0x357 DUP2 PUSH2 0x4C4 JUMP JUMPDEST DUP3 MSTORE POP POP JUMP JUMPDEST PUSH1 0x0 PUSH2 0x368 DUP3 PUSH2 0x458 JUMP JUMPDEST PUSH2 0x372 DUP2 DUP6 PUSH2 0x46E JUMP JUMPDEST SWAP4 POP PUSH2 0x382 DUP2 DUP6 PUSH1 0x20 DUP7 ADD PUSH2 0x4DA JUMP JUMPDEST PUSH2 0x38B DUP2 PUSH2 0x5CC JUMP JUMPDEST DUP5 ADD SWAP2 POP POP SWAP3 SWAP2 POP POP JUMP JUMPDEST PUSH1 0x0 PUSH2 0x3A1 DUP3 PUSH2 0x463 JUMP JUMPDEST PUSH2 0x3AB DUP2 DUP6 PUSH2 0x47F JUMP JUMPDEST SWAP4 POP PUSH2 0x3BB DUP2 DUP6 PUSH1 0x20 DUP7 ADD PUSH2 0x4DA JUMP JUMPDEST PUSH2 0x3C4 DUP2 PUSH2 0x5CC JUMP JUMPDEST DUP5 ADD SWAP2 POP POP SWAP3 SWAP2 POP POP JUMP JUMPDEST PUSH2 0x3D8 DUP2 PUSH2 0x4D0 JUMP JUMPDEST DUP3 MSTORE POP POP JUMP JUMPDEST PUSH1 0x0 PUSH1 0x20 DUP3 ADD SWAP1 POP PUSH2 0x3F3 PUSH1 0x0 DUP4 ADD DUP5 PUSH2 0x34E JUMP JUMPDEST SWAP3 SWAP2 POP POP JUMP JUMPDEST PUSH1 0x0 PUSH1 0x20 DUP3 ADD SWAP1 POP DUP2 DUP2 SUB PUSH1 0x0 DUP4 ADD MSTORE PUSH2 0x413 DUP2 DUP5 PUSH2 0x35D JUMP JUMPDEST SWAP1 POP SWAP3 SWAP2 POP POP JUMP JUMPDEST PUSH1 0x0 PUSH1 0x20 DUP3 ADD SWAP1 POP DUP2 DUP2 SUB PUSH1 0x0 DUP4 ADD MSTORE PUSH2 0x435 DUP2 DUP5 PUSH2 0x396 JUMP JUMPDEST SWAP1 POP SWAP3 SWAP2 POP POP JUMP JUMPDEST PUSH1 0x0 PUSH1 0x20 DUP3 ADD SWAP1 POP PUSH2 0x452 PUSH1 0x0 DUP4 ADD DUP5 PUSH2 0x3CF JUMP JUMPDEST SWAP3 SWAP2 POP POP JUMP JUMPDEST PUSH1 0x0 DUP2 MLOAD SWAP1 POP SWAP2 SWAP1 POP JUMP JUMPDEST PUSH1 0x0 DUP2 MLOAD SWAP1 POP SWAP2 SWAP1 POP JUMP JUMPDEST PUSH1 0x0 DUP3 DUP3 MSTORE PUSH1 0x20 DUP3 ADD SWAP1 POP SWAP3 SWAP2 POP POP JUMP JUMPDEST PUSH1 0x0 DUP3 DUP3 MSTORE PUSH1 0x20 DUP3 ADD SWAP1 POP SWAP3 SWAP2 POP POP JUMP JUMPDEST PUSH1 0x0 PUSH2 0x49B DUP3 PUSH2 0x4D0 JUMP JUMPDEST SWAP2 POP PUSH2 0x4A6 DUP4 PUSH2 0x4D0 JUMP JUMPDEST SWAP3 POP DUP3 DUP3 LT ISZERO PUSH2 0x4B9 JUMPI PUSH2 0x4B8 PUSH2 0x53F JUMP JUMPDEST JUMPDEST DUP3 DUP3 SUB SWAP1 POP SWAP3 SWAP2 POP POP JUMP JUMPDEST PUSH1 0x0 DUP2 ISZERO ISZERO SWAP1 POP SWAP2 SWAP1 POP JUMP JUMPDEST PUSH1 0x0 DUP2 SWAP1 POP SWAP2 SWAP1 POP JUMP JUMPDEST PUSH1 0x0 JUMPDEST DUP4 DUP2 LT ISZERO PUSH2 0x4F8 JUMPI DUP1 DUP3 ADD MLOAD DUP2 DUP5 ADD MSTORE PUSH1 0x20 DUP2 ADD SWAP1 POP PUSH2 0x4DD JUMP JUMPDEST DUP4 DUP2 GT ISZERO PUSH2 0x507 JUMPI PUSH1 0x0 DUP5 DUP5 ADD MSTORE JUMPDEST POP POP POP POP JUMP JUMPDEST PUSH1 0x0 PUSH1 0x2 DUP3 DIV SWAP1 POP PUSH1 0x1 DUP3 AND DUP1 PUSH2 0x525 JUMPI PUSH1 0x7F DUP3 AND SWAP2 POP JUMPDEST PUSH1 0x20 DUP3 LT DUP2 EQ ISZERO PUSH2 0x539 JUMPI PUSH2 0x538 PUSH2 0x56E JUMP JUMPDEST JUMPDEST POP SWAP2 SWAP1 POP JUMP JUMPDEST PUSH32 0x4E487B7100000000000000000000000000000000000000000000000000000000 PUSH1 0x0 MSTORE PUSH1 0x11 PUSH1 0x4 MSTORE PUSH1 0x24 PUSH1 0x0 REVERT JUMPDEST PUSH32 0x4E487B7100000000000000000000000000000000000000000000000000000000 PUSH1 0x0 MSTORE PUSH1 0x22 PUSH1 0x4 MSTORE PUSH1 0x24 PUSH1 0x0 REVERT JUMPDEST PUSH32 0x4E487B7100000000000000000000000000000000000000000000000000000000 PUSH1 0x0 MSTORE PUSH1 0x32 PUSH1 0x4 MSTORE PUSH1 0x24 PUSH1 0x0 REVERT JUMPDEST PUSH1 0x0 PUSH1 0x1F NOT PUSH1 0x1F DUP4 ADD AND SWAP1 POP SWAP2 SWAP1 POP JUMP INVALID LOG2 PUSH5 0x6970667358 0x22 SLT KECCAK256 MOD SELFDESTRUCT PUSH18 0x8C0428210FB163976313328640D9BEA70FF0 0xA7 SAR SWAP3 SUB PUSH16 0x4268D5A693C364736F6C634300080700 CALLER "
				},
				"gasEstimates": {
					"creation": {
						"codeDepositCost": "311000",
						"executionCost": "infinite",
						"totalCost": "infinite"
					},
					"external": {
						"loopingStr()": "infinite",
						"returbyte()": "infinite",
						"returnLength()": "infinite",
						"returnStr()": "infinite"
					},
					"internal": {
						"strToByte(string memory)": "28"
					}
				},
				"methodIdentifiers": {
					"loopingStr()": "7d60de2d",
					"returbyte()": "bb7302bf",
					"returnLength()": "a4081e16",
					"returnStr()": "a0b74315"
				}
			},
			"storageLayout": {
				"storage": [
					{
						"astId": 3,
						"contract": "solidity practice/byte.sol:ByteImplementation",
						"label": "firstName",
						"offset": 0,
						"slot": "0",
						"type": "t_string_storage"
					}
				],
				"types": {
					"t_string_storage": {
						"encoding": "bytes",
						"label": "string",
						"numberOfBytes": "32"
					}
				}
			},
			"userdoc": {
				"kind": "user",
				"methods": {},
				"version": 1
			}
		}
	}
}