{
	"solidity practice/inheritance.sol": {
		"AnotherSchool": {
			"abi": [
				{
					"inputs": [
						{
							"internalType": "uint256",
							"name": "a",
							"type": "uint256"
						},
						{
							"internalType": "string",
							"name": "n",
							"type": "string"
						},
						{
							"internalType": "uint256",
							"name": "r",
							"type": "uint256"
						},
						{
							"internalType": "uint256",
							"name": "g",
							"type": "uint256"
						}
					],
					"stateMutability": "nonpayable",
					"type": "constructor"
				},
				{
					"inputs": [],
					"name": "admissionVerificationRequirment",
					"outputs": [
						{
							"internalType": "string",
							"name": "",
							"type": "string"
						}
					],
					"stateMutability": "view",
					"type": "function"
				},
				{
					"inputs": [],
					"name": "returnAge",
					"outputs": [
						{
							"internalType": "uint256",
							"name": "",
							"type": "uint256"
						}
					],
					"stateMutability": "view",
					"type": "function"
				},
				{
					"inputs": [],
					"name": "returnGrade",
					"outputs": [
						{
							"internalType": "uint256",
							"name": "",
							"type": "uint256"
						}
					],
					"stateMutability": "view",
					"type": "function"
				},
				{
					"inputs": [],
					"name": "returnName",
					"outputs": [
						{
							"internalType": "string",
							"name": "",
							"type": "string"
						}
					],
					"stateMutability": "view",
					"type": "function"
				},
				{
					"inputs": [],
					"name": "returnRollNo",
					"outputs": [
						{
							"internalType": "uint256",
							"name": "",
							"type": "uint256"
						}
					],
					"stateMutability": "view",
					"type": "function"
				},
				{
					"inputs": [],
					"name": "verifyAdmission",
					"outputs": [
						{
							"internalType": "string",
							"name": "",
							"type": "string"
						}
					],
					"stateMutability": "view",
					"type": "function"
				}
			],
			"devdoc": {
				"kind": "dev",
				"methods": {},
				"version": 1
			},
			"evm": {
				"assembly": "    /* \"solidity practice/inheritance.sol\":921:2051  contract AnotherSchool is Student{... */\n  mstore(0x40, 0x80)\n    /* \"solidity practice/inheritance.sol\":1036:1194  constructor(uint a, string memory n, uint r, uint g) Student(a, n, r, g){... */\n  callvalue\n  dup1\n  iszero\n  tag_1\n  jumpi\n  0x00\n  dup1\n  revert\ntag_1:\n  pop\n  mload(0x40)\n  sub(codesize, bytecodeSize)\n  dup1\n  bytecodeSize\n  dup4\n  codecopy\n  dup2\n  dup2\n  add\n  0x40\n  mstore\n  dup2\n  add\n  swap1\n  tag_2\n  swap2\n  swap1\n  tag_3\n  jump\t// in\ntag_2:\n    /* \"solidity practice/inheritance.sol\":1097:1098  a */\n  dup4\n    /* \"solidity practice/inheritance.sol\":1100:1101  n */\n  dup4\n    /* \"solidity practice/inheritance.sol\":1103:1104  r */\n  dup4\n    /* \"solidity practice/inheritance.sol\":1106:1107  g */\n  dup4\n    /* \"solidity practice/inheritance.sol\":238:242  _age */\n  dup4\n    /* \"solidity practice/inheritance.sol\":234:237  age */\n  0x00\n    /* \"solidity practice/inheritance.sol\":234:242  age=_age */\n  dup2\n  swap1\n  sstore\n  pop\n    /* \"solidity practice/inheritance.sol\":257:262  _name */\n  dup3\n    /* \"solidity practice/inheritance.sol\":252:256  name */\n  0x01\n    /* \"solidity practice/inheritance.sol\":252:262  name=_name */\n  swap1\n  dup1\n  mload\n  swap1\n  0x20\n  add\n  swap1\n  tag_7\n  swap3\n  swap2\n  swap1\n  tag_8\n  jump\t// in\ntag_7:\n  pop\n    /* \"solidity practice/inheritance.sol\":279:286  _rollNo */\n  dup2\n    /* \"solidity practice/inheritance.sol\":272:278  rollNo */\n  0x02\n    /* \"solidity practice/inheritance.sol\":272:286  rollNo=_rollNo */\n  dup2\n  swap1\n  sstore\n  pop\n    /* \"solidity practice/inheritance.sol\":302:308  _grade */\n  dup1\n    /* \"solidity practice/inheritance.sol\":296:301  grade */\n  0x03\n    /* \"solidity practice/inheritance.sol\":296:308  grade=_grade */\n  dup2\n  swap1\n  sstore\n  pop\n    /* \"solidity practice/inheritance.sol\":154:315  constructor(uint _age, string memory _name, uint _rollNo, uint _grade){... */\n  pop\n  pop\n  pop\n  pop\n    /* \"solidity practice/inheritance.sol\":1124:1125  a */\n  dup4\n    /* \"solidity practice/inheritance.sol\":1118:1123  __age */\n  0x04\n    /* \"solidity practice/inheritance.sol\":1118:1125  __age=a */\n  dup2\n  swap1\n  sstore\n  pop\n    /* \"solidity practice/inheritance.sol\":1142:1143  n */\n  dup3\n    /* \"solidity practice/inheritance.sol\":1135:1141  __name */\n  0x05\n    /* \"solidity practice/inheritance.sol\":1135:1143  __name=n */\n  swap1\n  dup1\n  mload\n  swap1\n  0x20\n  add\n  swap1\n  tag_10\n  swap3\n  swap2\n  swap1\n  tag_8\n  jump\t// in\ntag_10:\n  pop\n    /* \"solidity practice/inheritance.sol\":1166:1167  r */\n  dup2\n    /* \"solidity practice/inheritance.sol\":1153:1165  __rollNumber */\n  0x06\n    /* \"solidity practice/inheritance.sol\":1153:1167  __rollNumber=r */\n  dup2\n  swap1\n  sstore\n  pop\n    /* \"solidity practice/inheritance.sol\":1185:1186  g */\n  dup1\n    /* \"solidity practice/inheritance.sol\":1177:1184  __grade */\n  0x07\n    /* \"solidity practice/inheritance.sol\":1177:1186  __grade=g */\n  dup2\n  swap1\n  sstore\n  pop\n    /* \"solidity practice/inheritance.sol\":1036:1194  constructor(uint a, string memory n, uint r, uint g) Student(a, n, r, g){... */\n  pop\n  pop\n  pop\n  pop\n    /* \"solidity practice/inheritance.sol\":921:2051  contract AnotherSchool is Student{... */\n  jump(tag_11)\ntag_8:\n  dup3\n  dup1\n  sload\n  tag_12\n  swap1\n  tag_13\n  jump\t// in\ntag_12:\n  swap1\n  0x00\n  mstore\n  keccak256(0x00, 0x20)\n  swap1\n  0x1f\n  add\n  0x20\n  swap1\n  div\n  dup2\n  add\n  swap3\n  dup3\n  tag_15\n  jumpi\n  0x00\n  dup6\n  sstore\n  jump(tag_14)\ntag_15:\n  dup3\n  0x1f\n  lt\n  tag_16\n  jumpi\n  dup1\n  mload\n  not(0xff)\n  and\n  dup4\n  dup1\n  add\n  or\n  dup6\n  sstore\n  jump(tag_14)\ntag_16:\n  dup3\n  dup1\n  add\n  0x01\n  add\n  dup6\n  sstore\n  dup3\n  iszero\n  tag_14\n  jumpi\n  swap2\n  dup3\n  add\ntag_17:\n  dup3\n  dup2\n  gt\n  iszero\n  tag_18\n  jumpi\n  dup3\n  mload\n  dup3\n  sstore\n  swap2\n  0x20\n  add\n  swap2\n  swap1\n  0x01\n  add\n  swap1\n  jump(tag_17)\ntag_18:\ntag_14:\n  pop\n  swap1\n  pop\n  tag_19\n  swap2\n  swap1\n  tag_20\n  jump\t// in\ntag_19:\n  pop\n  swap1\n  jump\t// out\ntag_20:\ntag_21:\n  dup1\n  dup3\n  gt\n  iszero\n  tag_22\n  jumpi\n  0x00\n  dup2\n  0x00\n  swap1\n  sstore\n  pop\n  0x01\n  add\n  jump(tag_21)\ntag_22:\n  pop\n  swap1\n  jump\t// out\n    /* \"#utility.yul\":7:428   */\ntag_24:\n    /* \"#utility.yul\":96:101   */\n  0x00\n    /* \"#utility.yul\":121:187   */\n  tag_26\n    /* \"#utility.yul\":137:186   */\n  tag_27\n    /* \"#utility.yul\":179:185   */\n  dup5\n    /* \"#utility.yul\":137:186   */\n  tag_28\n  jump\t// in\ntag_27:\n    /* \"#utility.yul\":121:187   */\n  tag_29\n  jump\t// in\ntag_26:\n    /* \"#utility.yul\":112:187   */\n  swap1\n  pop\n    /* \"#utility.yul\":210:216   */\n  dup3\n    /* \"#utility.yul\":203:208   */\n  dup2\n    /* \"#utility.yul\":196:217   */\n  mstore\n    /* \"#utility.yul\":248:252   */\n  0x20\n    /* \"#utility.yul\":241:246   */\n  dup2\n    /* \"#utility.yul\":237:253   */\n  add\n    /* \"#utility.yul\":286:289   */\n  dup5\n    /* \"#utility.yul\":277:283   */\n  dup5\n    /* \"#utility.yul\":272:275   */\n  dup5\n    /* \"#utility.yul\":268:284   */\n  add\n    /* \"#utility.yul\":265:290   */\n  gt\n    /* \"#utility.yul\":262:374   */\n  iszero\n  tag_30\n  jumpi\n    /* \"#utility.yul\":293:372   */\n  tag_31\n  tag_32\n  jump\t// in\ntag_31:\n    /* \"#utility.yul\":262:374   */\ntag_30:\n    /* \"#utility.yul\":383:422   */\n  tag_33\n    /* \"#utility.yul\":415:421   */\n  dup5\n    /* \"#utility.yul\":410:413   */\n  dup3\n    /* \"#utility.yul\":405:408   */\n  dup6\n    /* \"#utility.yul\":383:422   */\n  tag_34\n  jump\t// in\ntag_33:\n    /* \"#utility.yul\":102:428   */\n  pop\n    /* \"#utility.yul\":7:428   */\n  swap4\n  swap3\n  pop\n  pop\n  pop\n  jump\t// out\n    /* \"#utility.yul\":448:803   */\ntag_35:\n    /* \"#utility.yul\":515:520   */\n  0x00\n    /* \"#utility.yul\":564:567   */\n  dup3\n    /* \"#utility.yul\":557:561   */\n  0x1f\n    /* \"#utility.yul\":549:555   */\n  dup4\n    /* \"#utility.yul\":545:562   */\n  add\n    /* \"#utility.yul\":541:568   */\n  slt\n    /* \"#utility.yul\":531:653   */\n  tag_37\n  jumpi\n    /* \"#utility.yul\":572:651   */\n  tag_38\n  tag_39\n  jump\t// in\ntag_38:\n    /* \"#utility.yul\":531:653   */\ntag_37:\n    /* \"#utility.yul\":682:688   */\n  dup2\n    /* \"#utility.yul\":676:689   */\n  mload\n    /* \"#utility.yul\":707:797   */\n  tag_40\n    /* \"#utility.yul\":793:796   */\n  dup5\n    /* \"#utility.yul\":785:791   */\n  dup3\n    /* \"#utility.yul\":778:782   */\n  0x20\n    /* \"#utility.yul\":770:776   */\n  dup7\n    /* \"#utility.yul\":766:783   */\n  add\n    /* \"#utility.yul\":707:797   */\n  tag_24\n  jump\t// in\ntag_40:\n    /* \"#utility.yul\":698:797   */\n  swap2\n  pop\n    /* \"#utility.yul\":521:803   */\n  pop\n    /* \"#utility.yul\":448:803   */\n  swap3\n  swap2\n  pop\n  pop\n  jump\t// out\n    /* \"#utility.yul\":809:952   */\ntag_41:\n    /* \"#utility.yul\":866:871   */\n  0x00\n    /* \"#utility.yul\":897:903   */\n  dup2\n    /* \"#utility.yul\":891:904   */\n  mload\n    /* \"#utility.yul\":882:904   */\n  swap1\n  pop\n    /* \"#utility.yul\":913:946   */\n  tag_43\n    /* \"#utility.yul\":940:945   */\n  dup2\n    /* \"#utility.yul\":913:946   */\n  tag_44\n  jump\t// in\ntag_43:\n    /* \"#utility.yul\":809:952   */\n  swap3\n  swap2\n  pop\n  pop\n  jump\t// out\n    /* \"#utility.yul\":958:1951   */\ntag_3:\n    /* \"#utility.yul\":1065:1071   */\n  0x00\n    /* \"#utility.yul\":1073:1079   */\n  dup1\n    /* \"#utility.yul\":1081:1087   */\n  0x00\n    /* \"#utility.yul\":1089:1095   */\n  dup1\n    /* \"#utility.yul\":1138:1141   */\n  0x80\n    /* \"#utility.yul\":1126:1135   */\n  dup6\n    /* \"#utility.yul\":1117:1124   */\n  dup8\n    /* \"#utility.yul\":1113:1136   */\n  sub\n    /* \"#utility.yul\":1109:1142   */\n  slt\n    /* \"#utility.yul\":1106:1226   */\n  iszero\n  tag_46\n  jumpi\n    /* \"#utility.yul\":1145:1224   */\n  tag_47\n  tag_48\n  jump\t// in\ntag_47:\n    /* \"#utility.yul\":1106:1226   */\ntag_46:\n    /* \"#utility.yul\":1265:1266   */\n  0x00\n    /* \"#utility.yul\":1290:1354   */\n  tag_49\n    /* \"#utility.yul\":1346:1353   */\n  dup8\n    /* \"#utility.yul\":1337:1343   */\n  dup3\n    /* \"#utility.yul\":1326:1335   */\n  dup9\n    /* \"#utility.yul\":1322:1344   */\n  add\n    /* \"#utility.yul\":1290:1354   */\n  tag_41\n  jump\t// in\ntag_49:\n    /* \"#utility.yul\":1280:1354   */\n  swap5\n  pop\n    /* \"#utility.yul\":1236:1364   */\n  pop\n    /* \"#utility.yul\":1424:1426   */\n  0x20\n    /* \"#utility.yul\":1413:1422   */\n  dup6\n    /* \"#utility.yul\":1409:1427   */\n  add\n    /* \"#utility.yul\":1403:1428   */\n  mload\n    /* \"#utility.yul\":1455:1473   */\n  0xffffffffffffffff\n    /* \"#utility.yul\":1447:1453   */\n  dup2\n    /* \"#utility.yul\":1444:1474   */\n  gt\n    /* \"#utility.yul\":1441:1558   */\n  iszero\n  tag_50\n  jumpi\n    /* \"#utility.yul\":1477:1556   */\n  tag_51\n  tag_52\n  jump\t// in\ntag_51:\n    /* \"#utility.yul\":1441:1558   */\ntag_50:\n    /* \"#utility.yul\":1582:1656   */\n  tag_53\n    /* \"#utility.yul\":1648:1655   */\n  dup8\n    /* \"#utility.yul\":1639:1645   */\n  dup3\n    /* \"#utility.yul\":1628:1637   */\n  dup9\n    /* \"#utility.yul\":1624:1646   */\n  add\n    /* \"#utility.yul\":1582:1656   */\n  tag_35\n  jump\t// in\ntag_53:\n    /* \"#utility.yul\":1572:1656   */\n  swap4\n  pop\n    /* \"#utility.yul\":1374:1666   */\n  pop\n    /* \"#utility.yul\":1705:1707   */\n  0x40\n    /* \"#utility.yul\":1731:1795   */\n  tag_54\n    /* \"#utility.yul\":1787:1794   */\n  dup8\n    /* \"#utility.yul\":1778:1784   */\n  dup3\n    /* \"#utility.yul\":1767:1776   */\n  dup9\n    /* \"#utility.yul\":1763:1785   */\n  add\n    /* \"#utility.yul\":1731:1795   */\n  tag_41\n  jump\t// in\ntag_54:\n    /* \"#utility.yul\":1721:1795   */\n  swap3\n  pop\n    /* \"#utility.yul\":1676:1805   */\n  pop\n    /* \"#utility.yul\":1844:1846   */\n  0x60\n    /* \"#utility.yul\":1870:1934   */\n  tag_55\n    /* \"#utility.yul\":1926:1933   */\n  dup8\n    /* \"#utility.yul\":1917:1923   */\n  dup3\n    /* \"#utility.yul\":1906:1915   */\n  dup9\n    /* \"#utility.yul\":1902:1924   */\n  add\n    /* \"#utility.yul\":1870:1934   */\n  tag_41\n  jump\t// in\ntag_55:\n    /* \"#utility.yul\":1860:1934   */\n  swap2\n  pop\n    /* \"#utility.yul\":1815:1944   */\n  pop\n    /* \"#utility.yul\":958:1951   */\n  swap3\n  swap6\n  swap2\n  swap5\n  pop\n  swap3\n  pop\n  jump\t// out\n    /* \"#utility.yul\":1957:2086   */\ntag_29:\n    /* \"#utility.yul\":1991:1997   */\n  0x00\n    /* \"#utility.yul\":2018:2038   */\n  tag_57\n  tag_58\n  jump\t// in\ntag_57:\n    /* \"#utility.yul\":2008:2038   */\n  swap1\n  pop\n    /* \"#utility.yul\":2047:2080   */\n  tag_59\n    /* \"#utility.yul\":2075:2079   */\n  dup3\n    /* \"#utility.yul\":2067:2073   */\n  dup3\n    /* \"#utility.yul\":2047:2080   */\n  tag_60\n  jump\t// in\ntag_59:\n    /* \"#utility.yul\":1957:2086   */\n  swap2\n  swap1\n  pop\n  jump\t// out\n    /* \"#utility.yul\":2092:2167   */\ntag_58:\n    /* \"#utility.yul\":2125:2131   */\n  0x00\n    /* \"#utility.yul\":2158:2160   */\n  0x40\n    /* \"#utility.yul\":2152:2161   */\n  mload\n    /* \"#utility.yul\":2142:2161   */\n  swap1\n  pop\n    /* \"#utility.yul\":2092:2167   */\n  swap1\n  jump\t// out\n    /* \"#utility.yul\":2173:2481   */\ntag_28:\n    /* \"#utility.yul\":2235:2239   */\n  0x00\n    /* \"#utility.yul\":2325:2343   */\n  0xffffffffffffffff\n    /* \"#utility.yul\":2317:2323   */\n  dup3\n    /* \"#utility.yul\":2314:2344   */\n  gt\n    /* \"#utility.yul\":2311:2367   */\n  iszero\n  tag_63\n  jumpi\n    /* \"#utility.yul\":2347:2365   */\n  tag_64\n  tag_65\n  jump\t// in\ntag_64:\n    /* \"#utility.yul\":2311:2367   */\ntag_63:\n    /* \"#utility.yul\":2385:2414   */\n  tag_66\n    /* \"#utility.yul\":2407:2413   */\n  dup3\n    /* \"#utility.yul\":2385:2414   */\n  tag_67\n  jump\t// in\ntag_66:\n    /* \"#utility.yul\":2377:2414   */\n  swap1\n  pop\n    /* \"#utility.yul\":2469:2473   */\n  0x20\n    /* \"#utility.yul\":2463:2467   */\n  dup2\n    /* \"#utility.yul\":2459:2474   */\n  add\n    /* \"#utility.yul\":2451:2474   */\n  swap1\n  pop\n    /* \"#utility.yul\":2173:2481   */\n  swap2\n  swap1\n  pop\n  jump\t// out\n    /* \"#utility.yul\":2487:2564   */\ntag_68:\n    /* \"#utility.yul\":2524:2531   */\n  0x00\n    /* \"#utility.yul\":2553:2558   */\n  dup2\n    /* \"#utility.yul\":2542:2558   */\n  swap1\n  pop\n    /* \"#utility.yul\":2487:2564   */\n  swap2\n  swap1\n  pop\n  jump\t// out\n    /* \"#utility.yul\":2570:2877   */\ntag_34:\n    /* \"#utility.yul\":2638:2639   */\n  0x00\n    /* \"#utility.yul\":2648:2761   */\ntag_71:\n    /* \"#utility.yul\":2662:2668   */\n  dup4\n    /* \"#utility.yul\":2659:2660   */\n  dup2\n    /* \"#utility.yul\":2656:2669   */\n  lt\n    /* \"#utility.yul\":2648:2761   */\n  iszero\n  tag_73\n  jumpi\n    /* \"#utility.yul\":2747:2748   */\n  dup1\n    /* \"#utility.yul\":2742:2745   */\n  dup3\n    /* \"#utility.yul\":2738:2749   */\n  add\n    /* \"#utility.yul\":2732:2750   */\n  mload\n    /* \"#utility.yul\":2728:2729   */\n  dup2\n    /* \"#utility.yul\":2723:2726   */\n  dup5\n    /* \"#utility.yul\":2719:2730   */\n  add\n    /* \"#utility.yul\":2712:2751   */\n  mstore\n    /* \"#utility.yul\":2684:2686   */\n  0x20\n    /* \"#utility.yul\":2681:2682   */\n  dup2\n    /* \"#utility.yul\":2677:2687   */\n  add\n    /* \"#utility.yul\":2672:2687   */\n  swap1\n  pop\n    /* \"#utility.yul\":2648:2761   */\n  jump(tag_71)\ntag_73:\n    /* \"#utility.yul\":2779:2785   */\n  dup4\n    /* \"#utility.yul\":2776:2777   */\n  dup2\n    /* \"#utility.yul\":2773:2786   */\n  gt\n    /* \"#utility.yul\":2770:2871   */\n  iszero\n  tag_74\n  jumpi\n    /* \"#utility.yul\":2859:2860   */\n  0x00\n    /* \"#utility.yul\":2850:2856   */\n  dup5\n    /* \"#utility.yul\":2845:2848   */\n  dup5\n    /* \"#utility.yul\":2841:2857   */\n  add\n    /* \"#utility.yul\":2834:2861   */\n  mstore\n    /* \"#utility.yul\":2770:2871   */\ntag_74:\n    /* \"#utility.yul\":2619:2877   */\n  pop\n    /* \"#utility.yul\":2570:2877   */\n  pop\n  pop\n  pop\n  jump\t// out\n    /* \"#utility.yul\":2883:3203   */\ntag_13:\n    /* \"#utility.yul\":2927:2933   */\n  0x00\n    /* \"#utility.yul\":2964:2965   */\n  0x02\n    /* \"#utility.yul\":2958:2962   */\n  dup3\n    /* \"#utility.yul\":2954:2966   */\n  div\n    /* \"#utility.yul\":2944:2966   */\n  swap1\n  pop\n    /* \"#utility.yul\":3011:3012   */\n  0x01\n    /* \"#utility.yul\":3005:3009   */\n  dup3\n    /* \"#utility.yul\":3001:3013   */\n  and\n    /* \"#utility.yul\":3032:3050   */\n  dup1\n    /* \"#utility.yul\":3022:3103   */\n  tag_76\n  jumpi\n    /* \"#utility.yul\":3088:3092   */\n  0x7f\n    /* \"#utility.yul\":3080:3086   */\n  dup3\n    /* \"#utility.yul\":3076:3093   */\n  and\n    /* \"#utility.yul\":3066:3093   */\n  swap2\n  pop\n    /* \"#utility.yul\":3022:3103   */\ntag_76:\n    /* \"#utility.yul\":3150:3152   */\n  0x20\n    /* \"#utility.yul\":3142:3148   */\n  dup3\n    /* \"#utility.yul\":3139:3153   */\n  lt\n    /* \"#utility.yul\":3119:3137   */\n  dup2\n    /* \"#utility.yul\":3116:3154   */\n  eq\n    /* \"#utility.yul\":3113:3197   */\n  iszero\n  tag_77\n  jumpi\n    /* \"#utility.yul\":3169:3187   */\n  tag_78\n  tag_79\n  jump\t// in\ntag_78:\n    /* \"#utility.yul\":3113:3197   */\ntag_77:\n    /* \"#utility.yul\":2934:3203   */\n  pop\n    /* \"#utility.yul\":2883:3203   */\n  swap2\n  swap1\n  pop\n  jump\t// out\n    /* \"#utility.yul\":3209:3490   */\ntag_60:\n    /* \"#utility.yul\":3292:3319   */\n  tag_81\n    /* \"#utility.yul\":3314:3318   */\n  dup3\n    /* \"#utility.yul\":3292:3319   */\n  tag_67\n  jump\t// in\ntag_81:\n    /* \"#utility.yul\":3284:3290   */\n  dup2\n    /* \"#utility.yul\":3280:3320   */\n  add\n    /* \"#utility.yul\":3422:3428   */\n  dup2\n    /* \"#utility.yul\":3410:3420   */\n  dup2\n    /* \"#utility.yul\":3407:3429   */\n  lt\n    /* \"#utility.yul\":3386:3404   */\n  0xffffffffffffffff\n    /* \"#utility.yul\":3374:3384   */\n  dup3\n    /* \"#utility.yul\":3371:3405   */\n  gt\n    /* \"#utility.yul\":3368:3430   */\n  or\n    /* \"#utility.yul\":3365:3453   */\n  iszero\n  tag_82\n  jumpi\n    /* \"#utility.yul\":3433:3451   */\n  tag_83\n  tag_65\n  jump\t// in\ntag_83:\n    /* \"#utility.yul\":3365:3453   */\ntag_82:\n    /* \"#utility.yul\":3473:3483   */\n  dup1\n    /* \"#utility.yul\":3469:3471   */\n  0x40\n    /* \"#utility.yul\":3462:3484   */\n  mstore\n    /* \"#utility.yul\":3252:3490   */\n  pop\n    /* \"#utility.yul\":3209:3490   */\n  pop\n  pop\n  jump\t// out\n    /* \"#utility.yul\":3496:3676   */\ntag_79:\n    /* \"#utility.yul\":3544:3621   */\n  0x4e487b7100000000000000000000000000000000000000000000000000000000\n    /* \"#utility.yul\":3541:3542   */\n  0x00\n    /* \"#utility.yul\":3534:3622   */\n  mstore\n    /* \"#utility.yul\":3641:3645   */\n  0x22\n    /* \"#utility.yul\":3638:3639   */\n  0x04\n    /* \"#utility.yul\":3631:3646   */\n  mstore\n    /* \"#utility.yul\":3665:3669   */\n  0x24\n    /* \"#utility.yul\":3662:3663   */\n  0x00\n    /* \"#utility.yul\":3655:3670   */\n  revert\n    /* \"#utility.yul\":3682:3862   */\ntag_65:\n    /* \"#utility.yul\":3730:3807   */\n  0x4e487b7100000000000000000000000000000000000000000000000000000000\n    /* \"#utility.yul\":3727:3728   */\n  0x00\n    /* \"#utility.yul\":3720:3808   */\n  mstore\n    /* \"#utility.yul\":3827:3831   */\n  0x41\n    /* \"#utility.yul\":3824:3825   */\n  0x04\n    /* \"#utility.yul\":3817:3832   */\n  mstore\n    /* \"#utility.yul\":3851:3855   */\n  0x24\n    /* \"#utility.yul\":3848:3849   */\n  0x00\n    /* \"#utility.yul\":3841:3856   */\n  revert\n    /* \"#utility.yul\":3868:3985   */\ntag_39:\n    /* \"#utility.yul\":3977:3978   */\n  0x00\n    /* \"#utility.yul\":3974:3975   */\n  dup1\n    /* \"#utility.yul\":3967:3979   */\n  revert\n    /* \"#utility.yul\":3991:4108   */\ntag_32:\n    /* \"#utility.yul\":4100:4101   */\n  0x00\n    /* \"#utility.yul\":4097:4098   */\n  dup1\n    /* \"#utility.yul\":4090:4102   */\n  revert\n    /* \"#utility.yul\":4114:4231   */\ntag_52:\n    /* \"#utility.yul\":4223:4224   */\n  0x00\n    /* \"#utility.yul\":4220:4221   */\n  dup1\n    /* \"#utility.yul\":4213:4225   */\n  revert\n    /* \"#utility.yul\":4237:4354   */\ntag_48:\n    /* \"#utility.yul\":4346:4347   */\n  0x00\n    /* \"#utility.yul\":4343:4344   */\n  dup1\n    /* \"#utility.yul\":4336:4348   */\n  revert\n    /* \"#utility.yul\":4360:4462   */\ntag_67:\n    /* \"#utility.yul\":4401:4407   */\n  0x00\n    /* \"#utility.yul\":4452:4454   */\n  0x1f\n    /* \"#utility.yul\":4448:4455   */\n  not\n    /* \"#utility.yul\":4443:4445   */\n  0x1f\n    /* \"#utility.yul\":4436:4441   */\n  dup4\n    /* \"#utility.yul\":4432:4446   */\n  add\n    /* \"#utility.yul\":4428:4456   */\n  and\n    /* \"#utility.yul\":4418:4456   */\n  swap1\n  pop\n    /* \"#utility.yul\":4360:4462   */\n  swap2\n  swap1\n  pop\n  jump\t// out\n    /* \"#utility.yul\":4468:4590   */\ntag_44:\n    /* \"#utility.yul\":4541:4565   */\n  tag_92\n    /* \"#utility.yul\":4559:4564   */\n  dup2\n    /* \"#utility.yul\":4541:4565   */\n  tag_68\n  jump\t// in\ntag_92:\n    /* \"#utility.yul\":4534:4539   */\n  dup2\n    /* \"#utility.yul\":4531:4566   */\n  eq\n    /* \"#utility.yul\":4521:4584   */\n  tag_93\n  jumpi\n    /* \"#utility.yul\":4580:4581   */\n  0x00\n    /* \"#utility.yul\":4577:4578   */\n  dup1\n    /* \"#utility.yul\":4570:4582   */\n  revert\n    /* \"#utility.yul\":4521:4584   */\ntag_93:\n    /* \"#utility.yul\":4468:4590   */\n  pop\n  jump\t// out\n    /* \"solidity practice/inheritance.sol\":921:2051  contract AnotherSchool is Student{... */\ntag_11:\n  dataSize(sub_0)\n  dup1\n  dataOffset(sub_0)\n  0x00\n  codecopy\n  0x00\n  return\nstop\n\nsub_0: assembly {\n        /* \"solidity practice/inheritance.sol\":921:2051  contract AnotherSchool is Student{... */\n      mstore(0x40, 0x80)\n      callvalue\n      dup1\n      iszero\n      tag_1\n      jumpi\n      0x00\n      dup1\n      revert\n    tag_1:\n      pop\n      jumpi(tag_2, lt(calldatasize, 0x04))\n      shr(0xe0, calldataload(0x00))\n      dup1\n      0x3e70f704\n      eq\n      tag_3\n      jumpi\n      dup1\n      0x52446f53\n      eq\n      tag_4\n      jumpi\n      dup1\n      0x55e83ff7\n      eq\n      tag_5\n      jumpi\n      dup1\n      0x5ea5cabe\n      eq\n      tag_6\n      jumpi\n      dup1\n      0xbb425717\n      eq\n      tag_7\n      jumpi\n      dup1\n      0xd685f038\n      eq\n      tag_8\n      jumpi\n    tag_2:\n      0x00\n      dup1\n      revert\n        /* \"solidity practice/inheritance.sol\":321:558  function verifyAdmission()public view returns(string memory){... */\n    tag_3:\n      tag_9\n      tag_10\n      jump\t// in\n    tag_9:\n      mload(0x40)\n      tag_11\n      swap2\n      swap1\n      tag_12\n      jump\t// in\n    tag_11:\n      mload(0x40)\n      dup1\n      swap2\n      sub\n      swap1\n      return\n        /* \"solidity practice/inheritance.sol\":1200:1275  function returnAge() view public returns(uint){... */\n    tag_4:\n      tag_13\n      tag_14\n      jump\t// in\n    tag_13:\n      mload(0x40)\n      tag_15\n      swap2\n      swap1\n      tag_16\n      jump\t// in\n    tag_15:\n      mload(0x40)\n      dup1\n      swap2\n      sub\n      swap1\n      return\n        /* \"solidity practice/inheritance.sol\":1548:2049  function admissionVerificationRequirment() public view returns(string memory){... */\n    tag_5:\n      tag_17\n      tag_18\n      jump\t// in\n    tag_17:\n      mload(0x40)\n      tag_19\n      swap2\n      swap1\n      tag_12\n      jump\t// in\n    tag_19:\n      mload(0x40)\n      dup1\n      swap2\n      sub\n      swap1\n      return\n        /* \"solidity practice/inheritance.sol\":1281:1367  function returnName() view public returns(string memory){... */\n    tag_6:\n      tag_20\n      tag_21\n      jump\t// in\n    tag_20:\n      mload(0x40)\n      tag_22\n      swap2\n      swap1\n      tag_12\n      jump\t// in\n    tag_22:\n      mload(0x40)\n      dup1\n      swap2\n      sub\n      swap1\n      return\n        /* \"solidity practice/inheritance.sol\":1463:1542  function returnGrade() view public returns(uint){... */\n    tag_7:\n      tag_23\n      tag_24\n      jump\t// in\n    tag_23:\n      mload(0x40)\n      tag_25\n      swap2\n      swap1\n      tag_16\n      jump\t// in\n    tag_25:\n      mload(0x40)\n      dup1\n      swap2\n      sub\n      swap1\n      return\n        /* \"solidity practice/inheritance.sol\":1373:1458  function returnRollNo() view public returns(uint){... */\n    tag_8:\n      tag_26\n      tag_27\n      jump\t// in\n    tag_26:\n      mload(0x40)\n      tag_28\n      swap2\n      swap1\n      tag_16\n      jump\t// in\n    tag_28:\n      mload(0x40)\n      dup1\n      swap2\n      sub\n      swap1\n      return\n        /* \"solidity practice/inheritance.sol\":321:558  function verifyAdmission()public view returns(string memory){... */\n    tag_10:\n        /* \"solidity practice/inheritance.sol\":367:380  string memory */\n      0x60\n        /* \"solidity practice/inheritance.sol\":400:402  55 */\n      0x37\n        /* \"solidity practice/inheritance.sol\":394:399  grade */\n      sload(0x03)\n        /* \"solidity practice/inheritance.sol\":394:402  grade>55 */\n      gt\n        /* \"solidity practice/inheritance.sol\":391:552  if(grade>55){... */\n      iszero\n      tag_30\n      jumpi\n        /* \"solidity practice/inheritance.sol\":417:448  return \"Eligible for admission\" */\n      mload(0x40)\n      dup1\n      0x40\n      add\n      0x40\n      mstore\n      dup1\n      0x16\n      dup2\n      mstore\n      0x20\n      add\n      0x456c696769626c6520666f722061646d697373696f6e00000000000000000000\n      dup2\n      mstore\n      pop\n      swap1\n      pop\n      jump(tag_29)\n        /* \"solidity practice/inheritance.sol\":391:552  if(grade>55){... */\n    tag_30:\n        /* \"solidity practice/inheritance.sol\":477:541  return \"Not eligible for this college. Better luck next time!!!\" */\n      mload(0x40)\n      dup1\n      0x60\n      add\n      0x40\n      mstore\n      dup1\n      0x37\n      dup2\n      mstore\n      0x20\n      add\n      data_a41d6bc024f30f8b8a3d1abb1dc065726795ead0cf29e771c4d6df9781dd7fbb\n      0x37\n      swap2\n      codecopy\n      swap1\n      pop\n        /* \"solidity practice/inheritance.sol\":321:558  function verifyAdmission()public view returns(string memory){... */\n    tag_29:\n      swap1\n      jump\t// out\n        /* \"solidity practice/inheritance.sol\":1200:1275  function returnAge() view public returns(uint){... */\n    tag_14:\n        /* \"solidity practice/inheritance.sol\":1241:1245  uint */\n      0x00\n        /* \"solidity practice/inheritance.sol\":1263:1268  __age */\n      sload(0x04)\n        /* \"solidity practice/inheritance.sol\":1256:1268  return __age */\n      swap1\n      pop\n        /* \"solidity practice/inheritance.sol\":1200:1275  function returnAge() view public returns(uint){... */\n      swap1\n      jump\t// out\n        /* \"solidity practice/inheritance.sol\":1548:2049  function admissionVerificationRequirment() public view returns(string memory){... */\n    tag_18:\n        /* \"solidity practice/inheritance.sol\":1611:1624  string memory */\n      0x60\n        /* \"solidity practice/inheritance.sol\":1644:1646  25 */\n      0x19\n        /* \"solidity practice/inheritance.sol\":1638:1643  __age */\n      sload(0x04)\n        /* \"solidity practice/inheritance.sol\":1638:1646  __age>25 */\n      gt\n        /* \"solidity practice/inheritance.sol\":1635:2043  if(__age>25){... */\n      iszero\n      tag_34\n      jumpi\n        /* \"solidity practice/inheritance.sol\":1661:1733  return \"Not elligible for admission in another school age is to high!!!\" */\n      mload(0x40)\n      dup1\n      0x60\n      add\n      0x40\n      mstore\n      dup1\n      0x3f\n      dup2\n      mstore\n      0x20\n      add\n      data_6160395f226f292b66c2028c742c18827e5b9ae1d469100e61e94629be1b1598\n      0x3f\n      swap2\n      codecopy\n      swap1\n      pop\n      jump(tag_33)\n        /* \"solidity practice/inheritance.sol\":1635:2043  if(__age>25){... */\n    tag_34:\n        /* \"solidity practice/inheritance.sol\":1760:1762  60 */\n      0x3c\n        /* \"solidity practice/inheritance.sol\":1752:1759  __grade */\n      sload(0x07)\n        /* \"solidity practice/inheritance.sol\":1752:1762  __grade<60 */\n      lt\n        /* \"solidity practice/inheritance.sol\":1749:2043  if(__grade<60){... */\n      iszero\n      tag_36\n      jumpi\n        /* \"solidity practice/inheritance.sol\":1777:1833  return \"Not elligible for admission grade is too low!!!\" */\n      mload(0x40)\n      dup1\n      0x60\n      add\n      0x40\n      mstore\n      dup1\n      0x2f\n      dup2\n      mstore\n      0x20\n      add\n      data_5af93bed4b29e4874701c55080866fd353f21040176288581e2ff4114dd01b57\n      0x2f\n      swap2\n      codecopy\n      swap1\n      pop\n      jump(tag_33)\n        /* \"solidity practice/inheritance.sol\":1749:2043  if(__grade<60){... */\n    tag_36:\n        /* \"solidity practice/inheritance.sol\":1865:1867  35 */\n      0x23\n        /* \"solidity practice/inheritance.sol\":1852:1864  __rollNumber */\n      sload(0x06)\n        /* \"solidity practice/inheritance.sol\":1852:1867  __rollNumber>35 */\n      gt\n        /* \"solidity practice/inheritance.sol\":1849:2043  if(__rollNumber>35){... */\n      iszero\n      tag_38\n      jumpi\n        /* \"solidity practice/inheritance.sol\":1882:1943  return \"Not eligible for admission rollnumber is too high!!!\" */\n      mload(0x40)\n      dup1\n      0x60\n      add\n      0x40\n      mstore\n      dup1\n      0x34\n      dup2\n      mstore\n      0x20\n      add\n      data_a88c6b1696229c895a692fbf334c577e64894c3becf46286f11922b951c1c068\n      0x34\n      swap2\n      codecopy\n      swap1\n      pop\n      jump(tag_33)\n        /* \"solidity practice/inheritance.sol\":1849:2043  if(__rollNumber>35){... */\n    tag_38:\n        /* \"solidity practice/inheritance.sol\":1972:2032  return \"Congratulation! you are selected for this school!!!\" */\n      mload(0x40)\n      dup1\n      0x60\n      add\n      0x40\n      mstore\n      dup1\n      0x33\n      dup2\n      mstore\n      0x20\n      add\n      data_520863b20956c484665df19d3fbbc4005775f95a0ba36b679fa2de8272cf1b88\n      0x33\n      swap2\n      codecopy\n      swap1\n      pop\n        /* \"solidity practice/inheritance.sol\":1548:2049  function admissionVerificationRequirment() public view returns(string memory){... */\n    tag_33:\n      swap1\n      jump\t// out\n        /* \"solidity practice/inheritance.sol\":1281:1367  function returnName() view public returns(string memory){... */\n    tag_21:\n        /* \"solidity practice/inheritance.sol\":1323:1336  string memory */\n      0x60\n        /* \"solidity practice/inheritance.sol\":1354:1360  __name */\n      0x05\n        /* \"solidity practice/inheritance.sol\":1347:1360  return __name */\n      dup1\n      sload\n      tag_41\n      swap1\n      tag_42\n      jump\t// in\n    tag_41:\n      dup1\n      0x1f\n      add\n      0x20\n      dup1\n      swap2\n      div\n      mul\n      0x20\n      add\n      mload(0x40)\n      swap1\n      dup2\n      add\n      0x40\n      mstore\n      dup1\n      swap3\n      swap2\n      swap1\n      dup2\n      dup2\n      mstore\n      0x20\n      add\n      dup3\n      dup1\n      sload\n      tag_43\n      swap1\n      tag_42\n      jump\t// in\n    tag_43:\n      dup1\n      iszero\n      tag_44\n      jumpi\n      dup1\n      0x1f\n      lt\n      tag_45\n      jumpi\n      0x0100\n      dup1\n      dup4\n      sload\n      div\n      mul\n      dup4\n      mstore\n      swap2\n      0x20\n      add\n      swap2\n      jump(tag_44)\n    tag_45:\n      dup3\n      add\n      swap2\n      swap1\n      0x00\n      mstore\n      keccak256(0x00, 0x20)\n      swap1\n    tag_46:\n      dup2\n      sload\n      dup2\n      mstore\n      swap1\n      0x01\n      add\n      swap1\n      0x20\n      add\n      dup1\n      dup4\n      gt\n      tag_46\n      jumpi\n      dup3\n      swap1\n      sub\n      0x1f\n      and\n      dup3\n      add\n      swap2\n    tag_44:\n      pop\n      pop\n      pop\n      pop\n      pop\n      swap1\n      pop\n        /* \"solidity practice/inheritance.sol\":1281:1367  function returnName() view public returns(string memory){... */\n      swap1\n      jump\t// out\n        /* \"solidity practice/inheritance.sol\":1463:1542  function returnGrade() view public returns(uint){... */\n    tag_24:\n        /* \"solidity practice/inheritance.sol\":1506:1510  uint */\n      0x00\n        /* \"solidity practice/inheritance.sol\":1528:1535  __grade */\n      sload(0x07)\n        /* \"solidity practice/inheritance.sol\":1521:1535  return __grade */\n      swap1\n      pop\n        /* \"solidity practice/inheritance.sol\":1463:1542  function returnGrade() view public returns(uint){... */\n      swap1\n      jump\t// out\n        /* \"solidity practice/inheritance.sol\":1373:1458  function returnRollNo() view public returns(uint){... */\n    tag_27:\n        /* \"solidity practice/inheritance.sol\":1417:1421  uint */\n      0x00\n        /* \"solidity practice/inheritance.sol\":1439:1451  __rollNumber */\n      sload(0x06)\n        /* \"solidity practice/inheritance.sol\":1432:1451  return __rollNumber */\n      swap1\n      pop\n        /* \"solidity practice/inheritance.sol\":1373:1458  function returnRollNo() view public returns(uint){... */\n      swap1\n      jump\t// out\n        /* \"#utility.yul\":7:371   */\n    tag_50:\n        /* \"#utility.yul\":95:98   */\n      0x00\n        /* \"#utility.yul\":123:162   */\n      tag_52\n        /* \"#utility.yul\":156:161   */\n      dup3\n        /* \"#utility.yul\":123:162   */\n      tag_53\n      jump\t// in\n    tag_52:\n        /* \"#utility.yul\":178:249   */\n      tag_54\n        /* \"#utility.yul\":242:248   */\n      dup2\n        /* \"#utility.yul\":237:240   */\n      dup6\n        /* \"#utility.yul\":178:249   */\n      tag_55\n      jump\t// in\n    tag_54:\n        /* \"#utility.yul\":171:249   */\n      swap4\n      pop\n        /* \"#utility.yul\":258:310   */\n      tag_56\n        /* \"#utility.yul\":303:309   */\n      dup2\n        /* \"#utility.yul\":298:301   */\n      dup6\n        /* \"#utility.yul\":291:295   */\n      0x20\n        /* \"#utility.yul\":284:289   */\n      dup7\n        /* \"#utility.yul\":280:296   */\n      add\n        /* \"#utility.yul\":258:310   */\n      tag_57\n      jump\t// in\n    tag_56:\n        /* \"#utility.yul\":335:364   */\n      tag_58\n        /* \"#utility.yul\":357:363   */\n      dup2\n        /* \"#utility.yul\":335:364   */\n      tag_59\n      jump\t// in\n    tag_58:\n        /* \"#utility.yul\":330:333   */\n      dup5\n        /* \"#utility.yul\":326:365   */\n      add\n        /* \"#utility.yul\":319:365   */\n      swap2\n      pop\n        /* \"#utility.yul\":99:371   */\n      pop\n        /* \"#utility.yul\":7:371   */\n      swap3\n      swap2\n      pop\n      pop\n      jump\t// out\n        /* \"#utility.yul\":377:495   */\n    tag_60:\n        /* \"#utility.yul\":464:488   */\n      tag_62\n        /* \"#utility.yul\":482:487   */\n      dup2\n        /* \"#utility.yul\":464:488   */\n      tag_63\n      jump\t// in\n    tag_62:\n        /* \"#utility.yul\":459:462   */\n      dup3\n        /* \"#utility.yul\":452:489   */\n      mstore\n        /* \"#utility.yul\":377:495   */\n      pop\n      pop\n      jump\t// out\n        /* \"#utility.yul\":501:814   */\n    tag_12:\n        /* \"#utility.yul\":614:618   */\n      0x00\n        /* \"#utility.yul\":652:654   */\n      0x20\n        /* \"#utility.yul\":641:650   */\n      dup3\n        /* \"#utility.yul\":637:655   */\n      add\n        /* \"#utility.yul\":629:655   */\n      swap1\n      pop\n        /* \"#utility.yul\":701:710   */\n      dup2\n        /* \"#utility.yul\":695:699   */\n      dup2\n        /* \"#utility.yul\":691:711   */\n      sub\n        /* \"#utility.yul\":687:688   */\n      0x00\n        /* \"#utility.yul\":676:685   */\n      dup4\n        /* \"#utility.yul\":672:689   */\n      add\n        /* \"#utility.yul\":665:712   */\n      mstore\n        /* \"#utility.yul\":729:807   */\n      tag_65\n        /* \"#utility.yul\":802:806   */\n      dup2\n        /* \"#utility.yul\":793:799   */\n      dup5\n        /* \"#utility.yul\":729:807   */\n      tag_50\n      jump\t// in\n    tag_65:\n        /* \"#utility.yul\":721:807   */\n      swap1\n      pop\n        /* \"#utility.yul\":501:814   */\n      swap3\n      swap2\n      pop\n      pop\n      jump\t// out\n        /* \"#utility.yul\":820:1042   */\n    tag_16:\n        /* \"#utility.yul\":913:917   */\n      0x00\n        /* \"#utility.yul\":951:953   */\n      0x20\n        /* \"#utility.yul\":940:949   */\n      dup3\n        /* \"#utility.yul\":936:954   */\n      add\n        /* \"#utility.yul\":928:954   */\n      swap1\n      pop\n        /* \"#utility.yul\":964:1035   */\n      tag_67\n        /* \"#utility.yul\":1032:1033   */\n      0x00\n        /* \"#utility.yul\":1021:1030   */\n      dup4\n        /* \"#utility.yul\":1017:1034   */\n      add\n        /* \"#utility.yul\":1008:1014   */\n      dup5\n        /* \"#utility.yul\":964:1035   */\n      tag_60\n      jump\t// in\n    tag_67:\n        /* \"#utility.yul\":820:1042   */\n      swap3\n      swap2\n      pop\n      pop\n      jump\t// out\n        /* \"#utility.yul\":1048:1147   */\n    tag_53:\n        /* \"#utility.yul\":1100:1106   */\n      0x00\n        /* \"#utility.yul\":1134:1139   */\n      dup2\n        /* \"#utility.yul\":1128:1140   */\n      mload\n        /* \"#utility.yul\":1118:1140   */\n      swap1\n      pop\n        /* \"#utility.yul\":1048:1147   */\n      swap2\n      swap1\n      pop\n      jump\t// out\n        /* \"#utility.yul\":1153:1322   */\n    tag_55:\n        /* \"#utility.yul\":1237:1248   */\n      0x00\n        /* \"#utility.yul\":1271:1277   */\n      dup3\n        /* \"#utility.yul\":1266:1269   */\n      dup3\n        /* \"#utility.yul\":1259:1278   */\n      mstore\n        /* \"#utility.yul\":1311:1315   */\n      0x20\n        /* \"#utility.yul\":1306:1309   */\n      dup3\n        /* \"#utility.yul\":1302:1316   */\n      add\n        /* \"#utility.yul\":1287:1316   */\n      swap1\n      pop\n        /* \"#utility.yul\":1153:1322   */\n      swap3\n      swap2\n      pop\n      pop\n      jump\t// out\n        /* \"#utility.yul\":1328:1405   */\n    tag_63:\n        /* \"#utility.yul\":1365:1372   */\n      0x00\n        /* \"#utility.yul\":1394:1399   */\n      dup2\n        /* \"#utility.yul\":1383:1399   */\n      swap1\n      pop\n        /* \"#utility.yul\":1328:1405   */\n      swap2\n      swap1\n      pop\n      jump\t// out\n        /* \"#utility.yul\":1411:1718   */\n    tag_57:\n        /* \"#utility.yul\":1479:1480   */\n      0x00\n        /* \"#utility.yul\":1489:1602   */\n    tag_72:\n        /* \"#utility.yul\":1503:1509   */\n      dup4\n        /* \"#utility.yul\":1500:1501   */\n      dup2\n        /* \"#utility.yul\":1497:1510   */\n      lt\n        /* \"#utility.yul\":1489:1602   */\n      iszero\n      tag_74\n      jumpi\n        /* \"#utility.yul\":1588:1589   */\n      dup1\n        /* \"#utility.yul\":1583:1586   */\n      dup3\n        /* \"#utility.yul\":1579:1590   */\n      add\n        /* \"#utility.yul\":1573:1591   */\n      mload\n        /* \"#utility.yul\":1569:1570   */\n      dup2\n        /* \"#utility.yul\":1564:1567   */\n      dup5\n        /* \"#utility.yul\":1560:1571   */\n      add\n        /* \"#utility.yul\":1553:1592   */\n      mstore\n        /* \"#utility.yul\":1525:1527   */\n      0x20\n        /* \"#utility.yul\":1522:1523   */\n      dup2\n        /* \"#utility.yul\":1518:1528   */\n      add\n        /* \"#utility.yul\":1513:1528   */\n      swap1\n      pop\n        /* \"#utility.yul\":1489:1602   */\n      jump(tag_72)\n    tag_74:\n        /* \"#utility.yul\":1620:1626   */\n      dup4\n        /* \"#utility.yul\":1617:1618   */\n      dup2\n        /* \"#utility.yul\":1614:1627   */\n      gt\n        /* \"#utility.yul\":1611:1712   */\n      iszero\n      tag_75\n      jumpi\n        /* \"#utility.yul\":1700:1701   */\n      0x00\n        /* \"#utility.yul\":1691:1697   */\n      dup5\n        /* \"#utility.yul\":1686:1689   */\n      dup5\n        /* \"#utility.yul\":1682:1698   */\n      add\n        /* \"#utility.yul\":1675:1702   */\n      mstore\n        /* \"#utility.yul\":1611:1712   */\n    tag_75:\n        /* \"#utility.yul\":1460:1718   */\n      pop\n        /* \"#utility.yul\":1411:1718   */\n      pop\n      pop\n      pop\n      jump\t// out\n        /* \"#utility.yul\":1724:2044   */\n    tag_42:\n        /* \"#utility.yul\":1768:1774   */\n      0x00\n        /* \"#utility.yul\":1805:1806   */\n      0x02\n        /* \"#utility.yul\":1799:1803   */\n      dup3\n        /* \"#utility.yul\":1795:1807   */\n      div\n        /* \"#utility.yul\":1785:1807   */\n      swap1\n      pop\n        /* \"#utility.yul\":1852:1853   */\n      0x01\n        /* \"#utility.yul\":1846:1850   */\n      dup3\n        /* \"#utility.yul\":1842:1854   */\n      and\n        /* \"#utility.yul\":1873:1891   */\n      dup1\n        /* \"#utility.yul\":1863:1944   */\n      tag_77\n      jumpi\n        /* \"#utility.yul\":1929:1933   */\n      0x7f\n        /* \"#utility.yul\":1921:1927   */\n      dup3\n        /* \"#utility.yul\":1917:1934   */\n      and\n        /* \"#utility.yul\":1907:1934   */\n      swap2\n      pop\n        /* \"#utility.yul\":1863:1944   */\n    tag_77:\n        /* \"#utility.yul\":1991:1993   */\n      0x20\n        /* \"#utility.yul\":1983:1989   */\n      dup3\n        /* \"#utility.yul\":1980:1994   */\n      lt\n        /* \"#utility.yul\":1960:1978   */\n      dup2\n        /* \"#utility.yul\":1957:1995   */\n      eq\n        /* \"#utility.yul\":1954:2038   */\n      iszero\n      tag_78\n      jumpi\n        /* \"#utility.yul\":2010:2028   */\n      tag_79\n      tag_80\n      jump\t// in\n    tag_79:\n        /* \"#utility.yul\":1954:2038   */\n    tag_78:\n        /* \"#utility.yul\":1775:2044   */\n      pop\n        /* \"#utility.yul\":1724:2044   */\n      swap2\n      swap1\n      pop\n      jump\t// out\n        /* \"#utility.yul\":2050:2230   */\n    tag_80:\n        /* \"#utility.yul\":2098:2175   */\n      0x4e487b7100000000000000000000000000000000000000000000000000000000\n        /* \"#utility.yul\":2095:2096   */\n      0x00\n        /* \"#utility.yul\":2088:2176   */\n      mstore\n        /* \"#utility.yul\":2195:2199   */\n      0x22\n        /* \"#utility.yul\":2192:2193   */\n      0x04\n        /* \"#utility.yul\":2185:2200   */\n      mstore\n        /* \"#utility.yul\":2219:2223   */\n      0x24\n        /* \"#utility.yul\":2216:2217   */\n      0x00\n        /* \"#utility.yul\":2209:2224   */\n      revert\n        /* \"#utility.yul\":2236:2338   */\n    tag_59:\n        /* \"#utility.yul\":2277:2283   */\n      0x00\n        /* \"#utility.yul\":2328:2330   */\n      0x1f\n        /* \"#utility.yul\":2324:2331   */\n      not\n        /* \"#utility.yul\":2319:2321   */\n      0x1f\n        /* \"#utility.yul\":2312:2317   */\n      dup4\n        /* \"#utility.yul\":2308:2322   */\n      add\n        /* \"#utility.yul\":2304:2332   */\n      and\n        /* \"#utility.yul\":2294:2332   */\n      swap1\n      pop\n        /* \"#utility.yul\":2236:2338   */\n      swap2\n      swap1\n      pop\n      jump\t// out\n    stop\n    data_520863b20956c484665df19d3fbbc4005775f95a0ba36b679fa2de8272cf1b88 436f6e67726174756c6174696f6e2120796f75206172652073656c656374656420666f722074686973207363686f6f6c212121\n    data_5af93bed4b29e4874701c55080866fd353f21040176288581e2ff4114dd01b57 4e6f7420656c6c696769626c6520666f722061646d697373696f6e20677261646520697320746f6f206c6f77212121\n    data_6160395f226f292b66c2028c742c18827e5b9ae1d469100e61e94629be1b1598 4e6f7420656c6c696769626c6520666f722061646d697373696f6e20696e20616e6f74686572207363686f6f6c2061676520697320746f2068696768212121\n    data_a41d6bc024f30f8b8a3d1abb1dc065726795ead0cf29e771c4d6df9781dd7fbb 4e6f7420656c696769626c6520666f72207468697320636f6c6c6567652e20426574746572206c75636b206e6578742074696d65212121\n    data_a88c6b1696229c895a692fbf334c577e64894c3becf46286f11922b951c1c068 4e6f7420656c696769626c6520666f722061646d697373696f6e20726f6c6c6e756d62657220697320746f6f2068696768212121\n\n    auxdata: 0xa2646970667358221220c69d2f858d09f10eedf0e32ceec33585477ab83129493a1ee938677785c9cfc264736f6c63430008070033\n}\n",
				"bytecode": {
					"linkReferences": {},
					"object": "60806040523480156200001157600080fd5b506040516200099b3803806200099b8339818101604052810190620000379190620001ea565b838383838360008190555082600190805190602001906200005a929190620000a5565b508160028190555080600381905550505050508360048190555082600590805190602001906200008c929190620000a5565b5081600681905550806007819055505050505062000423565b828054620000b3906200031a565b90600052602060002090601f016020900481019282620000d7576000855562000123565b82601f10620000f257805160ff191683800117855562000123565b8280016001018555821562000123579182015b828111156200012257825182559160200191906001019062000105565b5b50905062000132919062000136565b5090565b5b808211156200015157600081600090555060010162000137565b5090565b60006200016c6200016684620002a4565b6200027b565b9050828152602081018484840111156200018b576200018a620003e9565b5b62000198848285620002e4565b509392505050565b600082601f830112620001b857620001b7620003e4565b5b8151620001ca84826020860162000155565b91505092915050565b600081519050620001e48162000409565b92915050565b60008060008060808587031215620002075762000206620003f3565b5b60006200021787828801620001d3565b945050602085015167ffffffffffffffff8111156200023b576200023a620003ee565b5b6200024987828801620001a0565b93505060406200025c87828801620001d3565b92505060606200026f87828801620001d3565b91505092959194509250565b6000620002876200029a565b905062000295828262000350565b919050565b6000604051905090565b600067ffffffffffffffff821115620002c257620002c1620003b5565b5b620002cd82620003f8565b9050602081019050919050565b6000819050919050565b60005b8381101562000304578082015181840152602081019050620002e7565b8381111562000314576000848401525b50505050565b600060028204905060018216806200033357607f821691505b602082108114156200034a576200034962000386565b5b50919050565b6200035b82620003f8565b810181811067ffffffffffffffff821117156200037d576200037c620003b5565b5b80604052505050565b7f4e487b7100000000000000000000000000000000000000000000000000000000600052602260045260246000fd5b7f4e487b7100000000000000000000000000000000000000000000000000000000600052604160045260246000fd5b600080fd5b600080fd5b600080fd5b600080fd5b6000601f19601f8301169050919050565b6200041481620002da565b81146200042057600080fd5b50565b61056880620004336000396000f3fe608060405234801561001057600080fd5b50600436106100625760003560e01c80633e70f7041461006757806352446f531461008557806355e83ff7146100a35780635ea5cabe146100c1578063bb425717146100df578063d685f038146100fd575b600080fd5b61006f61011b565b60405161007c919061031e565b60405180910390f35b61008d610184565b60405161009a9190610340565b60405180910390f35b6100ab61018e565b6040516100b8919061031e565b60405180910390f35b6100c9610230565b6040516100d6919061031e565b60405180910390f35b6100e76102c2565b6040516100f49190610340565b60405180910390f35b6101056102cc565b6040516101129190610340565b60405180910390f35b606060376003541115610165576040518060400160405280601681526020017f456c696769626c6520666f722061646d697373696f6e000000000000000000008152509050610181565b6040518060600160405280603781526020016104c86037913990505b90565b6000600454905090565b6060601960045411156101bb576040518060600160405280603f8152602001610489603f9139905061022d565b603c60075410156101e6576040518060600160405280602f815260200161045a602f9139905061022d565b60236006541115610211576040518060600160405280603481526020016104ff60349139905061022d565b6040518060600160405280603381526020016104276033913990505b90565b60606005805461023f906103b4565b80601f016020809104026020016040519081016040528092919081815260200182805461026b906103b4565b80156102b85780601f1061028d576101008083540402835291602001916102b8565b820191906000526020600020905b81548152906001019060200180831161029b57829003601f168201915b5050505050905090565b6000600754905090565b6000600654905090565b60006102e18261035b565b6102eb8185610366565b93506102fb818560208601610381565b61030481610415565b840191505092915050565b61031881610377565b82525050565b6000602082019050818103600083015261033881846102d6565b905092915050565b6000602082019050610355600083018461030f565b92915050565b600081519050919050565b600082825260208201905092915050565b6000819050919050565b60005b8381101561039f578082015181840152602081019050610384565b838111156103ae576000848401525b50505050565b600060028204905060018216806103cc57607f821691505b602082108114156103e0576103df6103e6565b5b50919050565b7f4e487b7100000000000000000000000000000000000000000000000000000000600052602260045260246000fd5b6000601f19601f830116905091905056fe436f6e67726174756c6174696f6e2120796f75206172652073656c656374656420666f722074686973207363686f6f6c2121214e6f7420656c6c696769626c6520666f722061646d697373696f6e20677261646520697320746f6f206c6f772121214e6f7420656c6c696769626c6520666f722061646d697373696f6e20696e20616e6f74686572207363686f6f6c2061676520697320746f20686967682121214e6f7420656c696769626c6520666f72207468697320636f6c6c6567652e20426574746572206c75636b206e6578742074696d652121214e6f7420656c696769626c6520666f722061646d697373696f6e20726f6c6c6e756d62657220697320746f6f2068696768212121a2646970667358221220c69d2f858d09f10eedf0e32ceec33585477ab83129493a1ee938677785c9cfc264736f6c63430008070033",
					"opcodes": "PUSH1 0x80 PUSH1 0x40 MSTORE CALLVALUE DUP1 ISZERO PUSH3 0x11 JUMPI PUSH1 0x0 DUP1 REVERT JUMPDEST POP PUSH1 0x40 MLOAD PUSH3 0x99B CODESIZE SUB DUP1 PUSH3 0x99B DUP4 CODECOPY DUP2 DUP2 ADD PUSH1 0x40 MSTORE DUP2 ADD SWAP1 PUSH3 0x37 SWAP2 SWAP1 PUSH3 0x1EA JUMP JUMPDEST DUP4 DUP4 DUP4 DUP4 DUP4 PUSH1 0x0 DUP2 SWAP1 SSTORE POP DUP3 PUSH1 0x1 SWAP1 DUP1 MLOAD SWAP1 PUSH1 0x20 ADD SWAP1 PUSH3 0x5A SWAP3 SWAP2 SWAP1 PUSH3 0xA5 JUMP JUMPDEST POP DUP2 PUSH1 0x2 DUP2 SWAP1 SSTORE POP DUP1 PUSH1 0x3 DUP2 SWAP1 SSTORE POP POP POP POP POP DUP4 PUSH1 0x4 DUP2 SWAP1 SSTORE POP DUP3 PUSH1 0x5 SWAP1 DUP1 MLOAD SWAP1 PUSH1 0x20 ADD SWAP1 PUSH3 0x8C SWAP3 SWAP2 SWAP1 PUSH3 0xA5 JUMP JUMPDEST POP DUP2 PUSH1 0x6 DUP2 SWAP1 SSTORE POP DUP1 PUSH1 0x7 DUP2 SWAP1 SSTORE POP POP POP POP POP PUSH3 0x423 JUMP JUMPDEST DUP3 DUP1 SLOAD PUSH3 0xB3 SWAP1 PUSH3 0x31A JUMP JUMPDEST SWAP1 PUSH1 0x0 MSTORE PUSH1 0x20 PUSH1 0x0 KECCAK256 SWAP1 PUSH1 0x1F ADD PUSH1 0x20 SWAP1 DIV DUP2 ADD SWAP3 DUP3 PUSH3 0xD7 JUMPI PUSH1 0x0 DUP6 SSTORE PUSH3 0x123 JUMP JUMPDEST DUP3 PUSH1 0x1F LT PUSH3 0xF2 JUMPI DUP1 MLOAD PUSH1 0xFF NOT AND DUP4 DUP1 ADD OR DUP6 SSTORE PUSH3 0x123 JUMP JUMPDEST DUP3 DUP1 ADD PUSH1 0x1 ADD DUP6 SSTORE DUP3 ISZERO PUSH3 0x123 JUMPI SWAP2 DUP3 ADD JUMPDEST DUP3 DUP2 GT ISZERO PUSH3 0x122 JUMPI DUP3 MLOAD DUP3 SSTORE SWAP2 PUSH1 0x20 ADD SWAP2 SWAP1 PUSH1 0x1 ADD SWAP1 PUSH3 0x105 JUMP JUMPDEST JUMPDEST POP SWAP1 POP PUSH3 0x132 SWAP2 SWAP1 PUSH3 0x136 JUMP JUMPDEST POP SWAP1 JUMP JUMPDEST JUMPDEST DUP1 DUP3 GT ISZERO PUSH3 0x151 JUMPI PUSH1 0x0 DUP2 PUSH1 0x0 SWAP1 SSTORE POP PUSH1 0x1 ADD PUSH3 0x137 JUMP JUMPDEST POP SWAP1 JUMP JUMPDEST PUSH1 0x0 PUSH3 0x16C PUSH3 0x166 DUP5 PUSH3 0x2A4 JUMP JUMPDEST PUSH3 0x27B JUMP JUMPDEST SWAP1 POP DUP3 DUP2 MSTORE PUSH1 0x20 DUP2 ADD DUP5 DUP5 DUP5 ADD GT ISZERO PUSH3 0x18B JUMPI PUSH3 0x18A PUSH3 0x3E9 JUMP JUMPDEST JUMPDEST PUSH3 0x198 DUP5 DUP3 DUP6 PUSH3 0x2E4 JUMP JUMPDEST POP SWAP4 SWAP3 POP POP POP JUMP JUMPDEST PUSH1 0x0 DUP3 PUSH1 0x1F DUP4 ADD SLT PUSH3 0x1B8 JUMPI PUSH3 0x1B7 PUSH3 0x3E4 JUMP JUMPDEST JUMPDEST DUP2 MLOAD PUSH3 0x1CA DUP5 DUP3 PUSH1 0x20 DUP7 ADD PUSH3 0x155 JUMP JUMPDEST SWAP2 POP POP SWAP3 SWAP2 POP POP JUMP JUMPDEST PUSH1 0x0 DUP2 MLOAD SWAP1 POP PUSH3 0x1E4 DUP2 PUSH3 0x409 JUMP JUMPDEST SWAP3 SWAP2 POP POP JUMP JUMPDEST PUSH1 0x0 DUP1 PUSH1 0x0 DUP1 PUSH1 0x80 DUP6 DUP8 SUB SLT ISZERO PUSH3 0x207 JUMPI PUSH3 0x206 PUSH3 0x3F3 JUMP JUMPDEST JUMPDEST PUSH1 0x0 PUSH3 0x217 DUP8 DUP3 DUP9 ADD PUSH3 0x1D3 JUMP JUMPDEST SWAP5 POP POP PUSH1 0x20 DUP6 ADD MLOAD PUSH8 0xFFFFFFFFFFFFFFFF DUP2 GT ISZERO PUSH3 0x23B JUMPI PUSH3 0x23A PUSH3 0x3EE JUMP JUMPDEST JUMPDEST PUSH3 0x249 DUP8 DUP3 DUP9 ADD PUSH3 0x1A0 JUMP JUMPDEST SWAP4 POP POP PUSH1 0x40 PUSH3 0x25C DUP8 DUP3 DUP9 ADD PUSH3 0x1D3 JUMP JUMPDEST SWAP3 POP POP PUSH1 0x60 PUSH3 0x26F DUP8 DUP3 DUP9 ADD PUSH3 0x1D3 JUMP JUMPDEST SWAP2 POP POP SWAP3 SWAP6 SWAP2 SWAP5 POP SWAP3 POP JUMP JUMPDEST PUSH1 0x0 PUSH3 0x287 PUSH3 0x29A JUMP JUMPDEST SWAP1 POP PUSH3 0x295 DUP3 DUP3 PUSH3 0x350 JUMP JUMPDEST SWAP2 SWAP1 POP JUMP JUMPDEST PUSH1 0x0 PUSH1 0x40 MLOAD SWAP1 POP SWAP1 JUMP JUMPDEST PUSH1 0x0 PUSH8 0xFFFFFFFFFFFFFFFF DUP3 GT ISZERO PUSH3 0x2C2 JUMPI PUSH3 0x2C1 PUSH3 0x3B5 JUMP JUMPDEST JUMPDEST PUSH3 0x2CD DUP3 PUSH3 0x3F8 JUMP JUMPDEST SWAP1 POP PUSH1 0x20 DUP2 ADD SWAP1 POP SWAP2 SWAP1 POP JUMP JUMPDEST PUSH1 0x0 DUP2 SWAP1 POP SWAP2 SWAP1 POP JUMP JUMPDEST PUSH1 0x0 JUMPDEST DUP4 DUP2 LT ISZERO PUSH3 0x304 JUMPI DUP1 DUP3 ADD MLOAD DUP2 DUP5 ADD MSTORE PUSH1 0x20 DUP2 ADD SWAP1 POP PUSH3 0x2E7 JUMP JUMPDEST DUP4 DUP2 GT ISZERO PUSH3 0x314 JUMPI PUSH1 0x0 DUP5 DUP5 ADD MSTORE JUMPDEST POP POP POP POP JUMP JUMPDEST PUSH1 0x0 PUSH1 0x2 DUP3 DIV SWAP1 POP PUSH1 0x1 DUP3 AND DUP1 PUSH3 0x333 JUMPI PUSH1 0x7F DUP3 AND SWAP2 POP JUMPDEST PUSH1 0x20 DUP3 LT DUP2 EQ ISZERO PUSH3 0x34A JUMPI PUSH3 0x349 PUSH3 0x386 JUMP JUMPDEST JUMPDEST POP SWAP2 SWAP1 POP JUMP JUMPDEST PUSH3 0x35B DUP3 PUSH3 0x3F8 JUMP JUMPDEST DUP2 ADD DUP2 DUP2 LT PUSH8 0xFFFFFFFFFFFFFFFF DUP3 GT OR ISZERO PUSH3 0x37D JUMPI PUSH3 0x37C PUSH3 0x3B5 JUMP JUMPDEST JUMPDEST DUP1 PUSH1 0x40 MSTORE POP POP POP JUMP JUMPDEST PUSH32 0x4E487B7100000000000000000000000000000000000000000000000000000000 PUSH1 0x0 MSTORE PUSH1 0x22 PUSH1 0x4 MSTORE PUSH1 0x24 PUSH1 0x0 REVERT JUMPDEST PUSH32 0x4E487B7100000000000000000000000000000000000000000000000000000000 PUSH1 0x0 MSTORE PUSH1 0x41 PUSH1 0x4 MSTORE PUSH1 0x24 PUSH1 0x0 REVERT JUMPDEST PUSH1 0x0 DUP1 REVERT JUMPDEST PUSH1 0x0 DUP1 REVERT JUMPDEST PUSH1 0x0 DUP1 REVERT JUMPDEST PUSH1 0x0 DUP1 REVERT JUMPDEST PUSH1 0x0 PUSH1 0x1F NOT PUSH1 0x1F DUP4 ADD AND SWAP1 POP SWAP2 SWAP1 POP JUMP JUMPDEST PUSH3 0x414 DUP2 PUSH3 0x2DA JUMP JUMPDEST DUP2 EQ PUSH3 0x420 JUMPI PUSH1 0x0 DUP1 REVERT JUMPDEST POP JUMP JUMPDEST PUSH2 0x568 DUP1 PUSH3 0x433 PUSH1 0x0 CODECOPY PUSH1 0x0 RETURN INVALID PUSH1 0x80 PUSH1 0x40 MSTORE CALLVALUE DUP1 ISZERO PUSH2 0x10 JUMPI PUSH1 0x0 DUP1 REVERT JUMPDEST POP PUSH1 0x4 CALLDATASIZE LT PUSH2 0x62 JUMPI PUSH1 0x0 CALLDATALOAD PUSH1 0xE0 SHR DUP1 PUSH4 0x3E70F704 EQ PUSH2 0x67 JUMPI DUP1 PUSH4 0x52446F53 EQ PUSH2 0x85 JUMPI DUP1 PUSH4 0x55E83FF7 EQ PUSH2 0xA3 JUMPI DUP1 PUSH4 0x5EA5CABE EQ PUSH2 0xC1 JUMPI DUP1 PUSH4 0xBB425717 EQ PUSH2 0xDF JUMPI DUP1 PUSH4 0xD685F038 EQ PUSH2 0xFD JUMPI JUMPDEST PUSH1 0x0 DUP1 REVERT JUMPDEST PUSH2 0x6F PUSH2 0x11B JUMP JUMPDEST PUSH1 0x40 MLOAD PUSH2 0x7C SWAP2 SWAP1 PUSH2 0x31E JUMP JUMPDEST PUSH1 0x40 MLOAD DUP1 SWAP2 SUB SWAP1 RETURN JUMPDEST PUSH2 0x8D PUSH2 0x184 JUMP JUMPDEST PUSH1 0x40 MLOAD PUSH2 0x9A SWAP2 SWAP1 PUSH2 0x340 JUMP JUMPDEST PUSH1 0x40 MLOAD DUP1 SWAP2 SUB SWAP1 RETURN JUMPDEST PUSH2 0xAB PUSH2 0x18E JUMP JUMPDEST PUSH1 0x40 MLOAD PUSH2 0xB8 SWAP2 SWAP1 PUSH2 0x31E JUMP JUMPDEST PUSH1 0x40 MLOAD DUP1 SWAP2 SUB SWAP1 RETURN JUMPDEST PUSH2 0xC9 PUSH2 0x230 JUMP JUMPDEST PUSH1 0x40 MLOAD PUSH2 0xD6 SWAP2 SWAP1 PUSH2 0x31E JUMP JUMPDEST PUSH1 0x40 MLOAD DUP1 SWAP2 SUB SWAP1 RETURN JUMPDEST PUSH2 0xE7 PUSH2 0x2C2 JUMP JUMPDEST PUSH1 0x40 MLOAD PUSH2 0xF4 SWAP2 SWAP1 PUSH2 0x340 JUMP JUMPDEST PUSH1 0x40 MLOAD DUP1 SWAP2 SUB SWAP1 RETURN JUMPDEST PUSH2 0x105 PUSH2 0x2CC JUMP JUMPDEST PUSH1 0x40 MLOAD PUSH2 0x112 SWAP2 SWAP1 PUSH2 0x340 JUMP JUMPDEST PUSH1 0x40 MLOAD DUP1 SWAP2 SUB SWAP1 RETURN JUMPDEST PUSH1 0x60 PUSH1 0x37 PUSH1 0x3 SLOAD GT ISZERO PUSH2 0x165 JUMPI PUSH1 0x40 MLOAD DUP1 PUSH1 0x40 ADD PUSH1 0x40 MSTORE DUP1 PUSH1 0x16 DUP2 MSTORE PUSH1 0x20 ADD PUSH32 0x456C696769626C6520666F722061646D697373696F6E00000000000000000000 DUP2 MSTORE POP SWAP1 POP PUSH2 0x181 JUMP JUMPDEST PUSH1 0x40 MLOAD DUP1 PUSH1 0x60 ADD PUSH1 0x40 MSTORE DUP1 PUSH1 0x37 DUP2 MSTORE PUSH1 0x20 ADD PUSH2 0x4C8 PUSH1 0x37 SWAP2 CODECOPY SWAP1 POP JUMPDEST SWAP1 JUMP JUMPDEST PUSH1 0x0 PUSH1 0x4 SLOAD SWAP1 POP SWAP1 JUMP JUMPDEST PUSH1 0x60 PUSH1 0x19 PUSH1 0x4 SLOAD GT ISZERO PUSH2 0x1BB JUMPI PUSH1 0x40 MLOAD DUP1 PUSH1 0x60 ADD PUSH1 0x40 MSTORE DUP1 PUSH1 0x3F DUP2 MSTORE PUSH1 0x20 ADD PUSH2 0x489 PUSH1 0x3F SWAP2 CODECOPY SWAP1 POP PUSH2 0x22D JUMP JUMPDEST PUSH1 0x3C PUSH1 0x7 SLOAD LT ISZERO PUSH2 0x1E6 JUMPI PUSH1 0x40 MLOAD DUP1 PUSH1 0x60 ADD PUSH1 0x40 MSTORE DUP1 PUSH1 0x2F DUP2 MSTORE PUSH1 0x20 ADD PUSH2 0x45A PUSH1 0x2F SWAP2 CODECOPY SWAP1 POP PUSH2 0x22D JUMP JUMPDEST PUSH1 0x23 PUSH1 0x6 SLOAD GT ISZERO PUSH2 0x211 JUMPI PUSH1 0x40 MLOAD DUP1 PUSH1 0x60 ADD PUSH1 0x40 MSTORE DUP1 PUSH1 0x34 DUP2 MSTORE PUSH1 0x20 ADD PUSH2 0x4FF PUSH1 0x34 SWAP2 CODECOPY SWAP1 POP PUSH2 0x22D JUMP JUMPDEST PUSH1 0x40 MLOAD DUP1 PUSH1 0x60 ADD PUSH1 0x40 MSTORE DUP1 PUSH1 0x33 DUP2 MSTORE PUSH1 0x20 ADD PUSH2 0x427 PUSH1 0x33 SWAP2 CODECOPY SWAP1 POP JUMPDEST SWAP1 JUMP JUMPDEST PUSH1 0x60 PUSH1 0x5 DUP1 SLOAD PUSH2 0x23F SWAP1 PUSH2 0x3B4 JUMP JUMPDEST DUP1 PUSH1 0x1F ADD PUSH1 0x20 DUP1 SWAP2 DIV MUL PUSH1 0x20 ADD PUSH1 0x40 MLOAD SWAP1 DUP2 ADD PUSH1 0x40 MSTORE DUP1 SWAP3 SWAP2 SWAP1 DUP2 DUP2 MSTORE PUSH1 0x20 ADD DUP3 DUP1 SLOAD PUSH2 0x26B SWAP1 PUSH2 0x3B4 JUMP JUMPDEST DUP1 ISZERO PUSH2 0x2B8 JUMPI DUP1 PUSH1 0x1F LT PUSH2 0x28D JUMPI PUSH2 0x100 DUP1 DUP4 SLOAD DIV MUL DUP4 MSTORE SWAP2 PUSH1 0x20 ADD SWAP2 PUSH2 0x2B8 JUMP JUMPDEST DUP3 ADD SWAP2 SWAP1 PUSH1 0x0 MSTORE PUSH1 0x20 PUSH1 0x0 KECCAK256 SWAP1 JUMPDEST DUP2 SLOAD DUP2 MSTORE SWAP1 PUSH1 0x1 ADD SWAP1 PUSH1 0x20 ADD DUP1 DUP4 GT PUSH2 0x29B JUMPI DUP3 SWAP1 SUB PUSH1 0x1F AND DUP3 ADD SWAP2 JUMPDEST POP POP POP POP POP SWAP1 POP SWAP1 JUMP JUMPDEST PUSH1 0x0 PUSH1 0x7 SLOAD SWAP1 POP SWAP1 JUMP JUMPDEST PUSH1 0x0 PUSH1 0x6 SLOAD SWAP1 POP SWAP1 JUMP JUMPDEST PUSH1 0x0 PUSH2 0x2E1 DUP3 PUSH2 0x35B JUMP JUMPDEST PUSH2 0x2EB DUP2 DUP6 PUSH2 0x366 JUMP JUMPDEST SWAP4 POP PUSH2 0x2FB DUP2 DUP6 PUSH1 0x20 DUP7 ADD PUSH2 0x381 JUMP JUMPDEST PUSH2 0x304 DUP2 PUSH2 0x415 JUMP JUMPDEST DUP5 ADD SWAP2 POP POP SWAP3 SWAP2 POP POP JUMP JUMPDEST PUSH2 0x318 DUP2 PUSH2 0x377 JUMP JUMPDEST DUP3 MSTORE POP POP JUMP JUMPDEST PUSH1 0x0 PUSH1 0x20 DUP3 ADD SWAP1 POP DUP2 DUP2 SUB PUSH1 0x0 DUP4 ADD MSTORE PUSH2 0x338 DUP2 DUP5 PUSH2 0x2D6 JUMP JUMPDEST SWAP1 POP SWAP3 SWAP2 POP POP JUMP JUMPDEST PUSH1 0x0 PUSH1 0x20 DUP3 ADD SWAP1 POP PUSH2 0x355 PUSH1 0x0 DUP4 ADD DUP5 PUSH2 0x30F JUMP JUMPDEST SWAP3 SWAP2 POP POP JUMP JUMPDEST PUSH1 0x0 DUP2 MLOAD SWAP1 POP SWAP2 SWAP1 POP JUMP JUMPDEST PUSH1 0x0 DUP3 DUP3 MSTORE PUSH1 0x20 DUP3 ADD SWAP1 POP SWAP3 SWAP2 POP POP JUMP JUMPDEST PUSH1 0x0 DUP2 SWAP1 POP SWAP2 SWAP1 POP JUMP JUMPDEST PUSH1 0x0 JUMPDEST DUP4 DUP2 LT ISZERO PUSH2 0x39F JUMPI DUP1 DUP3 ADD MLOAD DUP2 DUP5 ADD MSTORE PUSH1 0x20 DUP2 ADD SWAP1 POP PUSH2 0x384 JUMP JUMPDEST DUP4 DUP2 GT ISZERO PUSH2 0x3AE JUMPI PUSH1 0x0 DUP5 DUP5 ADD MSTORE JUMPDEST POP POP POP POP JUMP JUMPDEST PUSH1 0x0 PUSH1 0x2 DUP3 DIV SWAP1 POP PUSH1 0x1 DUP3 AND DUP1 PUSH2 0x3CC JUMPI PUSH1 0x7F DUP3 AND SWAP2 POP JUMPDEST PUSH1 0x20 DUP3 LT DUP2 EQ ISZERO PUSH2 0x3E0 JUMPI PUSH2 0x3DF PUSH2 0x3E6 JUMP JUMPDEST JUMPDEST POP SWAP2 SWAP1 POP JUMP JUMPDEST PUSH32 0x4E487B7100000000000000000000000000000000000000000000000000000000 PUSH1 0x0 MSTORE PUSH1 0x22 PUSH1 0x4 MSTORE PUSH1 0x24 PUSH1 0x0 REVERT JUMPDEST PUSH1 0x0 PUSH1 0x1F NOT PUSH1 0x1F DUP4 ADD AND SWAP1 POP SWAP2 SWAP1 POP JUMP INVALID NUMBER PUSH16 0x6E67726174756C6174696F6E2120796F PUSH22 0x206172652073656C656374656420666F722074686973 KECCAK256 PUSH20 0x63686F6F6C2121214E6F7420656C6C696769626C PUSH6 0x20666F722061 PUSH5 0x6D69737369 PUSH16 0x6E20677261646520697320746F6F206C PUSH16 0x772121214E6F7420656C6C696769626C PUSH6 0x20666F722061 PUSH5 0x6D69737369 PUSH16 0x6E20696E20616E6F7468657220736368 PUSH16 0x6F6C2061676520697320746F20686967 PUSH9 0x2121214E6F7420656C PUSH10 0x6769626C6520666F7220 PUSH21 0x68697320636F6C6C6567652E20426574746572206C PUSH22 0x636B206E6578742074696D652121214E6F7420656C69 PUSH8 0x69626C6520666F72 KECCAK256 PUSH2 0x646D PUSH10 0x7373696F6E20726F6C6C PUSH15 0x756D62657220697320746F6F206869 PUSH8 0x68212121A2646970 PUSH7 0x7358221220C69D 0x2F DUP6 DUP14 MULMOD CALL 0xE 0xED CREATE 0xE3 0x2C 0xEE 0xC3 CALLDATALOAD DUP6 SELFBALANCE PUSH27 0xB83129493A1EE938677785C9CFC264736F6C634300080700330000 "
				},
				"gasEstimates": {
					"creation": {
						"codeDepositCost": "276800",
						"executionCost": "infinite",
						"totalCost": "infinite"
					},
					"external": {
						"admissionVerificationRequirment()": "infinite",
						"returnAge()": "2437",
						"returnGrade()": "2503",
						"returnName()": "infinite",
						"returnRollNo()": "2525",
						"verifyAdmission()": "infinite"
					}
				},
				"methodIdentifiers": {
					"admissionVerificationRequirment()": "55e83ff7",
					"returnAge()": "52446f53",
					"returnGrade()": "bb425717",
					"returnName()": "5ea5cabe",
					"returnRollNo()": "d685f038",
					"verifyAdmission()": "3e70f704"
				}
			},
			"storageLayout": {
				"storage": [
					{
						"astId": 3,
						"contract": "solidity practice/inheritance.sol:AnotherSchool",
						"label": "age",
						"offset": 0,
						"slot": "0",
						"type": "t_uint256"
					},
					{
						"astId": 5,
						"contract": "solidity practice/inheritance.sol:AnotherSchool",
						"label": "name",
						"offset": 0,
						"slot": "1",
						"type": "t_string_storage"
					},
					{
						"astId": 7,
						"contract": "solidity practice/inheritance.sol:AnotherSchool",
						"label": "rollNo",
						"offset": 0,
						"slot": "2",
						"type": "t_uint256"
					},
					{
						"astId": 9,
						"contract": "solidity practice/inheritance.sol:AnotherSchool",
						"label": "grade",
						"offset": 0,
						"slot": "3",
						"type": "t_uint256"
					},
					{
						"astId": 93,
						"contract": "solidity practice/inheritance.sol:AnotherSchool",
						"label": "__age",
						"offset": 0,
						"slot": "4",
						"type": "t_uint256"
					},
					{
						"astId": 95,
						"contract": "solidity practice/inheritance.sol:AnotherSchool",
						"label": "__name",
						"offset": 0,
						"slot": "5",
						"type": "t_string_storage"
					},
					{
						"astId": 97,
						"contract": "solidity practice/inheritance.sol:AnotherSchool",
						"label": "__rollNumber",
						"offset": 0,
						"slot": "6",
						"type": "t_uint256"
					},
					{
						"astId": 99,
						"contract": "solidity practice/inheritance.sol:AnotherSchool",
						"label": "__grade",
						"offset": 0,
						"slot": "7",
						"type": "t_uint256"
					}
				],
				"types": {
					"t_string_storage": {
						"encoding": "bytes",
						"label": "string",
						"numberOfBytes": "32"
					},
					"t_uint256": {
						"encoding": "inplace",
						"label": "uint256",
						"numberOfBytes": "32"
					}
				}
			},
			"userdoc": {
				"kind": "user",
				"methods": {},
				"version": 1
			}
		}
	}
}