{
	"solidity practice/inheritance.sol": {
		"Ram": {
			"abi": [
				{
					"inputs": [
						{
							"internalType": "uint256",
							"name": "_bookCount",
							"type": "uint256"
						}
					],
					"stateMutability": "nonpayable",
					"type": "constructor"
				},
				{
					"inputs": [],
					"name": "checkbookCount",
					"outputs": [
						{
							"internalType": "string",
							"name": "",
							"type": "string"
						}
					],
					"stateMutability": "view",
					"type": "function"
				},
				{
					"inputs": [],
					"name": "verifyAdmission",
					"outputs": [
						{
							"internalType": "string",
							"name": "",
							"type": "string"
						}
					],
					"stateMutability": "view",
					"type": "function"
				}
			],
			"devdoc": {
				"kind": "dev",
				"methods": {},
				"version": 1
			},
			"evm": {
				"assembly": "    /* \"solidity practice/inheritance.sol\":562:919  contract Ram is Student(21, \"ram shrestha\", 25, 56){... */\n  mstore(0x40, 0x80)\n    /* \"solidity practice/inheritance.sol\":639:704  constructor(uint _bookCount){... */\n  callvalue\n  dup1\n  iszero\n  tag_1\n  jumpi\n  0x00\n  dup1\n  revert\ntag_1:\n  pop\n  mload(0x40)\n  sub(codesize, bytecodeSize)\n  dup1\n  bytecodeSize\n  dup4\n  codecopy\n  dup2\n  dup2\n  add\n  0x40\n  mstore\n  dup2\n  add\n  swap1\n  tag_2\n  swap2\n  swap1\n  tag_3\n  jump\t// in\ntag_2:\n    /* \"solidity practice/inheritance.sol\":586:588  21 */\n  0x15\n    /* \"solidity practice/inheritance.sol\":154:315  constructor(uint _age, string memory _name, uint _rollNo, uint _grade){... */\n  mload(0x40)\n  dup1\n  0x40\n  add\n  0x40\n  mstore\n  dup1\n  0x0c\n  dup2\n  mstore\n  0x20\n  add\n  0x72616d2073687265737468610000000000000000000000000000000000000000\n  dup2\n  mstore\n  pop\n    /* \"solidity practice/inheritance.sol\":606:608  25 */\n  0x19\n    /* \"solidity practice/inheritance.sol\":610:612  56 */\n  0x38\n    /* \"solidity practice/inheritance.sol\":238:242  _age */\n  dup4\n    /* \"solidity practice/inheritance.sol\":234:237  age */\n  0x00\n    /* \"solidity practice/inheritance.sol\":234:242  age=_age */\n  dup2\n  swap1\n  sstore\n  pop\n    /* \"solidity practice/inheritance.sol\":257:262  _name */\n  dup3\n    /* \"solidity practice/inheritance.sol\":252:256  name */\n  0x01\n    /* \"solidity practice/inheritance.sol\":252:262  name=_name */\n  swap1\n  dup1\n  mload\n  swap1\n  0x20\n  add\n  swap1\n  tag_7\n  swap3\n  swap2\n  swap1\n  tag_8\n  jump\t// in\ntag_7:\n  pop\n    /* \"solidity practice/inheritance.sol\":279:286  _rollNo */\n  dup2\n    /* \"solidity practice/inheritance.sol\":272:278  rollNo */\n  0x02\n    /* \"solidity practice/inheritance.sol\":272:286  rollNo=_rollNo */\n  dup2\n  swap1\n  sstore\n  pop\n    /* \"solidity practice/inheritance.sol\":302:308  _grade */\n  dup1\n    /* \"solidity practice/inheritance.sol\":296:301  grade */\n  0x03\n    /* \"solidity practice/inheritance.sol\":296:308  grade=_grade */\n  dup2\n  swap1\n  sstore\n  pop\n    /* \"solidity practice/inheritance.sol\":154:315  constructor(uint _age, string memory _name, uint _rollNo, uint _grade){... */\n  pop\n  pop\n  pop\n  pop\n    /* \"solidity practice/inheritance.sol\":687:697  _bookCount */\n  dup1\n    /* \"solidity practice/inheritance.sol\":677:686  bookCount */\n  0x04\n    /* \"solidity practice/inheritance.sol\":677:697  bookCount=_bookCount */\n  dup2\n  swap1\n  sstore\n  pop\n    /* \"solidity practice/inheritance.sol\":639:704  constructor(uint _bookCount){... */\n  pop\n    /* \"solidity practice/inheritance.sol\":562:919  contract Ram is Student(21, \"ram shrestha\", 25, 56){... */\n  jump(tag_10)\ntag_8:\n  dup3\n  dup1\n  sload\n  tag_11\n  swap1\n  tag_12\n  jump\t// in\ntag_11:\n  swap1\n  0x00\n  mstore\n  keccak256(0x00, 0x20)\n  swap1\n  0x1f\n  add\n  0x20\n  swap1\n  div\n  dup2\n  add\n  swap3\n  dup3\n  tag_14\n  jumpi\n  0x00\n  dup6\n  sstore\n  jump(tag_13)\ntag_14:\n  dup3\n  0x1f\n  lt\n  tag_15\n  jumpi\n  dup1\n  mload\n  not(0xff)\n  and\n  dup4\n  dup1\n  add\n  or\n  dup6\n  sstore\n  jump(tag_13)\ntag_15:\n  dup3\n  dup1\n  add\n  0x01\n  add\n  dup6\n  sstore\n  dup3\n  iszero\n  tag_13\n  jumpi\n  swap2\n  dup3\n  add\ntag_16:\n  dup3\n  dup2\n  gt\n  iszero\n  tag_17\n  jumpi\n  dup3\n  mload\n  dup3\n  sstore\n  swap2\n  0x20\n  add\n  swap2\n  swap1\n  0x01\n  add\n  swap1\n  jump(tag_16)\ntag_17:\ntag_13:\n  pop\n  swap1\n  pop\n  tag_18\n  swap2\n  swap1\n  tag_19\n  jump\t// in\ntag_18:\n  pop\n  swap1\n  jump\t// out\ntag_19:\ntag_20:\n  dup1\n  dup3\n  gt\n  iszero\n  tag_21\n  jumpi\n  0x00\n  dup2\n  0x00\n  swap1\n  sstore\n  pop\n  0x01\n  add\n  jump(tag_20)\ntag_21:\n  pop\n  swap1\n  jump\t// out\n    /* \"#utility.yul\":7:150   */\ntag_23:\n    /* \"#utility.yul\":64:69   */\n  0x00\n    /* \"#utility.yul\":95:101   */\n  dup2\n    /* \"#utility.yul\":89:102   */\n  mload\n    /* \"#utility.yul\":80:102   */\n  swap1\n  pop\n    /* \"#utility.yul\":111:144   */\n  tag_25\n    /* \"#utility.yul\":138:143   */\n  dup2\n    /* \"#utility.yul\":111:144   */\n  tag_26\n  jump\t// in\ntag_25:\n    /* \"#utility.yul\":7:150   */\n  swap3\n  swap2\n  pop\n  pop\n  jump\t// out\n    /* \"#utility.yul\":156:507   */\ntag_3:\n    /* \"#utility.yul\":226:232   */\n  0x00\n    /* \"#utility.yul\":275:277   */\n  0x20\n    /* \"#utility.yul\":263:272   */\n  dup3\n    /* \"#utility.yul\":254:261   */\n  dup5\n    /* \"#utility.yul\":250:273   */\n  sub\n    /* \"#utility.yul\":246:278   */\n  slt\n    /* \"#utility.yul\":243:362   */\n  iszero\n  tag_28\n  jumpi\n    /* \"#utility.yul\":281:360   */\n  tag_29\n  tag_30\n  jump\t// in\ntag_29:\n    /* \"#utility.yul\":243:362   */\ntag_28:\n    /* \"#utility.yul\":401:402   */\n  0x00\n    /* \"#utility.yul\":426:490   */\n  tag_31\n    /* \"#utility.yul\":482:489   */\n  dup5\n    /* \"#utility.yul\":473:479   */\n  dup3\n    /* \"#utility.yul\":462:471   */\n  dup6\n    /* \"#utility.yul\":458:480   */\n  add\n    /* \"#utility.yul\":426:490   */\n  tag_23\n  jump\t// in\ntag_31:\n    /* \"#utility.yul\":416:490   */\n  swap2\n  pop\n    /* \"#utility.yul\":372:500   */\n  pop\n    /* \"#utility.yul\":156:507   */\n  swap3\n  swap2\n  pop\n  pop\n  jump\t// out\n    /* \"#utility.yul\":594:671   */\ntag_34:\n    /* \"#utility.yul\":631:638   */\n  0x00\n    /* \"#utility.yul\":660:665   */\n  dup2\n    /* \"#utility.yul\":649:665   */\n  swap1\n  pop\n    /* \"#utility.yul\":594:671   */\n  swap2\n  swap1\n  pop\n  jump\t// out\n    /* \"#utility.yul\":677:997   */\ntag_12:\n    /* \"#utility.yul\":721:727   */\n  0x00\n    /* \"#utility.yul\":758:759   */\n  0x02\n    /* \"#utility.yul\":752:756   */\n  dup3\n    /* \"#utility.yul\":748:760   */\n  div\n    /* \"#utility.yul\":738:760   */\n  swap1\n  pop\n    /* \"#utility.yul\":805:806   */\n  0x01\n    /* \"#utility.yul\":799:803   */\n  dup3\n    /* \"#utility.yul\":795:807   */\n  and\n    /* \"#utility.yul\":826:844   */\n  dup1\n    /* \"#utility.yul\":816:897   */\n  tag_37\n  jumpi\n    /* \"#utility.yul\":882:886   */\n  0x7f\n    /* \"#utility.yul\":874:880   */\n  dup3\n    /* \"#utility.yul\":870:887   */\n  and\n    /* \"#utility.yul\":860:887   */\n  swap2\n  pop\n    /* \"#utility.yul\":816:897   */\ntag_37:\n    /* \"#utility.yul\":944:946   */\n  0x20\n    /* \"#utility.yul\":936:942   */\n  dup3\n    /* \"#utility.yul\":933:947   */\n  lt\n    /* \"#utility.yul\":913:931   */\n  dup2\n    /* \"#utility.yul\":910:948   */\n  eq\n    /* \"#utility.yul\":907:991   */\n  iszero\n  tag_38\n  jumpi\n    /* \"#utility.yul\":963:981   */\n  tag_39\n  tag_40\n  jump\t// in\ntag_39:\n    /* \"#utility.yul\":907:991   */\ntag_38:\n    /* \"#utility.yul\":728:997   */\n  pop\n    /* \"#utility.yul\":677:997   */\n  swap2\n  swap1\n  pop\n  jump\t// out\n    /* \"#utility.yul\":1003:1183   */\ntag_40:\n    /* \"#utility.yul\":1051:1128   */\n  0x4e487b7100000000000000000000000000000000000000000000000000000000\n    /* \"#utility.yul\":1048:1049   */\n  0x00\n    /* \"#utility.yul\":1041:1129   */\n  mstore\n    /* \"#utility.yul\":1148:1152   */\n  0x22\n    /* \"#utility.yul\":1145:1146   */\n  0x04\n    /* \"#utility.yul\":1138:1153   */\n  mstore\n    /* \"#utility.yul\":1172:1176   */\n  0x24\n    /* \"#utility.yul\":1169:1170   */\n  0x00\n    /* \"#utility.yul\":1162:1177   */\n  revert\n    /* \"#utility.yul\":1312:1429   */\ntag_30:\n    /* \"#utility.yul\":1421:1422   */\n  0x00\n    /* \"#utility.yul\":1418:1419   */\n  dup1\n    /* \"#utility.yul\":1411:1423   */\n  revert\n    /* \"#utility.yul\":1435:1557   */\ntag_26:\n    /* \"#utility.yul\":1508:1532   */\n  tag_46\n    /* \"#utility.yul\":1526:1531   */\n  dup2\n    /* \"#utility.yul\":1508:1532   */\n  tag_34\n  jump\t// in\ntag_46:\n    /* \"#utility.yul\":1501:1506   */\n  dup2\n    /* \"#utility.yul\":1498:1533   */\n  eq\n    /* \"#utility.yul\":1488:1551   */\n  tag_47\n  jumpi\n    /* \"#utility.yul\":1547:1548   */\n  0x00\n    /* \"#utility.yul\":1544:1545   */\n  dup1\n    /* \"#utility.yul\":1537:1549   */\n  revert\n    /* \"#utility.yul\":1488:1551   */\ntag_47:\n    /* \"#utility.yul\":1435:1557   */\n  pop\n  jump\t// out\n    /* \"solidity practice/inheritance.sol\":562:919  contract Ram is Student(21, \"ram shrestha\", 25, 56){... */\ntag_10:\n  dataSize(sub_0)\n  dup1\n  dataOffset(sub_0)\n  0x00\n  codecopy\n  0x00\n  return\nstop\n\nsub_0: assembly {\n        /* \"solidity practice/inheritance.sol\":562:919  contract Ram is Student(21, \"ram shrestha\", 25, 56){... */\n      mstore(0x40, 0x80)\n      callvalue\n      dup1\n      iszero\n      tag_1\n      jumpi\n      0x00\n      dup1\n      revert\n    tag_1:\n      pop\n      jumpi(tag_2, lt(calldatasize, 0x04))\n      shr(0xe0, calldataload(0x00))\n      dup1\n      0x3e70f704\n      eq\n      tag_3\n      jumpi\n      dup1\n      0xf7379710\n      eq\n      tag_4\n      jumpi\n    tag_2:\n      0x00\n      dup1\n      revert\n        /* \"solidity practice/inheritance.sol\":321:558  function verifyAdmission()public view returns(string memory){... */\n    tag_3:\n      tag_5\n      tag_6\n      jump\t// in\n    tag_5:\n      mload(0x40)\n      tag_7\n      swap2\n      swap1\n      tag_8\n      jump\t// in\n    tag_7:\n      mload(0x40)\n      dup1\n      swap2\n      sub\n      swap1\n      return\n        /* \"solidity practice/inheritance.sol\":710:916  function checkbookCount()public view returns(string memory){... */\n    tag_4:\n      tag_9\n      tag_10\n      jump\t// in\n    tag_9:\n      mload(0x40)\n      tag_11\n      swap2\n      swap1\n      tag_8\n      jump\t// in\n    tag_11:\n      mload(0x40)\n      dup1\n      swap2\n      sub\n      swap1\n      return\n        /* \"solidity practice/inheritance.sol\":321:558  function verifyAdmission()public view returns(string memory){... */\n    tag_6:\n        /* \"solidity practice/inheritance.sol\":367:380  string memory */\n      0x60\n        /* \"solidity practice/inheritance.sol\":400:402  55 */\n      0x37\n        /* \"solidity practice/inheritance.sol\":394:399  grade */\n      sload(0x03)\n        /* \"solidity practice/inheritance.sol\":394:402  grade>55 */\n      gt\n        /* \"solidity practice/inheritance.sol\":391:552  if(grade>55){... */\n      iszero\n      tag_13\n      jumpi\n        /* \"solidity practice/inheritance.sol\":417:448  return \"Eligible for admission\" */\n      mload(0x40)\n      dup1\n      0x40\n      add\n      0x40\n      mstore\n      dup1\n      0x16\n      dup2\n      mstore\n      0x20\n      add\n      0x456c696769626c6520666f722061646d697373696f6e00000000000000000000\n      dup2\n      mstore\n      pop\n      swap1\n      pop\n      jump(tag_12)\n        /* \"solidity practice/inheritance.sol\":391:552  if(grade>55){... */\n    tag_13:\n        /* \"solidity practice/inheritance.sol\":477:541  return \"Not eligible for this college. Better luck next time!!!\" */\n      mload(0x40)\n      dup1\n      0x60\n      add\n      0x40\n      mstore\n      dup1\n      0x37\n      dup2\n      mstore\n      0x20\n      add\n      data_a41d6bc024f30f8b8a3d1abb1dc065726795ead0cf29e771c4d6df9781dd7fbb\n      0x37\n      swap2\n      codecopy\n      swap1\n      pop\n        /* \"solidity practice/inheritance.sol\":321:558  function verifyAdmission()public view returns(string memory){... */\n    tag_12:\n      swap1\n      jump\t// out\n        /* \"solidity practice/inheritance.sol\":710:916  function checkbookCount()public view returns(string memory){... */\n    tag_10:\n        /* \"solidity practice/inheritance.sol\":755:768  string memory */\n      0x60\n        /* \"solidity practice/inheritance.sol\":793:796  100 */\n      0x64\n        /* \"solidity practice/inheritance.sol\":782:791  bookCount */\n      sload(0x04)\n        /* \"solidity practice/inheritance.sol\":782:796  bookCount>=100 */\n      lt\n        /* \"solidity practice/inheritance.sol\":779:910  if(bookCount>=100){... */\n      tag_16\n      jumpi\n        /* \"solidity practice/inheritance.sol\":811:837  return \"Ill get admission\" */\n      mload(0x40)\n      dup1\n      0x40\n      add\n      0x40\n      mstore\n      dup1\n      0x11\n      dup2\n      mstore\n      0x20\n      add\n      0x496c6c206765742061646d697373696f6e000000000000000000000000000000\n      dup2\n      mstore\n      pop\n      swap1\n      pop\n      jump(tag_15)\n        /* \"solidity practice/inheritance.sol\":779:910  if(bookCount>=100){... */\n    tag_16:\n        /* \"solidity practice/inheritance.sol\":866:899  return \"Sorry try next student!!\" */\n      mload(0x40)\n      dup1\n      0x40\n      add\n      0x40\n      mstore\n      dup1\n      0x18\n      dup2\n      mstore\n      0x20\n      add\n      0x536f72727920747279206e6578742073747564656e7421210000000000000000\n      dup2\n      mstore\n      pop\n      swap1\n      pop\n        /* \"solidity practice/inheritance.sol\":710:916  function checkbookCount()public view returns(string memory){... */\n    tag_15:\n      swap1\n      jump\t// out\n        /* \"#utility.yul\":7:371   */\n    tag_19:\n        /* \"#utility.yul\":95:98   */\n      0x00\n        /* \"#utility.yul\":123:162   */\n      tag_21\n        /* \"#utility.yul\":156:161   */\n      dup3\n        /* \"#utility.yul\":123:162   */\n      tag_22\n      jump\t// in\n    tag_21:\n        /* \"#utility.yul\":178:249   */\n      tag_23\n        /* \"#utility.yul\":242:248   */\n      dup2\n        /* \"#utility.yul\":237:240   */\n      dup6\n        /* \"#utility.yul\":178:249   */\n      tag_24\n      jump\t// in\n    tag_23:\n        /* \"#utility.yul\":171:249   */\n      swap4\n      pop\n        /* \"#utility.yul\":258:310   */\n      tag_25\n        /* \"#utility.yul\":303:309   */\n      dup2\n        /* \"#utility.yul\":298:301   */\n      dup6\n        /* \"#utility.yul\":291:295   */\n      0x20\n        /* \"#utility.yul\":284:289   */\n      dup7\n        /* \"#utility.yul\":280:296   */\n      add\n        /* \"#utility.yul\":258:310   */\n      tag_26\n      jump\t// in\n    tag_25:\n        /* \"#utility.yul\":335:364   */\n      tag_27\n        /* \"#utility.yul\":357:363   */\n      dup2\n        /* \"#utility.yul\":335:364   */\n      tag_28\n      jump\t// in\n    tag_27:\n        /* \"#utility.yul\":330:333   */\n      dup5\n        /* \"#utility.yul\":326:365   */\n      add\n        /* \"#utility.yul\":319:365   */\n      swap2\n      pop\n        /* \"#utility.yul\":99:371   */\n      pop\n        /* \"#utility.yul\":7:371   */\n      swap3\n      swap2\n      pop\n      pop\n      jump\t// out\n        /* \"#utility.yul\":377:690   */\n    tag_8:\n        /* \"#utility.yul\":490:494   */\n      0x00\n        /* \"#utility.yul\":528:530   */\n      0x20\n        /* \"#utility.yul\":517:526   */\n      dup3\n        /* \"#utility.yul\":513:531   */\n      add\n        /* \"#utility.yul\":505:531   */\n      swap1\n      pop\n        /* \"#utility.yul\":577:586   */\n      dup2\n        /* \"#utility.yul\":571:575   */\n      dup2\n        /* \"#utility.yul\":567:587   */\n      sub\n        /* \"#utility.yul\":563:564   */\n      0x00\n        /* \"#utility.yul\":552:561   */\n      dup4\n        /* \"#utility.yul\":548:565   */\n      add\n        /* \"#utility.yul\":541:588   */\n      mstore\n        /* \"#utility.yul\":605:683   */\n      tag_30\n        /* \"#utility.yul\":678:682   */\n      dup2\n        /* \"#utility.yul\":669:675   */\n      dup5\n        /* \"#utility.yul\":605:683   */\n      tag_19\n      jump\t// in\n    tag_30:\n        /* \"#utility.yul\":597:683   */\n      swap1\n      pop\n        /* \"#utility.yul\":377:690   */\n      swap3\n      swap2\n      pop\n      pop\n      jump\t// out\n        /* \"#utility.yul\":696:795   */\n    tag_22:\n        /* \"#utility.yul\":748:754   */\n      0x00\n        /* \"#utility.yul\":782:787   */\n      dup2\n        /* \"#utility.yul\":776:788   */\n      mload\n        /* \"#utility.yul\":766:788   */\n      swap1\n      pop\n        /* \"#utility.yul\":696:795   */\n      swap2\n      swap1\n      pop\n      jump\t// out\n        /* \"#utility.yul\":801:970   */\n    tag_24:\n        /* \"#utility.yul\":885:896   */\n      0x00\n        /* \"#utility.yul\":919:925   */\n      dup3\n        /* \"#utility.yul\":914:917   */\n      dup3\n        /* \"#utility.yul\":907:926   */\n      mstore\n        /* \"#utility.yul\":959:963   */\n      0x20\n        /* \"#utility.yul\":954:957   */\n      dup3\n        /* \"#utility.yul\":950:964   */\n      add\n        /* \"#utility.yul\":935:964   */\n      swap1\n      pop\n        /* \"#utility.yul\":801:970   */\n      swap3\n      swap2\n      pop\n      pop\n      jump\t// out\n        /* \"#utility.yul\":976:1283   */\n    tag_26:\n        /* \"#utility.yul\":1044:1045   */\n      0x00\n        /* \"#utility.yul\":1054:1167   */\n    tag_34:\n        /* \"#utility.yul\":1068:1074   */\n      dup4\n        /* \"#utility.yul\":1065:1066   */\n      dup2\n        /* \"#utility.yul\":1062:1075   */\n      lt\n        /* \"#utility.yul\":1054:1167   */\n      iszero\n      tag_36\n      jumpi\n        /* \"#utility.yul\":1153:1154   */\n      dup1\n        /* \"#utility.yul\":1148:1151   */\n      dup3\n        /* \"#utility.yul\":1144:1155   */\n      add\n        /* \"#utility.yul\":1138:1156   */\n      mload\n        /* \"#utility.yul\":1134:1135   */\n      dup2\n        /* \"#utility.yul\":1129:1132   */\n      dup5\n        /* \"#utility.yul\":1125:1136   */\n      add\n        /* \"#utility.yul\":1118:1157   */\n      mstore\n        /* \"#utility.yul\":1090:1092   */\n      0x20\n        /* \"#utility.yul\":1087:1088   */\n      dup2\n        /* \"#utility.yul\":1083:1093   */\n      add\n        /* \"#utility.yul\":1078:1093   */\n      swap1\n      pop\n        /* \"#utility.yul\":1054:1167   */\n      jump(tag_34)\n    tag_36:\n        /* \"#utility.yul\":1185:1191   */\n      dup4\n        /* \"#utility.yul\":1182:1183   */\n      dup2\n        /* \"#utility.yul\":1179:1192   */\n      gt\n        /* \"#utility.yul\":1176:1277   */\n      iszero\n      tag_37\n      jumpi\n        /* \"#utility.yul\":1265:1266   */\n      0x00\n        /* \"#utility.yul\":1256:1262   */\n      dup5\n        /* \"#utility.yul\":1251:1254   */\n      dup5\n        /* \"#utility.yul\":1247:1263   */\n      add\n        /* \"#utility.yul\":1240:1267   */\n      mstore\n        /* \"#utility.yul\":1176:1277   */\n    tag_37:\n        /* \"#utility.yul\":1025:1283   */\n      pop\n        /* \"#utility.yul\":976:1283   */\n      pop\n      pop\n      pop\n      jump\t// out\n        /* \"#utility.yul\":1289:1391   */\n    tag_28:\n        /* \"#utility.yul\":1330:1336   */\n      0x00\n        /* \"#utility.yul\":1381:1383   */\n      0x1f\n        /* \"#utility.yul\":1377:1384   */\n      not\n        /* \"#utility.yul\":1372:1374   */\n      0x1f\n        /* \"#utility.yul\":1365:1370   */\n      dup4\n        /* \"#utility.yul\":1361:1375   */\n      add\n        /* \"#utility.yul\":1357:1385   */\n      and\n        /* \"#utility.yul\":1347:1385   */\n      swap1\n      pop\n        /* \"#utility.yul\":1289:1391   */\n      swap2\n      swap1\n      pop\n      jump\t// out\n    stop\n    data_a41d6bc024f30f8b8a3d1abb1dc065726795ead0cf29e771c4d6df9781dd7fbb 4e6f7420656c696769626c6520666f72207468697320636f6c6c6567652e20426574746572206c75636b206e6578742074696d65212121\n\n    auxdata: 0xa26469706673582212204dd9f09dd59aa794d0656cae1b9cf81e1dd20166d037f80a620c19f9b0d3631b64736f6c63430008070033\n}\n",
				"bytecode": {
					"linkReferences": {},
					"object": "608060405234801561001057600080fd5b506040516104b33803806104b383398181016040528101906100329190610163565b60156040518060400160405280600c81526020017f72616d20736872657374686100000000000000000000000000000000000000008152506019603883600081905550826001908051906020019061008b9291906100ab565b508160028190555080600381905550505050508060048190555050610217565b8280546100b79061019a565b90600052602060002090601f0160209004810192826100d95760008555610120565b82601f106100f257805160ff1916838001178555610120565b82800160010185558215610120579182015b8281111561011f578251825591602001919060010190610104565b5b50905061012d9190610131565b5090565b5b8082111561014a576000816000905550600101610132565b5090565b60008151905061015d81610200565b92915050565b600060208284031215610179576101786101fb565b5b60006101878482850161014e565b91505092915050565b6000819050919050565b600060028204905060018216806101b257607f821691505b602082108114156101c6576101c56101cc565b5b50919050565b7f4e487b7100000000000000000000000000000000000000000000000000000000600052602260045260246000fd5b600080fd5b61020981610190565b811461021457600080fd5b50565b61028d806102266000396000f3fe608060405234801561001057600080fd5b50600436106100365760003560e01c80633e70f7041461003b578063f737971014610059575b600080fd5b610043610077565b604051610050919061019e565b60405180910390f35b6100616100e0565b60405161006e919061019e565b60405180910390f35b6060603760035411156100c1576040518060400160405280601681526020017f456c696769626c6520666f722061646d697373696f6e0000000000000000000081525090506100dd565b6040518060600160405280603781526020016102216037913990505b90565b6060606460045410610129576040518060400160405280601181526020017f496c6c206765742061646d697373696f6e0000000000000000000000000000008152509050610162565b6040518060400160405280601881526020017f536f72727920747279206e6578742073747564656e742121000000000000000081525090505b90565b6000610170826101c0565b61017a81856101cb565b935061018a8185602086016101dc565b6101938161020f565b840191505092915050565b600060208201905081810360008301526101b88184610165565b905092915050565b600081519050919050565b600082825260208201905092915050565b60005b838110156101fa5780820151818401526020810190506101df565b83811115610209576000848401525b50505050565b6000601f19601f830116905091905056fe4e6f7420656c696769626c6520666f72207468697320636f6c6c6567652e20426574746572206c75636b206e6578742074696d65212121a26469706673582212204dd9f09dd59aa794d0656cae1b9cf81e1dd20166d037f80a620c19f9b0d3631b64736f6c63430008070033",
					"opcodes": "PUSH1 0x80 PUSH1 0x40 MSTORE CALLVALUE DUP1 ISZERO PUSH2 0x10 JUMPI PUSH1 0x0 DUP1 REVERT JUMPDEST POP PUSH1 0x40 MLOAD PUSH2 0x4B3 CODESIZE SUB DUP1 PUSH2 0x4B3 DUP4 CODECOPY DUP2 DUP2 ADD PUSH1 0x40 MSTORE DUP2 ADD SWAP1 PUSH2 0x32 SWAP2 SWAP1 PUSH2 0x163 JUMP JUMPDEST PUSH1 0x15 PUSH1 0x40 MLOAD DUP1 PUSH1 0x40 ADD PUSH1 0x40 MSTORE DUP1 PUSH1 0xC DUP2 MSTORE PUSH1 0x20 ADD PUSH32 0x72616D2073687265737468610000000000000000000000000000000000000000 DUP2 MSTORE POP PUSH1 0x19 PUSH1 0x38 DUP4 PUSH1 0x0 DUP2 SWAP1 SSTORE POP DUP3 PUSH1 0x1 SWAP1 DUP1 MLOAD SWAP1 PUSH1 0x20 ADD SWAP1 PUSH2 0x8B SWAP3 SWAP2 SWAP1 PUSH2 0xAB JUMP JUMPDEST POP DUP2 PUSH1 0x2 DUP2 SWAP1 SSTORE POP DUP1 PUSH1 0x3 DUP2 SWAP1 SSTORE POP POP POP POP POP DUP1 PUSH1 0x4 DUP2 SWAP1 SSTORE POP POP PUSH2 0x217 JUMP JUMPDEST DUP3 DUP1 SLOAD PUSH2 0xB7 SWAP1 PUSH2 0x19A JUMP JUMPDEST SWAP1 PUSH1 0x0 MSTORE PUSH1 0x20 PUSH1 0x0 KECCAK256 SWAP1 PUSH1 0x1F ADD PUSH1 0x20 SWAP1 DIV DUP2 ADD SWAP3 DUP3 PUSH2 0xD9 JUMPI PUSH1 0x0 DUP6 SSTORE PUSH2 0x120 JUMP JUMPDEST DUP3 PUSH1 0x1F LT PUSH2 0xF2 JUMPI DUP1 MLOAD PUSH1 0xFF NOT AND DUP4 DUP1 ADD OR DUP6 SSTORE PUSH2 0x120 JUMP JUMPDEST DUP3 DUP1 ADD PUSH1 0x1 ADD DUP6 SSTORE DUP3 ISZERO PUSH2 0x120 JUMPI SWAP2 DUP3 ADD JUMPDEST DUP3 DUP2 GT ISZERO PUSH2 0x11F JUMPI DUP3 MLOAD DUP3 SSTORE SWAP2 PUSH1 0x20 ADD SWAP2 SWAP1 PUSH1 0x1 ADD SWAP1 PUSH2 0x104 JUMP JUMPDEST JUMPDEST POP SWAP1 POP PUSH2 0x12D SWAP2 SWAP1 PUSH2 0x131 JUMP JUMPDEST POP SWAP1 JUMP JUMPDEST JUMPDEST DUP1 DUP3 GT ISZERO PUSH2 0x14A JUMPI PUSH1 0x0 DUP2 PUSH1 0x0 SWAP1 SSTORE POP PUSH1 0x1 ADD PUSH2 0x132 JUMP JUMPDEST POP SWAP1 JUMP JUMPDEST PUSH1 0x0 DUP2 MLOAD SWAP1 POP PUSH2 0x15D DUP2 PUSH2 0x200 JUMP JUMPDEST SWAP3 SWAP2 POP POP JUMP JUMPDEST PUSH1 0x0 PUSH1 0x20 DUP3 DUP5 SUB SLT ISZERO PUSH2 0x179 JUMPI PUSH2 0x178 PUSH2 0x1FB JUMP JUMPDEST JUMPDEST PUSH1 0x0 PUSH2 0x187 DUP5 DUP3 DUP6 ADD PUSH2 0x14E JUMP JUMPDEST SWAP2 POP POP SWAP3 SWAP2 POP POP JUMP JUMPDEST PUSH1 0x0 DUP2 SWAP1 POP SWAP2 SWAP1 POP JUMP JUMPDEST PUSH1 0x0 PUSH1 0x2 DUP3 DIV SWAP1 POP PUSH1 0x1 DUP3 AND DUP1 PUSH2 0x1B2 JUMPI PUSH1 0x7F DUP3 AND SWAP2 POP JUMPDEST PUSH1 0x20 DUP3 LT DUP2 EQ ISZERO PUSH2 0x1C6 JUMPI PUSH2 0x1C5 PUSH2 0x1CC JUMP JUMPDEST JUMPDEST POP SWAP2 SWAP1 POP JUMP JUMPDEST PUSH32 0x4E487B7100000000000000000000000000000000000000000000000000000000 PUSH1 0x0 MSTORE PUSH1 0x22 PUSH1 0x4 MSTORE PUSH1 0x24 PUSH1 0x0 REVERT JUMPDEST PUSH1 0x0 DUP1 REVERT JUMPDEST PUSH2 0x209 DUP2 PUSH2 0x190 JUMP JUMPDEST DUP2 EQ PUSH2 0x214 JUMPI PUSH1 0x0 DUP1 REVERT JUMPDEST POP JUMP JUMPDEST PUSH2 0x28D DUP1 PUSH2 0x226 PUSH1 0x0 CODECOPY PUSH1 0x0 RETURN INVALID PUSH1 0x80 PUSH1 0x40 MSTORE CALLVALUE DUP1 ISZERO PUSH2 0x10 JUMPI PUSH1 0x0 DUP1 REVERT JUMPDEST POP PUSH1 0x4 CALLDATASIZE LT PUSH2 0x36 JUMPI PUSH1 0x0 CALLDATALOAD PUSH1 0xE0 SHR DUP1 PUSH4 0x3E70F704 EQ PUSH2 0x3B JUMPI DUP1 PUSH4 0xF7379710 EQ PUSH2 0x59 JUMPI JUMPDEST PUSH1 0x0 DUP1 REVERT JUMPDEST PUSH2 0x43 PUSH2 0x77 JUMP JUMPDEST PUSH1 0x40 MLOAD PUSH2 0x50 SWAP2 SWAP1 PUSH2 0x19E JUMP JUMPDEST PUSH1 0x40 MLOAD DUP1 SWAP2 SUB SWAP1 RETURN JUMPDEST PUSH2 0x61 PUSH2 0xE0 JUMP JUMPDEST PUSH1 0x40 MLOAD PUSH2 0x6E SWAP2 SWAP1 PUSH2 0x19E JUMP JUMPDEST PUSH1 0x40 MLOAD DUP1 SWAP2 SUB SWAP1 RETURN JUMPDEST PUSH1 0x60 PUSH1 0x37 PUSH1 0x3 SLOAD GT ISZERO PUSH2 0xC1 JUMPI PUSH1 0x40 MLOAD DUP1 PUSH1 0x40 ADD PUSH1 0x40 MSTORE DUP1 PUSH1 0x16 DUP2 MSTORE PUSH1 0x20 ADD PUSH32 0x456C696769626C6520666F722061646D697373696F6E00000000000000000000 DUP2 MSTORE POP SWAP1 POP PUSH2 0xDD JUMP JUMPDEST PUSH1 0x40 MLOAD DUP1 PUSH1 0x60 ADD PUSH1 0x40 MSTORE DUP1 PUSH1 0x37 DUP2 MSTORE PUSH1 0x20 ADD PUSH2 0x221 PUSH1 0x37 SWAP2 CODECOPY SWAP1 POP JUMPDEST SWAP1 JUMP JUMPDEST PUSH1 0x60 PUSH1 0x64 PUSH1 0x4 SLOAD LT PUSH2 0x129 JUMPI PUSH1 0x40 MLOAD DUP1 PUSH1 0x40 ADD PUSH1 0x40 MSTORE DUP1 PUSH1 0x11 DUP2 MSTORE PUSH1 0x20 ADD PUSH32 0x496C6C206765742061646D697373696F6E000000000000000000000000000000 DUP2 MSTORE POP SWAP1 POP PUSH2 0x162 JUMP JUMPDEST PUSH1 0x40 MLOAD DUP1 PUSH1 0x40 ADD PUSH1 0x40 MSTORE DUP1 PUSH1 0x18 DUP2 MSTORE PUSH1 0x20 ADD PUSH32 0x536F72727920747279206E6578742073747564656E7421210000000000000000 DUP2 MSTORE POP SWAP1 POP JUMPDEST SWAP1 JUMP JUMPDEST PUSH1 0x0 PUSH2 0x170 DUP3 PUSH2 0x1C0 JUMP JUMPDEST PUSH2 0x17A DUP2 DUP6 PUSH2 0x1CB JUMP JUMPDEST SWAP4 POP PUSH2 0x18A DUP2 DUP6 PUSH1 0x20 DUP7 ADD PUSH2 0x1DC JUMP JUMPDEST PUSH2 0x193 DUP2 PUSH2 0x20F JUMP JUMPDEST DUP5 ADD SWAP2 POP POP SWAP3 SWAP2 POP POP JUMP JUMPDEST PUSH1 0x0 PUSH1 0x20 DUP3 ADD SWAP1 POP DUP2 DUP2 SUB PUSH1 0x0 DUP4 ADD MSTORE PUSH2 0x1B8 DUP2 DUP5 PUSH2 0x165 JUMP JUMPDEST SWAP1 POP SWAP3 SWAP2 POP POP JUMP JUMPDEST PUSH1 0x0 DUP2 MLOAD SWAP1 POP SWAP2 SWAP1 POP JUMP JUMPDEST PUSH1 0x0 DUP3 DUP3 MSTORE PUSH1 0x20 DUP3 ADD SWAP1 POP SWAP3 SWAP2 POP POP JUMP JUMPDEST PUSH1 0x0 JUMPDEST DUP4 DUP2 LT ISZERO PUSH2 0x1FA JUMPI DUP1 DUP3 ADD MLOAD DUP2 DUP5 ADD MSTORE PUSH1 0x20 DUP2 ADD SWAP1 POP PUSH2 0x1DF JUMP JUMPDEST DUP4 DUP2 GT ISZERO PUSH2 0x209 JUMPI PUSH1 0x0 DUP5 DUP5 ADD MSTORE JUMPDEST POP POP POP POP JUMP JUMPDEST PUSH1 0x0 PUSH1 0x1F NOT PUSH1 0x1F DUP4 ADD AND SWAP1 POP SWAP2 SWAP1 POP JUMP INVALID 0x4E PUSH16 0x7420656C696769626C6520666F722074 PUSH9 0x697320636F6C6C6567 PUSH6 0x2E2042657474 PUSH6 0x72206C75636B KECCAK256 PUSH15 0x6578742074696D65212121A2646970 PUSH7 0x73582212204DD9 CREATE SWAP14 0xD5 SWAP11 0xA7 SWAP5 0xD0 PUSH6 0x6CAE1B9CF81E SAR 0xD2 ADD PUSH7 0xD037F80A620C19 0xF9 0xB0 0xD3 PUSH4 0x1B64736F PUSH13 0x63430008070033000000000000 "
				},
				"gasEstimates": {
					"creation": {
						"codeDepositCost": "130600",
						"executionCost": "infinite",
						"totalCost": "infinite"
					},
					"external": {
						"checkbookCount()": "infinite",
						"verifyAdmission()": "infinite"
					}
				},
				"methodIdentifiers": {
					"checkbookCount()": "f7379710",
					"verifyAdmission()": "3e70f704"
				}
			},
			"storageLayout": {
				"storage": [
					{
						"astId": 3,
						"contract": "solidity practice/inheritance.sol:Ram",
						"label": "age",
						"offset": 0,
						"slot": "0",
						"type": "t_uint256"
					},
					{
						"astId": 5,
						"contract": "solidity practice/inheritance.sol:Ram",
						"label": "name",
						"offset": 0,
						"slot": "1",
						"type": "t_string_storage"
					},
					{
						"astId": 7,
						"contract": "solidity practice/inheritance.sol:Ram",
						"label": "rollNo",
						"offset": 0,
						"slot": "2",
						"type": "t_uint256"
					},
					{
						"astId": 9,
						"contract": "solidity practice/inheritance.sol:Ram",
						"label": "grade",
						"offset": 0,
						"slot": "3",
						"type": "t_uint256"
					},
					{
						"astId": 62,
						"contract": "solidity practice/inheritance.sol:Ram",
						"label": "bookCount",
						"offset": 0,
						"slot": "4",
						"type": "t_uint256"
					}
				],
				"types": {
					"t_string_storage": {
						"encoding": "bytes",
						"label": "string",
						"numberOfBytes": "32"
					},
					"t_uint256": {
						"encoding": "inplace",
						"label": "uint256",
						"numberOfBytes": "32"
					}
				}
			},
			"userdoc": {
				"kind": "user",
				"methods": {},
				"version": 1
			}
		}
	}
}